:0300000002028772
:03004300020400B4
:10010000E4FFFEC220D2E843D820907FAB74FFF01A
:10011000907FA9F0907FAAF05391EF907F9574C0E3
:10012000F0907F9EF0907F98F0E4907F94F0907F25
:100130009D74FFF0907F9774A0F0907F93E054FC43
:10014000F0907F9C7403F0E4907F96F0907FAFE096
:100150004401F0907FAEE0440DF0D2AF0FBF00013C
:100160000EBE07F8BF08F520204275140075130075
:100170007512007511007F487E927D007C00AB14E3
:10018000AA13A912A811C31203ED50DB2020D87ABC
:100190000079007800E5142401F514EA3513F5130D
:1001A000E93512F512E83511F51180CA3020FD123B
:1001B00001C75007907FB4E04401F0907FB4E04461
:1001C00002F0C22080E622907FE9E0245B60602498
:1001D000026003020285907FEAE0750A00F50BA336
:1001E000E0FEE4EE420A907FEEE0751500F516A3FE
:1001F000E0FEE4EE4215E51645157003020285E4C3
:10020000907FC5F0907FB4E020E3F9907FC5E0F5E2
:100210000C120313AF0C7E00EF250BF50BEE350A25
:10022000F50AC3E5169FF516E5159EF51580C790EE
:100230007FEAE0750A00F50BA3E0FEE4EE420A90C7
:100240007FEEE0751500F516A3E0FEE4EE4215E53D
:100250001645156030E4907FC5F0907FB4E020E350
:10026000F9907FC5E0F50C12032BAF0C7E00EF2553
:100270000BF50BEE350AF50AC3E5169FF516E515E5
:100280009EF51580CAC322787FE4F6D8FD758129D2
:100290000202CE020100E493A3F8E493A34003F624
:1002A0008001F208DFF48029E493A3F85407240CBA
:1002B000C8C333C4540F4420C8834004F45680019B
:1002C00046F6DFE4800B0102040810204080900411
:1002D0006EE47E019360BCA3FF543F30E509541FD8
:1002E000FEE493A360010ECF54C025E060A840B89F
:1002F000E493A3FAE493A3F8E493A3C8C582C8CA1D
:10030000C583CAF0A3C8C582C8CAC583CADFE9DEEF
:10031000E780BEE50CFFE50BF582E50AF5837592F3
:100320007E74C0F8E208F0A3DFFA22907F968583FE
:1003300092A8827902900000E0B4000D7401F09060
:100340007F97E0547FF04480F0E50CFF907EC0E0A2
:10035000F528E4A24733F269F2E4A24633F269F2E7
:10036000E4A24533F269F2E4A24433F269F2E4A272
:100370004333F269F2E4A24233F269F2E4A2413378
:10038000F269F2E4A24033F269F2A3DFC222C0E0D4
:10039000C083C082907FC4E4F05391EF907FAB7430
:1003A00004F0D082D083D0E032C0E0C083C082D2DB
:1003B000205391EF907FAB7401F0D082D083D0E0D6
:1003C00032C0E0C083C0825391EF907FAB7402F0E3
:1003D000D082D083D0E032C0E0C083C0825391EF9E
:1003E000907FAB7410F0D082D083D0E032EB9FF5D9
:1003F000F0EA9E42F0E99D42F0E89C45F02232325C
:100400000203A9000203C10002038E000204580087
:100410000203D7000203FE000203FF00020484006F
:10042000020485000204860002048700020488009A
:100430000204890002048A0002048B0002048C007A
:1004400002048D0002048E0002048F00020490005A
:100450000204910002049200C0E0C083C082539164
:10046000EF907FAB7408F0D082D083D0E032020AE4
:10047000000F010C11040D000000004100000002FB
:1004800017000000323232323232323232323232FD
:03049000323232D3
:1011000012011001000000406A0801010001010203
:10111000000109022000010103A0000904000002EF
:10112000FF0000040705820240000007050202409C
:10113000000004030904260341006E0063006800F8
:101140006F007200200043006800690070007300A7
:101150002C00200049006E0063002E00280346008A
:10116000690072006D007700610072006500200068
:101170004600720061006D00650057006F0072004C
:101180006B0073002A0343006F006E006600690065
:101190006700750072006100740069006F006E00E6
:1011A000200053007400720069006E006700220383
:1011B00049006E0074006500720066006100630003
:1011C0006500200053007400720069006E00670023
:0211D00000001D
:00000001FF
