:060000000297E302131257
:03000B00020BB530
:0300330002081CA4
:03004300020A00AE
:03005B0002833BE2
:10037000907FE9E070030204731470030204E72421
:10038000FE700302054F24FB700302046414700323
:1003900002045214700302043A1470030204492444
:1003A00005600302059E907FEBE024FE601614605A
:1003B000362402707B7412907FD4F07400907FD545
:1003C000F00205A5907FEAE0FF120A99EA49600D64
:1003D000EA907FD4F0E9907FD5F00205A5907FB434
:1003E000E04401F00205A5907FEAE0FF120A58EA16
:1003F00049603312A23BF54E907FEEE0FFE54ED30D
:100400009F4003E0F54EE54ED394404003754E40C7
:10041000AE02AF017C7F7D00AB4E129137907FB56D
:10042000E54EF00205A5907FB4E04401F00205A579
:10043000907FB4E04401F00205A5907F00E521F033
:10044000907FB57401F00205A5907FEAE0F52102E6
:1004500005A5907FEAE0F535D202438810D2EBD2B1
:10046000A80205A5907F00E535F0907FB57401F0F6
:100470000205A5907FE8E0247F6024146031240207
:10048000705BA200E433FF25E0FFA205E4334F9048
:100490007F00F0E4A3F0907FB57402F00205A5E4BC
:1004A000907F00F0A3F0907FB57402F00205A59054
:1004B0007FECE0F45480FFC4540FFFE054072F2575
:1004C000E024B4F582E4347FF583E05401907F00AA
:1004D000F0E4A3F0907FB57402F00205A5907FB41C
:1004E000E04401F00205A5907FE8E024FE601D24B1
:1004F0000260030205A5907FEAE0B40105C2000294
:1005000005A5907FB4E04401F00205A5907FEAE0E4
:100510007034907FECE0FF5407FEF54EEF30E703B8
:10052000434E10907FD7E54EF0E54E4420F0EFF4B7
:100530005480FDC4540F2E25E024B4F582E4347FAA
:10054000F583E4F0805F907FB4E04401F080569042
:100550007FE8E024FE60182402704A907FEAE0B44D
:100560000104D200803F907FB4E04401F0803690D7
:100570007FEAE07020907FECE0F45480FFC4540FD9
:10058000FFE054072F25E024B4F582E4347FF5839F
:100590007401F08010907FB4E04401F08007907FF8
:1005A000B4E04401F0907FB4E04402F022754AFFC9
:1005B0007549FF75480F754700D203C206C202C2D3
:1005C00000C205C2019003007419F0E49001BCF070
:1005D000C2049001C0F0A3F0C2AFC2A8120C22E482
:1005E0009002AFF09001BDF0900100F0A3F0A3F0F5
:1005F000A3F0A3F0A37410F0A37401F0A37408F0A7
:100600007E017F001219C1754C12754D0A90010BC5
:10061000E0FF054DE54DAC4C7002054C14F5828CA5
:1006200083EFF090010CE04480FF054DE54DAC4CAC
:100630007002054C14F5828C83EFF090010DE0FF01
:10064000054DE54DAC4C7002054C14F5828C83EFE2
:10065000F090010EE0FF054DE54DAC4C7002054CED
:1006600014F5828C83EFF090120AE493FF740193E7
:1006700090011CCFF0A3EFF090011CE0FFA3E0FE7F
:10068000EF6EFF90011CF0A3E06FFFF090011CE003
:100690006FF0E0FEA3E0FFE4FCFD7552107553021D
:1006A0007554127555AC129426754C12754DB29056
:1006B000010DE0FF054DE54DAC4C7002054C14F505
:1006C000828C83EFF090010EE0FF054DE54DAC4CC0
:1006D0007002054C14F5828C83EFF0907F92E0FF5E
:1006E000C4540F2441FF054DE54DAC4C7002054C40
:1006F00014F5828C83EFF0054DE54DAE4C7002058C
:100700004C14F5828E83E4F0758210758301E0FC51
:10071000A3E0FDA3E0FEA3E0FF90011812A3EE7E8C
:10072000017F181286BE900118E0FCA3E0FDA3E053
:10073000FEA3E0FF75520A7553067554127555B83D
:10074000129426D2E843D820907FAB74FFF05391E7
:10075000EF907FAFE04401F0907FAEE0441FF0D215
:10076000AF20012E20012BA20392071209C5754666
:100770005075456D7544337543002001E47FFF7E5D
:10078000FF7DFF7CFF784312A3D7EC4D4E4F60D125
:1007900080E8300105120370C20130060A1209FB1D
:1007A0005003120AE8C20612965E9001BDE0600C8A
:1007B000129201E49001BDF0907FD3F09002AFE07F
:1007C000B40F031299B912A095E4FF7401A80708A9
:1007D0008002C333D8FCFE9001BCE05E6014742834
:1007E0002FF8E6D3940A40047E0180027E008E4BEF
:1007F0008003754B0174682FF582E43420F583E59E
:100800004BF00FBF04C5E52CD3940A40047F018050
:10081000027F0090206CEFF00207922253D8EF3253
:10082000E533C39401400E907F93E04430F0907F15
:1008300095E044C0F07FF47E011209AE907F96E00F
:1008400054FEF07F0A7E001209AE907F96E04408C5
:10085000F07F057E001209AE907F96E054FBF07F9A
:10086000057E001209AEE533C39401500E7F027D70
:10087000FF1282EA7F057E001209AE907F96E04467
:1008800002F0E0547FF07F057E001209AE907F9663
:10089000E04440F07F057E001209AE907F96E05460
:1008A000BFF07F327E001209AE907F96E04440F0A8
:1008B0007F327E001209AE22907F96E054FDF0E078
:1008C0004480F07F0A7E001209AEE533C3940150E4
:1008D0000E7F02E4FD1282EA7F057E001209AE90CF
:1008E0007F96E054BFF07F057E001209AE907F96A0
:1008F000E04404F07F057E001209AE907F96E0543C
:10090000F7F07F057E001209AE907F96E04401F07B
:100910007F057E001209AEE533C39401400E907F3F
:1009200093E054CFF0907F95E0543FF0120B0022FB
:10093000900AF4E4937076907F937430F0907F94F3
:10094000743CF0907F9574C6F07F0A7E001209AE69
:10095000E4907F9CF0907F967408F0907F9C74CF19
:10096000F07F0A7E001209AE902070E0FFC4540FA1
:10097000F533C394015007907F96E04480F0E490F3
:100980007F97F0907F9D7402F0E533C39401400B94
:10099000E4907F98F0907F9E74C0F0907FE2741294
:1009A000F01208207582F475830A74FFF0228E5DC0
:1009B0008F5EE55E155EAE5D7002155D4E600512E0
:1009C00009EA80EE22907FD6E054FBF0E04408F084
:1009D000300704E04402F07FD07E071209AE907F1A
:1009E000D6E054F7F0E04404F0227400F58690FD60
:1009F000A57C05A3E582458370F9221208B8D322AD
:100A0000020C4E00020C8100020C6600020CC000B9
:100A1000020CAA00020AED00020AEE00020AEF0030
:100A2000020CDB00020DCB00020D1700020E2B00A2
:100A3000020D5300020E8B00020D8F00020EEB0020
:100A4000020AF000020AF200020AF100020AF300B0
:100A5000020F4B00020F61008F4FE4F5507551FFFC
:100A600075521275536AAB51AA52A95390000112E4
:100A7000A254B4031DAF500550EFB54F012212A28E
:100A80003B7E0029FFEE3AA9077551FFF5528953C5
:100A900080D47B007A00790022E4FE7551FF755204
:100AA00012755312AB51AA52A95390000112A254CD
:100AB0006402702DAD060EEDB50701229000021202
:100AC000A2AD85F04FF550624FE54F6250E55062A0
:100AD0004F29FDE54F3AA9057551FFF5528953801D
:100AE000C37B007A00790022120820D322323232EE
:070AF000323232320004072C
:090B0000907FD6E04480F080747F
:100B7D00438701000000000000000000000000227B
:100B8D00538EF7E58954F14401F589758CB1D2A9DD
:100B9D0075984075CBFF75CAF375C834E4FF7F05B2
:100BAD007828E4F608DFFC22C0E0C083C082C0D004
:100BBD0075D000C000C006C007300416758CF875DE
:100BCD008A307F2FAE071FEE603C9020007455F0E9
:100BDD0080F2758CB17F28EFD3942C5009A807E6CD
:100BED006001160F80F1900300E0600214F0900197
:100BFD00C0E07002A3E0600E9001C1E024FFF09010
:100C0D0001C0E034FFF0D007D006D000D0D0D082A4
:100C1D00D083D0E032D200758E10120930E533C387
:100C2D0094014008907F927402F08005E4907F92C9
:100C3D00F0128000120F7D1294F7121B0C120B8D07
:100C4D0022C0E0C083C082D2015391EF907FAB747C
:100C5D0001F0D082D083D0E032C0E0C083C082905A
:100C6D007FC4E4F05391EF907FAB7404F0D082D049
:100C7D0083D0E032C0E0C083C0825391EF907FAB50
:100C8D007402F0907FD8E0700D907FD9E07007E589
:100C9D002C7003752C14D082D083D0E032C0E0C00C
:100CAD0083C0825391EF907FAB7410F0D082D083CC
:100CBD00D0E032C0E0C083C082300202D206539130
:100CCD00EF907FAB7408F0D082D083D0E032C0E0DB
:100CDD00C083C082C0D075D0105391EF907FA9749E
:100CED0002F0E53430E013E53230E007902004E007
:100CFD004401F0902001E04401F0E52C7003752CC7
:100D0D0014D0D0D082D083D0E032C0E0C083C08276
:100D1D00C0D075D0105391EF907FA97404F0E534D5
:100D2D0030E113E53230E10790200CE04401F09002
:100D3D002009E04401F0E52C7003752C14D0D0D0BF
:100D4D0082D083D0E032C0E0C083C082C0D075D0E5
:100D5D00105391EF907FA97408F0E53430E213E55C
:100D6D003230E207902014E04401F0902011E0446D
:100D7D0001F0E52C7003752C14D0D0D082D083D027
:100D8D00E032C0E0C083C082C0D075D0105391EF67
:100D9D00907FA97410F0E53430E313E53230E307AA
:100DAD0090201CE04401F0902019E04401F0E52C66
:100DBD007003752C14D0D0D082D083D0E032C0E037
:100DCD00C083C082C085C084C086758600C0D075C2
:100DDD00D0105391EF907FAA7402F0E53420E00615
:100DED00907FC7F08022E53130E00A907FC7E09018
:100DFD0002F8F08013E52230E007902004E0440271
:100E0D00F0902001E04402F0E52C7003752C14D015
:100E1D00D0D086D084D085D082D083D0E032C0E0CF
:100E2D00C083C082C085C084C086758600C0D07561
:100E3D00D0105391EF907FAA7404F0E53420E106B1
:100E4D00907FC9F08022E53130E10A907FC9E090B2
:100E5D0002F9F08013E52230E10790200CE0440206
:100E6D00F0902009E04402F0E52C7003752C14D0AD
:100E7D00D0D086D084D085D082D083D0E032C0E06F
:100E8D00C083C082C085C084C086758600C0D07501
:100E9D00D0105391EF907FAA7408F0E53420E2064C
:100EAD00907FCBF08022E53130E20A907FCBE0904D
:100EBD0002FAF08013E52230E207902014E044029C
:100ECD00F0902011E04402F0E52C7003752C14D045
:100EDD00D0D086D084D085D082D083D0E032C0E00F
:100EED00C083C082C085C084C086758600C0D075A1
:100EFD00D0105391EF907FAA7410F0E53420E306E3
:100F0D00907FCDF08022E53130E30A907FCDE090E7
:100F1D0002FBF08013E52230E30790201CE0440231
:100F2D00F0902019E04402F0E52C7003752C14D0DC
:100F3D00D0D086D084D085D082D083D0E032C0E0AE
:100F4D00C083C0825391EF907FA97480F0D082D07E
:100F5D0083D0E032C0E0C083C0825391EF907FAA6E
:100F6D007480F09001BD74FFF0D082D083D0E03258
:100F7D0090012012A3FA000025809001247408F03E
:100F8D00A37401F0A3746EF0A3F0A37413F0A37413
:100F9D0011F0E4A3F0A3F090011EF090011EE0FF0C
:100FAD0004A3F0EF75F00DA42401F9740335F0A836
:100FBD0001FC7D017B017A01791F7E007F0D12A25C
:100FCD00127E017F1F1287A690011EE004F0E0C380
:100FDD00940440C7E4F52790011EF090011EE0FF38
:100FED00C39404501A74F82FF582E43402F583E4A7
:100FFD00F074232FF8E4F690011EE004F080DCE499
:10100D00F534E5C0602F90011E7401F090011EE0D3
:10101D00FFD39404501FEF14FF7401A8070880023A
:10102D00C333D8FC42347E017F1E12844190011ED1
:10103D00E004F080D7E4F53EF522F531F53290016C
:10104D001EF090011EE0FF75F008A42406F582E461
:10105D003420F583E054F0FE74C52FF582E434019D
:10106D00F583EEF0743A2FF8A60674362FF8E4F6F1
:10107D00742D2FF8E4F674FC2FF582E43402F58319
:10108D00E4F090011EE004F0E0B404B6902060E0BE
:10109D00540FF54E7003021126E490011EF09001DD
:1010AD001EE0FFC3940450E47401A807088002C336
:1010BD0033D8FC554E605A90011EE0FE75F008A421
:1010CD002402F582E43420F583E0FFEE75F008A4E8
:1010DD002405F582E43420F583E0EE75F008A424B0
:1010ED0006F582E43420F583E0FFAF06EE75F00DD2
:1010FD00A42402F582E43403F583E0FCA3E0FDA310
:10110D00E0FEA3E0F5668E658D648C637D0612832B
:10111D00DF90011EE004F0808522AC07907FA5E0F2
:10112D004480F0EC25E04441907FA6F07B3CAF037A
:10113D001BEF7016907FA5E04440F0907FA6E0FD78
:10114D007D32AF051DEF60D480F8907FA5E0FD30B6
:10115D00E0DC20E109E04440F07EFF7FF922ED3034
:10116D00E20C907FA5E04440F07EFF7FFA22907F55
:10117D00A5E04420F0907FA6E0FD7B1EAF031BEFA2
:10118D007016907FA5E04440F0907FA6E0FD7D3283
:10119D00AF051DEF608680F8907FA5E0FD20E0DCB7
:1011AD007B3CAF031BEF7019907FA5E04440F0909E
:1011BD007FA6E0FD7D32AF051DEF70030211298082
:1011CD00F5907FA5E0FD30E0D930E209E04440F034
:1011DD007EFF7FFA22C2AF907FA5E04440F0907F62
:0911ED00A6E0FDD2AFFF7E002256
:1012000012010001FFFFFF401007018042000102B0
:10121000030109025800010104803C090400000A8E
:10122000FFFFFF050705810240000007050102409E
:10123000000007058202400000070502024000008E
:101240000705830240000007050302400000070570
:1012500084024000000705040240000007058702E1
:1012600040000007050702400000040309042403AE
:1012700043006F006E006E00650063007400200084
:101280005400650063006800200049006E006300A0
:101290002E001803570068006900740065004800BC
:1012A0004500410054002D0034001A035800580036
:1012B0002D00580058002D005800580058005800C4
:1012C000580058002A0343006F006E006600690052
:1012D0006700750072006100740069006F006E00A5
:1012E000200053007400720069006E006700220342
:1012F00049006E00740065007200660061006300C2
:101300006500200053007400720069006E006700E1
:101310000000C0E0C0F0C083C082C085C084C08629
:10132000C0D075860075D018902060E0540FF5F09D
:101330007011D0D0D086D084D085D082D083D0F028
:10134000D0E03275860010F00B10F11210F2191077
:10135000F32080D4E528700375281402137CE52956
:10136000700375291402150DE52A7003752A1402FD
:10137000169EE52B7003752B1402182F902002E0A7
:10138000543F20E23A20E10B20E40B20E5146009F1
:10139000021343021465021343438204E0F53A0248
:1013A0001343438204E0432D010213435382F84365
:1013B0008205E042365382FBE054FBF002134330D7
:1013C000E10280E8F585E53230E00A5382F8438295
:1013D00004E054FEF0E58520E3569020507400F0C0
:1013E0009020587401F0907FE2E04440F0907FE359
:1013F0000586907E800586E585F0A3E584F0058668
:10140000907FE5E53FFD030303FEF0F0F0F0F0F020
:10141000F0F0DEF6907FE2E054BFF09020587400C8
:10142000F0907FB7EDF0902001E054FEF0021343FE
:101430007F40907E800586902000E584FE2405FD97
:101440008D84E08E8430E009E00586F0A30586DF18
:10145000EF0586C374409F907FB7F00586A3E054E4
:10146000FEF0021343532DFAE5236008752300D2E2
:10147000E7FE800A907FC7E0FE70030214FF902011
:10148000507400F09020587401F0907FE2E04440E6
:10149000F0907FE30586907E400586E585F0A3E524
:1014A00084F00586907FE5EE30E7080586E0243875
:1014B000F00586EE547FFE5407FBEE54786030034F
:1014C000030330E30474077B08FDFCE0E0E0E0E0A8
:1014D000E0E0E0DDF6EBFE6019EC640770118B23B1
:1014E000907FE2E054BFF09020587400F0801BE041
:1014F000DEFD907FE2E054BFF09020587400F09041
:101500002001E054FDF0907FC7F002134390200AC1
:10151000E0543F20E23A20E10B20E40B20E5146088
:10152000090213430215F6021343438204E0F53B1C
:10153000021343438204E0432E010213435382F813
:10154000438205E042375382FBE054FBF002134331
:1015500030E10280E8F585E53230E10A5382F84354
:101560008204E054FEF0E58520E35690205074019B
:10157000F09020587401F0907FE2E04440F0907FBA
:10158000E30586907E000586E585F0A3E584F005F9
:1015900086907FE5E540FD030303FEF0F0F0F0F0F8
:1015A000F0F0F0DEF6907FE2E054BFF09020587447
:1015B00000F0907FB9EDF0902009E054FEF00213A6
:1015C000437F40907E000586902008E584FE240538
:1015D000FD8D84E08E8430E009E00586F0A3058669
:1015E000DFEF0586C374409F907FB9F00586A3E0C6
:1015F00054FEF0021343532EFAE5246008752400CC
:10160000D2E7FE800A907FC9E0FE70030216909038
:1016100020507401F09020587401F0907FE2E04473
:1016200040F0907FE30586907DC00586E585F0A3B8
:10163000E584F00586907FE5EE30E7080586E02436
:1016400038F00586EE547FFE5407FBEE5478603088
:1016500003030330E30474077B08FDFCE0E0E0E0F3
:10166000E0E0E0E0DDF6EBFE6019EC640770118B62
:1016700024907FE2E054BFF09020587400F0801B6B
:10168000E0DEFD907FE2E054BFF09020587400F05F
:10169000902009E054FDF0907FC9F00213439020A0
:1016A00012E0543F20E23A20E10B20E40B20E51445
:1016B0006009021343021787021343438204E0F5D3
:1016C0003C021343438204E0432F0102134353823D
:1016D000F8438205E042385382FBE054FBF00213EA
:1016E0004330E10280E8F585E53230E20A5382F8C2
:1016F000438204E054FEF0E58520E35690205074C8
:1017000002F09020587401F0907FE2E04440F090A5
:101710007FE30586907D800586E585F0A3E584F06E
:101720000586907FE5E541FD030303FEF0F0F0F050
:10173000F0F0F0F0DEF6907FE2E054BFF090205839
:101740007400F0907FBBEDF0902011E054FEF002A9
:1017500013437F40907D800586902010E584FE2411
:1017600005FD8D84E08E8430E009E00586F0A30558
:1017700086DFEF0586C374409F907FBBF00586A38C
:10178000E054FEF0021343532FFAE5256008752557
:1017900000D2E7FE800A907FCBE0FE7003021821A2
:1017A0009020507402F09020587401F0907FE2E095
:1017B0004440F0907FE30586907D400586E585F006
:1017C000A3E584F00586907FE5EE30E7080586E026
:1017D0002438F00586EE547FFE5407FBEE54786003
:1017E0003003030330E30474077B08FDFCE0E0E012
:1017F000E0E0E0E0E0DDF6EBFE6019EC640770117C
:101800008B25907FE2E054BFF09020587400F08068
:101810001BE0DEFD907FE2E054BFF09020587400A2
:10182000F0902011E054FDF0907FCBF00213439034
:10183000201AE0543F20E23A20E10B20E40B20E59F
:10184000146009021343021918021343438204E08F
:10185000F53D021343438204E04330010213435336
:1018600082F8438205E042395382FBE054FBF002E8
:10187000134330E10280E8F585E53230E30A538214
:10188000F8438204E054FEF0E58520E356902050B2
:101890007403F09020587401F0907FE2E04440F02F
:1018A000907FE30586907D000586E585F0A3E584BD
:1018B000F00586907FE5E542FD030303FEF0F0F0BE
:1018C000F0F0F0F0F0DEF6907FE2E054BFF0902010
:1018D000587400F0907FBDEDF0902019E054FEF0B8
:1018E0000213437F40907D000586902018E584FE1A
:1018F0002405FD8D84E08E8430E009E00586F0A3A8
:101900000586DFEF0586C374409F907FBDF0058696
:10191000A3E054FEF00213435330FAE52660087545
:101920002600D2E7FE800A907FCDE0FE7003021908
:10193000B29020507403F09020587401F0907FE230
:10194000E04440F0907FE30586907CC00586E58505
:10195000F0A3E584F00586907FE5EE30E708058684
:10196000E02438F00586EE547FFE5407FBEE5478F1
:10197000603003030330E30474077B08FDFCE0E000
:10198000E0E0E0E0E0E0DDF6EBFE6019EC6407701B
:10199000118B26907FE2E054BFF09020587400F045
:1019A000801BE0DEFD907FE2E054BFF09020587491
:1019B00000F0902019E054FDF0907FCDF002134329
:1019C00032AD07AC067906ED2404F582E43CF583DC
:1019D000E0FAA3E0FB4A7003021B09E9B4070040E8
:1019E00003021ADB9019EBF8282873021AB9021ABD
:1019F00071021A5A021A40021A2F021A1A021A0007
:101A0000907FA5E04480F08D828C83A3E0FF25E0E9
:101A100044A0907FA6F019021ADB198D828C83E016
:101A2000C39420400AA3A3E0907FA6F0021ADB8DA6
:101A3000828C83A3A3E0A3E0907FA6F019021ADBB7
:101A4000907FA5E04480F08D828C83A3E0FF25E0A9
:101A500044A1907FA6F019021ADBEB64014A7008DA
:101A6000907FA5E04420F019907FA6E0F5591980F9
:101A70006AED2404F582E43CF583E0FEA3E0640211
:101A80004E7008907FA5E04420F019907FA6E0FFFB
:101A9000ED2406F582E43CF583E475F00112A2978B
:101AA00085F082F583EFF0ED2404F582E43CF583C4
:101AB00074FFF5F012A2818022907FA5E04440F0EF
:101AC000907FA6E0FFED2406F582E43CF583E0FA82
:101AD000A3E0F5828A83EFF07F0822907FA5E0F5EE
:101AE0005930E0F730E207E04440F07F0622E9D3C6
:101AF000940250030219C7E55930E1030219C79057
:101B00007FA5E04440F07F07227F0822E533C3949D
:101B100001501C7F057E001209AE7F027DFF1282FC
:101B2000EA7F057E001209AE7F037DFF1282EA2262
:108000007BFF7A12791B90000412A254FD8B5075ED
:108010005112755224E4907FE1F0907FE0F0F54E2C
:10802000F54F9002AEF0907FDFF0907FDEF0907F12
:10803000A974FFF0907FAAF0E4FCEC25E024B4F5ED
:1080400082E4347FF583E4F00CBC10EEE4907FDD35
:10805000F0AF051DEF70030281C6AB50AA51A952C3
:1080600090000112A254640560030281B5900003E0
:1080700012A2546401600302813C90000212A254D7
:10808000FF547FFCD394075003028116ECC3941075
:108090004003028116EF30E742E54FAE4E7802CE44
:1080A000C313CE13D8F9FF74F02CF582E4347FF5B6
:1080B00083EFF0907FE0E0FFEC24F8FE7401A80667
:1080C000088002C333D8FC4F907FE0F09002AEE00E
:1080D00004F0907FDDE04480F0803EE54FAE4E78C6
:1080E00002CEC313CE13D8F9FF74E82CF582E43422
:1080F0007FF583EFF0907FE1E0FFEC24F8FE740160
:10810000A806088002C333D8FC4F907FE1F09002AC
:10811000AEE004F080037FFF2290000412A25425F9
:108120004FF54FE4354EF54E90000512A254FEE493
:10813000254FF54FEE354EF54E0281B8AB50AA51A2
:10814000A95290000312A254FF64026005EF640379
:10815000706090000212A254FF547FFCD394075029
:108160004EEF30E71E907FDEE0FF7401A804088028
:1081700002C333D8FCFE4F907FDEF0907FACE04E20
:10818000F08035907FDFE0FF7401A804088002C30F
:1081900033D8FCFE4F907FDFF0907FADE04EF0ECE7
:1081A00025E024C5F582E4347FF583ECF080097F77
:1081B000FF227FFF227FFF2274072552F552E4350C
:1081C00051F55102805120030D9002AEE0600790FE
:1081D0007FAEE04402F07F00228E598F5A755B0318
:1081E000E55A2404F582E43559F583E0FEA3E04E18
:1081F00070030282E7E55B604E146038146020145F
:10820000600302828B907FA5E04480F0855A8285CE
:108210005983A3E0FF25E044A0907FA6F0806C8501
:108220005A82855983E0C394204009A3A3E0907F3C
:10823000A6F08057155B855A82855983A3A3E0A3D6
:10824000E0907FA6F08044E55A2406F582E4355993
:10825000F583E475F00112A29785F082F583E09032
:108260007FA6F0907FA5E04440F0E55A2404F58213
:10827000E43559F58374FFF5F012A281855A8285A1
:108280005983A3A3E475F00112A281907FA5E0F5C4
:108290005C30E0F730E207E04440F07F0622E55C26
:1082A00020E10A907FA5E04440F07F0722E55B7063
:1082B000317F017E001209AE907FA5E04480F085F9
:1082C0005A82855983A3E0FF25E044A0907FA6F061
:1082D000907FA5E0F55C30E0F730E1D5755B0302F7
:1082E00081E0155B0281E07F0822AE077C02EC147E
:1082F000601514701E907FA5E04480F0EE25E044E8
:1083000040907FA6F0800C907FA6EDF0907FA5E0D6
:108310004440F0907FA5E0FB30E0F8BC020A20E189
:1083200007E04440F07F0722EB30E20A907FA5E0AF
:108330004440F07F0622DCB67F0822C0E0C083C044
:1083400082C2A99003007419F0D2A953917F9001C1
:10835000C4E4F0D082D083D0E032EF75F008A424DA
:1083600000F582E43420AB82FAF583A3E4F08B823B
:108370008A83A3A3A3E0F56174BFF08B828A83A3F1
:10838000A3E04410F08B828A83A3A3A3E4F08B8242
:108390008A83A3F0F9ED601D74017E00A8070880B0
:1083A00005C333CE33CED8F9FFE4EF5531600479FD
:1083B000098002790D8B828A83A3A3A374BFF08BFB
:1083C000828A83A3A3E054EFF08B828A83A3A3A3C2
:1083D000E561F0AE02AF038F828E83A3E9F0228FB6
:1083E000618D62E4F567743F2FF876087F807E2503
:1083F0007D007C00AB66AA65A964A863D312A3B311
:1084000040267F007E967D007C00A863D312A3B334
:10841000500C756740743F2561F87610800A7567C7
:1084200080743F2561F87638E56745624401FFE5D1
:108430006175F008A42402F582E43420F583EFF09E
:10844000228F828E83E014F557C3940440037FFF8C
:1084500022E55775F008A42400F582E43420AF82A9
:10846000F5588F59E55725E024C6F582E4347FF5A9
:1084700083E020E10FE55725E024C7F582E4347F4F
:10848000F583E4F074232557F8E4F6E5592404F560
:1084900082E43558F583E04403F0E55775F00DA408
:1084A0002402F582E43403F583E0FCA3E0FDA3E0BD
:1084B000FEA3E0F5668E658D648C637D06AF571272
:1084C00083DFAF577D0112835A855982855883A374
:1084D000A3E020E043E0FFE5592405F582E43558A8
:1084E000F583E0E5592406F582E43558F583E0FF8D
:1084F000E55775F00DA42402F582E43403F583E01A
:10850000FCA3E0FDA3E0FEA3E0F5668E658D648C20
:10851000637D06AF571283DF74F82557F582E43484
:1085200002F583E4F0E55725E0FFC3740C9F75F076
:1085300040A42440F582E5F0347BAF82FEE5572568
:10854000E024EFF582E43402F583EEF0A3EFF0AF20
:10855000577401A807088002C333D8FC42347F0057
:10856000228F828E83E014F557C3940440037FFF6B
:1085700022AF57E4FD12835A74F82557F582E4348C
:1085800002F583E4F0E55775F008A42400F582E4D1
:108590003420AF82F5598F5AF583E5822404F582A1
:1085A000E43583F583E054FCF0E55775F00DA42421
:1085B0000CF582E43403F583E4F0E55775F00DA47F
:1085C0002402F582E43403F583E0FCA3E0FDA3E09C
:1085D000FEA3E0F5668E658D648C637D06AF571251
:1085E00083DFE55A2405F582E43559F583E030E070
:1085F00009855A82855983E0F558AF577401A80759
:10860000088002C333D8FCF45234E55725E024C671
:10861000F582E4347FF583E020E10FE55725E0247F
:10862000C7F582E4347FF583E4F07F00228E578F14
:10863000588F828E83E014F559C3940440037FFF62
:1086400022E55975F008A42401F582E43420F5836D
:10865000E054037066855882855783A3E030E02894
:10866000E55975F00DA42402F582E43403F583E0A6
:10867000FCA3E0FDA3E0FEA3E0F5668E658D648CAF
:10868000637D02AF591283DF855882855783A3E04B
:1086900030E128E55975F00DA42402F582E4340395
:1086A000F583E0FCA3E0FDA3E0FEA3E0F5668E65A4
:1086B0008D648C637D04AF591283DF7F00228F822B
:1086C0008E83C083C082E0FDA3A3A3E0FCED6CD049
:1086D00082D083F08F828E83A3A3A3C083C082E065
:1086E000FD8F828E83E0FCED6CD082D083F08F8290
:1086F0008E83C083C082A3A3A3E0FDEC6DD082D0A3
:1087000083F08F828E83A3C083C082E0FD8F828E30
:1087100083A3A3E0FCED6CD082D083F08F828E83A4
:10872000A3A3C083C082E0FD8F828E83A3E0FCED13
:108730006CD082D083F08F828E83A3C083C082E00E
:10874000FD8F828E83A3A3E0FFED6FD082D083F0F4
:1087500022AD07AC06790D8D828C83E014FEC394A4
:108760000440037FFF228C578D58EE75F00DA42432
:1087700001F582E43403AF82FEAD0119ED60240FF0
:10878000EFAC0670010E14F5828C83E0FD0558E510
:1087900058AA577002055714F5828A83E06D60D994
:1087A0007F01227F00228E578F588F828E83E014A4
:1087B000F55EC3940440037FFF22E55E75F008A4D4
:1087C0002400F582E43420AF82F55F8F6085588203
:1087D000855783A3E0FCA3E0FDA3E0FEA3E0FF7BBD
:1087E000087A0079007800D312A3B340108558822C
:1087F000855783A312A3FA00000008802E855882B3
:10880000855783A3E0FCA3E0FDA3E0FEA3E0FF7B8C
:10881000007A0879077800C312A3B3500E855882F6
:10882000855783A312A3FA0007080085588285574D
:1088300083A3E0F8A3E0F9A3E0FAA3E0FB7F007EC6
:10884000507D467C0012A3218F5C8E5B8D5A8C5923
:108850007B0A7A007900780012A321AF038F5DAF05
:108860005CAE5BAD5AAC597B0A7A00790078001295
:10887000A3218F5C8E5B8D5A8C59E55DC3940540B6
:1088800015E55C2401F55CE4355BF55BE4355AF5F0
:108890005AE43559F559856082855F83A3E4F085F4
:1088A0006082855F83A3A3A3E04480F08560828516
:1088B0005F83E55CF0AF5CAE5BAD5AAC59780812F3
:1088C000A3C4856082855F83A3EFF0856082855FA6
:1088D00083A3A3A3E0547FF0E4F55DE558240BF5F2
:1088E00082E43557F583E0FF30E0235401F0E56082
:1088F0002404F582E4355FF583E054FDF0AF5E7447
:1089000001A807088002C333D8FC422280367401D4
:108910007E00A85E088005C333CE33CED8F9FFE4CD
:10892000EF5522601FE5602404F582E4355FF5838E
:10893000E04402F0AF5E7401A807088002C333D898
:10894000FCF45222E5582408F582E43557F583E01B
:10895000FFB46205435D0A801AEFB47205435D08F7
:108960008011EFB47405435D028008EF646E60030C
:108970007FFF22E558240BF582E43557F583E0FFAD
:1089800030E303435D80EF30E712435D40E5602450
:1089900004F582E4355FF583E04402F0E558240BEA
:1089A000F582E43557F583E030E120AF5E7401A82D
:1089B00007088002C333D8FC4232E5602404F58204
:1089C000E4355FF583E04401F08010AF5E7401A8E8
:1089D00007088002C333D8FCF45232E558240BF563
:1089E00082E43557F583E0FF30E411AE5E7401A8F0
:1089F00006088002C333D8FC42318010AE5E740199
:108A0000A806088002C333D8FCF45231EF20E103FA
:108A100030E403E4F55D856082855F83A3A3A374DE
:108A2000BFF0856082855F83A3A3E4F0E55DF0E598
:108A300058240AF582E43557F583E0FFE560240405
:108A4000F582E4355FF583EFF0E558240AF582E41A
:108A50003557F583E0FFE5602405F582E4355FF5E1
:108A600083EFF0E5582409F582E43557F583E0FFFC
:108A7000E5602406F582E4355FF583EFF0E55824E0
:108A800009F582E43557F583E0FFE5602407F582B8
:108A9000E4355FF583EFF0856082855F83A3A3A350
:108AA000E4F0856082855F83A3A3F08558828557B3
:108AB00083A3E0FCA3E0FDA3E0FEA3E0F5668E65E2
:108AC0008D648C637D06AF5E1283DF755D08E558AB
:108AD000240CF582E43557F583E06003435D10E52F
:108AE000602404F582E4355FF583E05403455DF0CE
:108AF000E5582405F582E43557F583E0FEC3940577
:108B00004006EED3940840037FFF22E5582406F583
:108B100082E43557F583E0FDC394014006EDD3941C
:108B20000240037FFF22ED14FF25E025E0FFEE2445
:108B3000FB4FF55DE5582407F582E43557F583E0F2
:108B400024D0601814601A24C3601E146009240A1B
:108B50007014435D188012435D08800D435D3880BA
:108B600008435D2880037FFF22856082855F83A3A1
:108B7000A3A3E55DF074017E00A85E088005C33301
:108B8000CE33CED8F9FFE4EF55346007AF5E7D01F8
:108B900012835AAA57A9587B01C003C001E55E752C
:108BA000F00DA42401F9740335F0A801FCAD03D045
:108BB00001D0037E007F0D12A2127F00228F828ED1
:108BC00083E014FEC3940440037FFF22EE75F00897
:108BD000A42400F582E43420AD82FC90012C7408BA
:108BE000F0EE04A3F0E4A3F08D828C83E5822406EA
:108BF000F582E43583F583E090012FF08D828C833C
:108C0000E5822405F582E43583F583E0541E900166
:108C100030F0742D2EF8E6A3F0AF067401A8070813
:108C20008002C333D8FCF557E533C39401400D905F
:108C30002078E0540F755800F55980097F02121111
:108C4000278E588F59C3E5586480948040DAE557E1
:108C50005559900132F07E017F2C7D0712916A7F79
:108C600000228F828E83E014FEC3940440037FFFB2
:108C700022EE75F008A42400F582E43420AF82FED1
:108C8000900133740AF08F828E83E5822404F5828A
:108C9000E43583F583E0900134F07E017F337D027B
:108CA00012916A7F00228E578F588F828E83E01434
:108CB000FEC3940440037FFF22EE75F008A4240055
:108CC000F582E43420AD82FC855882855783A3E089
:108CD000600FED2404F582E43CF583E04402F0806B
:108CE00043EE75F00DA4240CF582E43403F583E023
:108CF00030E020EE25E024C6F582E4347FF583E001
:108D000030E1F07F60ED2405F582E43CF583E05F1F
:108D1000B507F2AE04AF05EF2404F582E43EF58317
:108D2000E054FDF07F0022AD07AC068D828C83E01D
:108D300014FEC3940440037FFF22EE75F008A424C0
:108D400000F582E43420AF82FE8D828C83A3E06044
:108D50000FEF2404F582E43EF583E04401F0800D3A
:108D6000EF2404F582E43EF583E054FEF07F002218
:108D7000AD07AC068D828C83E014FEC394044003DF
:108D80007FFF22EE75F008A42400F582E43420AFC2
:108D900082FE8D828C83A3E0600D8F828E83A3A3DD
:108DA000A3E04440F0800B8F828E83A3A3A3E05402
:108DB000BFF07F00228F828E83E014FEC3940440B4
:108DC000037FFF22AF067401A807088002C333D8CF
:108DD000FC423E7F00228E578F588F828E83A3E005
:108DE000F55C8F828E83E0F559D3940440037FFFB6
:108DF00022E55924FE601614601F146028240370B5
:108E00002E7E7E7F80755A7E755B8080227E7E7F7F
:108E100000755A7E755B0080167E7D7F80755A7D59
:108E2000755B80800A7E7D7F00755A7D755B00E5ED
:108E30005C701B855B82855A8374FFF0E55925E0E1
:108E400024B5F582E4347FF5837401F08048E55859
:108E50002402FFE43557FEE55C60230FEFAC06709B
:108E6000010E14F5828C83E0FD055BE55BAA5A7068
:108E700002055A14F5828A83EDF0155C80D9855875
:108E800082855783A3E0FFE55925E024B5F582E408
:108E9000347FF583EFF07F0022EF2405F558E43EA0
:108EA000F5579001357407F090017A7401F0A374BE
:108EB00036F0855882855783A3A3A3E0FEA3E08EF6
:108EC00059F55A855882855783E0249E606124F9BC
:108ED000600E24F17003028F7A24146003028FC89D
:108EE000855882855783A3E0FEA3E0FFC3E49FF586
:108EF0005C74019EF55BD3E55C943FE55B940040B8
:108F000006755B00755C3FD3E55A955CE559955B4A
:108F10005003028FCBAE5BAF5C855882855783A32D
:108F2000A3A3EEF0FEA3EFF08E59F55A028FCB8586
:108F30005882855783A3E0FEA3E0FFC374309FF5FA
:108F40005CE49EF55BD3E55C9410E55B9400400621
:108F5000755B00755C10D3E55A955CE559955B40EF
:108F60006AAE5BAF5C855882855783A3A3A3EEF0FE
:108F7000FEA3EFF08E59F55A8051855882855783AC
:108F8000A3E0FEA3E0FFC3E49FF55CE49EF55B4530
:108F90005C600BD3E55C943FE55B94004006755B39
:108FA00000755C3FD3E55A955CE559955B401CAE76
:108FB0005BAF5C855882855783A3A3A3EEF0FEA325
:108FC000EFF08E59F55A80037F012285588285572C
:108FD00083E0249E700302908B24F9605824F17082
:108FE000030290DB2414600302911F855882855789
:108FF00083A3E0FEA3E0FFD394FFEE9400400302BE
:10900000911F900175EFF0E55A155AAE597002158F
:10901000594E700302911F900175E0FF04F0A807FC
:10902000E6FF90017AE475F00112A29785F082F5CF
:1090300083EFF080D2855882855783A3E0FEA3E0BA
:10904000FFC39480EE9400500302911FD3EF94FF6E
:10905000EE9400400302911F900176EFF0E55A155F
:109060005AAE59700215594E700302911F90017645
:10907000E0FF04F0A807E6FF90017AE475F0011222
:10908000A29785F082F583EFF080D28558828557CC
:1090900083A3E0FEA3E0FFC39420EE9400500302FC
:1090A000911FD3EF942FEE94005074900177EFF05E
:1090B000E55A155AAE59700215594E606290017703
:1090C000E0FF04F0A807E6FF90017AE475F00112D2
:1090D000A29785F082F583EFF080D5855882855779
:1090E00083A3E0FFA3E0900178CFF0A3EFF0E55A6F
:1090F000155AAE59700215594E6024900178E475E6
:10910000F00112A29785F082F583E0FF90017AE4E6
:1091100075F00112A29785F082F583EFF080CF7E83
:10912000017F35855882855783A3A3A3E0A3E0047C
:10913000FD12916A7F00228E628F638C648D65AF11
:10914000031BEF60240563E563AE627002056214E1
:10915000F5828E83E0FF0565E565AC647002056409
:1091600014F5828C83EFF080D6228D5DAB07AA06C2
:1091700075614075600D755F03755E00907FC2E09C
:1091800020E1F9AF61AE60AD5FAC5EEC4D4E4F706B
:1091900008907FC27402F080D7907FC2E020E11671
:1091A000AF03AE027C7B7D80AB5D129137907FC3B5
:1091B000E55DF07F01227F0022900184740BF0A313
:1091C000E533F0900AF5E493900186F0900AF6E416
:1091D00093900187F0E490017CF0A3F0A3F0A3F05A
:1091E000A3F0A37410F0A37401F0A37488F07E01BF
:1091F0007F7C1219C17E017F847D1412916A7F00E9
:10920000227E7B7F40754E7B754F40907FD3E0FF81
:10921000854E51854F52E5522401F556E43551F5FE
:1092200055E4F550855282855183E0FE14B40C005C
:10923000505B909239F828287302925D02925D0289
:109240009267029271029271029271029285029269
:109250005D02927B02925D02928D02925DEF64024A
:10926000602B7550FF8026EF640E60217550FF80E3
:109270001CEF640360177550FF8012EF6403600DEC
:109280007550FF8008EF640660037550FFE550607D
:10929000159001987411F0A3EEF07E017F987D0285
:1092A00012916AAF5022E4F550855282855183E0D5
:1092B00014B40F0040030293CF9092C0F828287393
:1092C0000292ED0292F902930502935302935E0219
:1092D000936902937402937F02938A029395029397
:1092E000A00293A70293CF0293B20293BDAF56AEF2
:1092F000551284418F500293D2AF56AE55128561FC
:109300008F500293D2855553855654E5542401FF5E
:10931000E43553FE1286BEAF54AE531287518F50C0
:10932000EF640160030293D2AF54AE531287A68F4D
:1093300050E55070030293D2855482855383E075C3
:10934000F00DA424F4F582E43402AF82FE1287A665
:109350000293D2AF56AE55128CA68F508074AF5682
:10936000AE55128D278F508069AF56AE55128D7055
:109370008F50805EAF4FAE4E128E998F508053AF9C
:1093800056AE55128BBD8F508048AF56AE551286E3
:109390002D8F50803DAF56AE55128C628F5080326B
:1093A0001291B98F50802BAF56AE55128DB58F509C
:1093B0008020AF56AE55128DD68F508015AF4FAE70
:1093C0004E7C027DAF7B40129137E4F550800375EF
:1093D00050FFE550601D9001987411F08552828510
:1093E0005183E0900199F07E017F987D0212916A8D
:1093F000AF5022855282855183E0FF1424FA500435
:1094000024FE701F9001987410F0A3EFF08556822F
:10941000855583E090019AF07E017F987D0312913B
:109420006A8F50AF50228F518E508D4F8C4E755891
:109430000175599CE4F557AF531553EF700302942F
:10944000C4AF52E4FCFDFEF8F9FAAB07AF51AE50E1
:10945000AD4FAC4E12A321AF038F56AF51AE50ADFE
:109460004FAC4EC004C005C006C007AF52E4FCFDBF
:10947000FEF8F9FAAB07D007D006D005D00412A346
:10948000218F518E508D4F8C4EE5562430F556D39A
:109490009439400674072556F5560559E559AE58D6
:1094A0007002055814F5828E83E4F00559E559AE33
:1094B000587002055814F5828E83E556F00557055D
:1094C00057029437E559155970021558AF5715577B
:1094D000EF6023E5591559AE5870021558F5828E84
:1094E00083E0FF0555E555AC547002055414F58230
:1094F0008C83EFF080D622E49001C9F07E017FCA10
:109500009001BEEEF0A3EFF09001C2EEF0A3EFF0F9
:1095100022AA07A9059001C9E0C394405061AC029A
:1095200074017E00A804088005C333CE33CED8F979
:10953000FFE4EF55346045EA04FF9001C2E0FCA36C
:10954000E0FDF5828C83EFF0A3E9F08D828C83A39C
:10955000A3EBF09001C2E475F00312A281FCD3E505
:10956000F09487EC9402400A9001C27401F0A37455
:10957000CAF0C2AF9001C9E004F0D2AF7F01227FF0
:1095800000229001C9E0D3940040559001BEE0FC58
:10959000A3E0AA04F97B01C003C002C001AA06A986
:1095A00007A801AC02AD03D001D002D0037E007F3A
:1095B0000312A2129001BEE475F00312A281FCD343
:1095C000E5F09487EC9402400A9001BE7401F0A388
:1095D00074CAF0C2AF9001C9E014F0D2AF7F01228B
:1095E0007F0022907FC2E020E1737E7B7F807553F5
:1095F0007B755480E5542401FFE43553A9077B01B2
:109600008B55F5568957FE129582EF6050AB55AADF
:1096100056A95712A23B14FF90000112A254B402A3
:1096200016C2AFEF75F008A42401F582E43420F5EA
:1096300083E04404F0D2AF74017E00A807088005DF
:10964000C333CE33CED8F9FFE4EF5534600F8554E1
:1096500082855383740DF0907FC37404F0221295B9
:10966000E3E4F54E743A254EF8E654F0F54F74C530
:10967000254EF582E43401F583E0654FFFC4540FB5
:10968000F550602274C5254EF582E43401F583E57A
:109690004FF0AF4E7D01E54F4550FB129511EF7035
:1096A000051295E380EC054EE54EC3940440B512D7
:1096B00095E3E53E6048E4F54EAF4E7401A8070817
:1096C0008002C333D8FCF54F553E6029E54E75F056
:1096D00008A42405F582E43420F583E030E616AFD3
:1096E0004E7D047B80129511EF70051295E380EF9B
:1096F000E54FF4523E054EE54EC3940440BB900343
:1097000000E060030297DF7419F0E533C394014071
:109710000D902078E0540F755100F55280097F02BA
:109720001211278E518F52C3E5516480948040DA24
:109730009001BCE06552F06037E4F54EAF4E740125
:10974000A807088002C333D8FCF54F9001BCE05550
:109750004F6014AF4E7D08E54F5552FB129511EF47
:1097600070051295E380EC054EE54EC3940440CCA1
:109770009001BCE552F0E4F54EC2AF7436254EF8C8
:10978000E6F54FE4F6D2AF534F1EE54F6011AF4EF2
:109790007D02AB4F129511EF70051295E380EF74C7
:1097A0002D254EF8E6F54F74FC254EF582E4340283
:1097B000F583E0654F6011AF4E7D04AB4F129511FC
:1097C000EF70051295E380EF74FC254EF582E434CA
:1097D00002F583E54FF0054EE54EC39404409A121E
:1097E00095E322787FE4F6D8FD75816702982A0216
:1097F00005ADE493A3F8E493A34003F68001F208D7
:10980000DFF48029E493A3F85407240CC8C333C4BD
:10981000540F4420C8834004F456800146F6DFE428
:10982000800B010204081020408090986FE47E01B4
:109830009360BCA3FF543F30E509541FFEE493A39B
:1098400060010ECF54C025E060A840B8E493A3FAAD
:10985000E493A3F8E493A3C8C582C8CAC583CAF039
:10986000A3C8C582C8CAC583CADFE9DEE780BE6077
:1098700024028A010204081020408081828488909A
:10988000A0C0C1C2C4C8D0E0E1E2E4E8F0F1F2F463
:10989000F8F9FAFCFDFEFF008B598A5A895B8D5C52
:1098A000E4F55DF55EAF5C155CEF6036AB59055BCA
:1098B000E55BAA5A7002055A14F912A23BFFE55D56
:1098C000E55E6F25E0FFE433FE74952FF582EE34FC
:1098D0009EF583E55DFFE493F55D7401936FF55E9E
:1098E00080C3AE5DAF5E22C0E0C083C082C0D075D1
:1098F000D018902060E0540FFE30E005902002E088
:10990000FFEE30E10590200AE0FFEE30E205902006
:1099100012E0FFEE30E30590201AE0FF9001C4E072
:10992000B51E04E4F080059001C4EEF0D0D0D082E2
:10993000D083D0E032A903EF75F008A42400F582AB
:10994000E43420AB82FAE55C455DF55EE960148A9B
:1099500083E5822404F582E43583F583E04DF0E469
:10996000FE8013EB2404F582E43AF583E0FFEDF486
:10997000FCEF5CF0AE5EEB2406F582E43AF583E0A2
:10998000555EFCB50603AF0522E55C5CFEE55D5C5B
:10999000FDE96016EE70047F0180027F00AE07EDE6
:1099A00070047F0180027F00AD07EE6003AF5C2290
:1099B000ED6003AF5D227F00227555027556B090B1
:1099C0000335740FF0855682855583A3E0FF90031D
:1099D00037F0855682855583E0900336F090033842
:1099E00074FFF0755703755839EF14B40B0040033A
:1099F000029E5D9099FAF8282873029A1B029ABA7F
:109A0000029BBF029BDE029BDE029C94029CCF0263
:109A10009CF4029DB2029DE2029E0EE4F54EE54EDC
:109A200075F008A42400F582E43420AF82F5538F4A
:109A300054E4FFE4FEEF6010748A2EF582E43402F1
:109A4000F583E0F4F54F800D748A2EF582E434023C
:109A5000F583E0F54FE5542407F582E43553F583AB
:109A6000E54FF0E0F550654F6038E4900338F0E5DD
:109A70004E04FD0558E558AA577002055714F582A3
:109A80008A83EDF00558E558AC577002055714F578
:109A9000828C83E54FF0855882855783E550F0022C
:109AA0009E630EBE248F0FEF64027087054EE54E55
:109AB00064046003029A1E029E63E4F54EAF4EE416
:109AC000FD12835A054EE54ED3940340F0900004F6
:109AD0007498F0A374E7F0E4F5507E207F0075538E
:109AE00020755400F54EAF4E7401A807088002C3DC
:109AF00033D8FCF54F9001C4F09001C0E4F0A3749A
:109B00000AF0855482855383A37402F09001C4E067
:109B1000B54F349001C0E07002A3E070EF900338BD
:109B2000F0E54E04FF0558E558AC57700205571490
:109B3000F5828C83EFF085588285578374FFF0E4BB
:109B40009001C4F07550FF9001C4E0FF6037E490CD
:109B50000338F0E54E04FE0558E558AC5770020591
:109B60005714F5828C83EEF00558E558AC57700217
:109B7000055714F5828C83EFF0855882855783E56D
:109B80004FF07550FFE550701674082554F554E4F5
:109B90003553F553054EE54E64046003029AE6E43E
:109BA000F54EAF4E7D0112835A054EE54ED3940318
:109BB00040F09000047413F0A37412F0029E6385C9
:109BC0005682855583E014FF7401A807088002C3FC
:109BD00033D8FC9002F7F09001C4F0029E6390012C
:109BE000C07403F0A374E8F0E4F5509002F7E0FFCE
:109BF0009001C4E0B507199001C0E07002A3E070C5
:109C0000EA900338F085588285578374FFF0F55049
:109C1000E5506003029E639001C0F0A37496F0903B
:109C200001C0E07002A3E070F6E533C39401400D7B
:109C3000902078E0540F755100F55280097F021290
:109C400011278E518F52C3E5516480948040DAE52C
:109C500052540FF5509002F7E0555070047F018088
:109C6000027F008F4F855682855583A3E0B4050C93
:109C7000E54F70047F0180027F008F4FE54F700336
:109C8000029E63E4900338F0855882855783E5503F
:109C9000F0029E63E4FFFD12835A7E207F0075531D
:109CA00020755400855482855383A3A3A3E0448088
:109CB000F08554828553837401F0A3E4F0855482C7
:109CC000855383A3A3A3E0547FF0D204029E63C212
:109CD000047E207F00755320755400E5542405F55B
:109CE00082E43553F583E030E6F1E4FF7D01128331
:109CF0005A029E63E4F550F54EAF4EE4FD12835ACE
:109D0000E54E75F008A42400F582E43420AF82F516
:109D1000538F54F583E5822404F582E43583F5837B
:109D2000E054FCF0AF4E7D017B01755C80755D40B9
:109D30001299358F50E5507011AF4E7D027B017541
:109D40005C10755D201299358F50E5507010AF4E44
:109D50007D01FB755C80755D401299358F50E55033
:109D60007010AF4E7D02FB755C10755D2012993549
:109D70008F50AF4E7D0112835AE5506026E4900368
:109D800038F0E54E04FF0558E558AC57700205570A
:109D900014F5828C83EFF0855882855783E550F067
:109DA000029E63054EE54ED394035003029CF902D4
:109DB0009E63E4900359F0A3F0A3F0A3F0A3F0A3F3
:109DC0007410F0A3749EF0A37485F07E037F591283
:109DD00081D9EF64087003029E63E4900338F002B7
:109DE0009E63E4900359F0A3F0A3F0A3F0A3F0A3C3
:109DF0007410F0A3E557F0A3E558F07E037F5912E5
:109E000019C1EF6408605CE4900338F08055E556B2
:109E10002402FFE43555FAA9077B017D10129898BA
:109E2000EF4E7032900359F0A3F0A3F0A3F0A3F02B
:109E3000A37410F0E5562402900360F0E4355590C9
:109E4000035FF07E037F591281D9EF64086014E448
:109E5000900338F0800DE4900338F08006900338CA
:109E60007401F09001C0E4F0A3740AF09001C0E026
:109E70007002A3E070F67E037F357D2412916AE4C0
:109E80009002AFF022FFFEFCF8F0E0C0800001037A
:109E9000070F1F3F7F0000C0C1C1810140C3010304
:109EA000C00280C241C60106C00780C7410500C587
:109EB000C1C4810440CC010CC00D80CD410F00CF46
:109EC000C1CE810E400A00CAC1CB810B40C9010935
:109ED000C00880C841D80118C01980D9411B00DBD7
:109EE000C1DA811A401E00DEC1DF811F40DD011D85
:109EF000C01C80DC411400D4C1D5811540D70117A6
:109F0000C01680D641D20112C01380D3411100D1B6
:109F1000C1D0811040F00130C03180F1413300F3F5
:109F2000C1F28132403600F6C1F7813740F5013584
:109F3000C03480F4413C00FCC1FD813D40FF013F45
:109F4000C03E80FE41FA013AC03B80FB413900F936
:109F5000C1F88138402800E8C1E9812940EB012B94
:109F6000C02A80EA41EE012EC02F80EF412D00ED86
:109F7000C1EC812C40E40124C02580E5412700E7A5
:109F8000C1E68126402200E2C1E3812340E10121B4
:109F9000C02080E041A00160C06180A1416300A3B6
:109FA000C1A28162406600A6C1A7816740A5016584
:109FB000C06480A4416C00ACC1AD816D40AF016F45
:109FC000C06E80AE41AA016AC06B80AB416900A936
:109FD000C1A88168407800B8C1B9817940BB017BD4
:109FE000C07A80BA41BE017EC07F80BF417D00BD86
:109FF000C1BC817C40B40174C07580B5417700B7A5
:10A00000C1B68176407200B2C1B3817340B10171B3
:10A01000C07080B041500090C19181514093015374
:10A02000C052809241960156C05780974155009585
:10A03000C1948154409C015CC05D809D415F009F44
:10A04000C19E815E405A009AC19B815B4099015933
:10A05000C058809841880148C0498089414B008B95
:10A06000C18A814A404E008EC18F814F408D014D83
:10A07000C04C808C41440084C185814540870147A4
:10A08000C046808641820142C043808341410081B5
:10A09000C180814040E4FF74F82FF582E43402F57A
:10A0A00083E0700302A138743A2FF8E620E503023A
:10A0B000A138EF75F008A42400F582E43420AD82C5
:10A0C000FCF583E5822405F582E43583F583E054CD
:10A0D0006064607063EF25E024EFF582E43402F5FC
:10A0E00083E475F00112A29785F082F583E08D82FA
:10A0F0008C83F074F82FF582E43402F583E014F0D9
:10A100007036EF25E024C7F582E4347FF583E4F070
:10A11000EF25E0FEC3740C9E75F040A42440F58248
:10A12000E5F0347BAD82FCEF25E024EFF582E434EA
:10A1300002F583ECF0A3EDF00FEF6404600302A0DE
:10A140009722E709F608DFFA8046E709F208DFFA06
:10A15000803E88828C83E709F0A3DFFA8032E3092E
:10A16000F608DFFA8078E309F208DFFA8070888267
:10A170008C83E309F0A3DFFA806489828A83E0A3F9
:10A18000F608DFFA805889828A83E0A3F208DFFAB2
:10A19000804C80D280FA80C680D4806980F280337F
:10A1A000801080A680EA809A80A880DA80E280CA47
:10A1B000803389828A83ECFAE493A3C8C582C8CC31
:10A1C000C583CCF0A3C8C582C8CCC583CCDFE9DE8B
:10A1D000E7800D89828A83E493A3F608DFF9ECFA1D
:10A1E000A9F0EDFB2289828A83ECFAE0A3C8C5823C
:10A1F000C8CCC583CCF0A3C8C582C8CCC583CCDF8E
:10A20000EADEE880DB89828A83E493A3F208DFF93F
:10A2100080CC88F0ED2402B4040050C2F582EB2417
:10A2200002B4040050B823234582F582EF4E60AE9D
:10A23000EF60010EE5822390A19273BB0106898233
:10A240008A83E0225002E722BBFE02E32289828A4F
:10A2500083E49322BB010CE58229F582E5833AF57C
:10A2600083E0225006E92582F8E622BBFE06E925B6
:10A2700082F8E222E58229F582E5833AF583E493C8
:10A2800022C5F0F8A3E028F0C5F0F8E58215827049
:10A29000021583E038F022A3F8E0C5F025F0F0E5E0
:10A2A00082158270021583E0C838F0E822BB0110E5
:10A2B000E58229F582E5833AF583E0F5F0A3E02213
:10A2C0005009E92582F886F008E622BBFE0AE92556
:10A2D00082F8E2F5F008E222E5832AF583E993F5B6
:10A2E000F0A3E9932275F008758200EF2FFFEE339B
:10A2F000FECD33CDCC33CCC58233C5829BED9AECF9
:10A3000099E58298400CF582EE9BFEED9AFDEC9962
:10A31000FC0FD5F0D6E4CEFBE4CDFAE4CCF9A8826C
:10A3200022B800C1B90059BA002DEC8BF084CFCE11
:10A33000CDFCE5F0CBF97818EF2FFFEE33FEED33CF
:10A34000FDEC33FCEB33FB10D703994004EB99FB96
:10A350000FD8E5E4F9FA227818EF2FFFEE33FEED7F
:10A3600033FDEC33FCC933C910D7059BE99A40078C
:10A37000EC9BFCE99AF90FD8E0E4C9FAE4CCFB22A3
:10A3800075F010EF2FFFEE33FEED33FDCC33CCC86C
:10A3900033C810D7079BEC9AE899400AED9BFDEC77
:10A3A0009AFCE899F80FD5F0DAE4CDFBE4CCFAE4B6
:10A3B000C8F922EB9FF5F0EA9E42F0E99D42F0E8F1
:10A3C0009C45F022E8600FECC313FCED13FDEE1387
:10A3D000FEEF13FFD8F122080808E6CF2FF618E6A3
:10A3E000CE3EF618E6CD3DF618E6CC3CF622ECF073
:10A3F000A3EDF0A3EEF0A3EFF022A8828583F0D0C6
:10A4000083D08212A41112A41112A41112A411E477
:10A4100073E493A3C583C5F0C583C8C582C8F0A300
:0BA42000C583C5F0C583C8C582C822F3
:00000001FF
