:0300000002098D65
:030033000208FBC5
:03004300020B00AD
:03004B000205AA01
:10010000907FA5E05410FFC4540F4450F50F13E442
:1001100033F511907FE9E0245EB407004003020349
:1001200078900128F82828730201BC0201BC020162
:100130009102013D02015302016F02019A907F007A
:10014000E511F0907FB57401F0907FB4E04402F0C7
:10015000020378907F92E0FFC4540F907F00F090EC
:100160007FB57401F0907FB4E04402F0020378128E
:100170000A895007E4907F00F08006907F00740F9A
:10018000F0907FB57401F0907FB4E04402F0020378
:1001900078907FEAE0F50F020378907F007407F013
:1001A000907FB57401F0907FB4E04402F07FE87E68
:1001B00003120D94D206120CCC020378907FEAE071
:1001C000752800F529A3E0FEE4EE4228907FEEE0DA
:1001D000752A00F52BA3E0FEE4EE422A907FE8E0CA
:1001E00064C060030202C9E52B452A70030203784C
:1001F000C3E52B9440E52A94005008852A2C852BD2
:100200002D8006752C00752D40907FE9E064A37069
:1002100034F530F531C3E531952DE530952C505C42
:10022000E5292531F582E5303528F583E0FF7400B6
:100230002531F582E4347FF583EFF00531E5317047
:1002400002053080D0E4F530F531C3E531952DE578
:1002500030952C501874002531F582E4347FF583F5
:1002600074CDF00531E5317002053080DDAF29AE87
:1002700028AD2D7A7F79007B00120BF4907FB5E5D5
:100280002DF0E52D2529F529E52C3528F528C3E5A0
:100290002B952DF52BE52A952CF52A907F92E0FFE2
:1002A000C4540F752E00F52FD39400E52E94005002
:1002B0000C907FB4E020E1030201E780F4907FB46A
:1002C000E020E2030201E780F4907FE8E064406010
:1002D00003020378E52B452A7003020378E4907F3C
:1002E000C5F0907F92E0FFC4540F752E00F52FD318
:1002F0009400E52E94005009907FC4E030E109801D
:10030000F7907FB4E020E3F9907FC5E0752C00F50D
:100310002D907FE9E064A37034F530F531C3E53109
:10032000952DE530952C503474C02531F582E43498
:100330007EF583E0FFE5292531F582E5303528F5A6
:1003400083EFF00531E5317002053080D0AF29AE82
:1003500028AD2D7A7E79C07BC0120C3FE52D252972
:10036000F529E52C3528F528C3E52B952DF52BE54A
:100370002A952CF52A0202D4C322907FE9E070036B
:100380000204521470030204CE24FE7003020542DC
:1003900024FB700302044C1470030204461470031F
:1003A00002043A1470030204402405600302059617
:1003B000120E4440030205A2907FEBE024FE60167B
:1003C000146040240270697411907FD4F07400901E
:1003D0007FD5F00205A2907FEAE0FF120B588B2533
:1003E0008A268927EA496011AE02EE907FD4F0AFE9
:1003F00001EF907FD5F00205A2907FB4E04401F0B8
:100400000205A2907FEAE0FF1208BA8B258A2689AE
:1004100027EA496011AE02EE907FD4F0AF01EF9071
:100420007FD5F00205A2907FB4E04401F00205A25E
:10043000907FB4E04401F00205A2120E1F0205A253
:10044000120E2D0205A2120AF70205A2120E1102C7
:1004500005A2120E4640030205A2907FE8E0247F29
:1004600060241460312402705BA200E433FF25E0B5
:10047000FFA202E4334F907F00F0E4A3F0907FB539
:100480007402F00205A2E4907F00F0A3F0907FB523
:100490007402F00205A2907FECE0F45480FFC45493
:1004A0000FFFE054072F25E024B4F582E4347FF5F4
:1004B00083E054FD907F00F0E4A3F0907FB57402D8
:1004C000F00205A2907FB4E04401F00205A2120EF2
:1004D0004840030205A2907FE8E024FE601D24024C
:1004E00060030205A2907FEAE0B40105C2000205A4
:1004F000A2907FB4E04401F00205A2907FEAE07090
:1005000038907FECE0F45480FFC4540FFFE05407B0
:100510002F25E024B4F582E4347FF583E4F0907F66
:10052000ECE05480FF131313541FFFE054072F9087
:100530007FD7F0E04420F08069907FB4E04401F080
:100540008060120E4A505B907FE8E024FE60182421
:1005500002704F907FEAE0B40104D2008044907FA3
:10056000B4E04401F0803B907FEAE07020907FECA3
:10057000E0F45480FFC4540FFFE054072F25E0241B
:10058000B4F582E4347FF5837401F08015907FB474
:10059000E04401F0800C1201005007907FB4E04469
:1005A00001F0907FB4E04402F022C0E0C083C0823A
:1005B000C085C084C086758600C0D0C000C001C0A0
:1005C00002C003C006C007907FA5E030E206750DAB
:1005D00006020676907FA5E020E10CE50D6402603E
:1005E00006750D07020676AF0DEF24FE6048146015
:1005F0002C24FE607724046003020676AB09AA0A65
:10060000A90BAF0C050C8F82758300120822907F16
:10061000A6F0E50C6508705E750D058059907FA603
:10062000E0AB09AA0AA90BAE0C8E827583001208F2
:100630004F750D028040E50824FEB50C07907FA59C
:10064000E04420F0E50814B50C0A907FA5E0444092
:10065000F0E4F50D907FA6E0AB09AA0AA90BAE0C59
:100660008E8275830012084F050C800A907FA5E0EA
:100670004440F0E4F50D5391DFD007D006D003D00D
:1006800002D001D000D0D0D086D084D085D082D006
:1006900083D0E0328C338D34907F95E044C0F0E419
:1006A000F535F536C3E5369534E53595335069EFC4
:1006B0002536F582E5353EF58374FFF0F46002C31C
:1006C00022EF2536F582E5353EF583E4F06002C37E
:1006D00022EF2536F582E5353EF58374AAF064AA4B
:1006E0006002C322EF2536F582E5353EF583745569
:1006F000F064556002C322AD36E5362FF582E5354C
:100700003EF583EDF0FCAC05ED6C6002C3220536CE
:10071000E53670020535808CE4F535F536C3E536EF
:100720009534E53595335027EF2536F582E5353E8E
:10073000F583E065366002C322EF2536F582E535A4
:100740003EF583E4F00536E5367002053580CED3FC
:1007500022C204D205C203C200C202C201120E3D6F
:10076000D2E843D820907FAB74FFF0907FA9F0903F
:100770007FAAF05391EF907F95E044C0F0907F9373
:100780007430F0120A19907FAFE04401F0907FAE10
:10079000E0440DF0D2AF120E3520014275240075F1
:1007A00023007522007521007F487E927D007C0029
:1007B000AB24AA23A922A821C31208A950DB200137
:1007C000D87A0079007800E5242401F524EA35235D
:1007D000F523E93522F522E83521F52180CA3001DB
:1007E0000512037AC20130041A120E405013120986
:1007F00000300007907FD6E030E7F3120D4A120E6A
:1008000042C2031208FF80D622BB010689828A8376
:10081000E0225002E722BBFE02E32289828A83E4BF
:100820009322BB010CE58229F582E5833AF583E04A
:10083000225006E92582F8E622BBFE06E92582F869
:10084000E222E58229F582E5833AF583E49322F8F2
:10085000BB010DE58229F582E5833AF583E8F022B4
:100860005006E92582C8F622BBFE05E92582C8F2BA
:1008700022BB0110E58229F582E5833AF583E0F594
:10088000F0A3E0225009E92582F886F008E622BBB1
:10089000FE0AE92582F8E2F5F008E222E5832AF56E
:1008A00083E993F5F0A3E99322EB9FF5F0EA9E42EA
:1008B000F0E99D42F0E89C45F0228F28E4F5297587
:1008C0002AFF752B11752C32AB2AAA2BA92C90006C
:1008D00001120822B4031DAF290529EFB528012212
:1008E0001208097E0029FFEE3AA907752AFFF52BA9
:1008F000892C80D47B007A0079002253D8EF3222F1
:09090000907FD6E04480F0807481
:10097D00438701000000000000000000000000227D
:10098D00787FE4F6D8FD7581390209D4020751E468
:10099D0093A3F8E493A34003F68001F208DFF480FB
:1009AD0029E493A3F85407240CC8C333C4540F444B
:1009BD0020C8834004F456800146F6DFE4800B0125
:1009CD0002040810204080900DECE47E019360BC81
:1009DD00A3FF543F30E509541FFEE493A360010EBD
:1009ED00CF54C025E060A840B8E493A3FAE493A3E4
:1009FD00F8E493A3C8C582C8CAC583CAF0A3C8C505
:100A0D0082C8CAC583CADFE9DEE780BEE4907F9C59
:100A1D00F07F0AFE120D94907F967489F0907F9C62
:100A2D0074CFF07FF47E01120D94907F96E054FE0A
:100A3D00F07F0A7E00120D947F057E00120D9490BA
:100A4D007F96E04402F0E0547FF07F057E00120DAA
:100A5D0094907F96E04440F07F057E00120D9490B7
:100A6D007F96E054BFF07F327E00120D94907F96FA
:100A7D00E04440F07F327E00120D9422753201E584
:100A8D0032601B7F01120DD77F007E0E7D007C0131
:100A9D00120694E433F53270057F0F120DD7E5324F
:100AAD00601B7F02120DD77F007E807D007C80123F
:100ABD000694E433F53270057F0F120DD7E53260E1
:100ACD001B7F03120DD77F007E207D407C5B1206BD
:100ADD0094E433F53270057F0F120DD7E5326005C2
:100AED00E4FF120DD7E53224FF22907FEAE0F510E6
:100AFD00D32232020D6400020DAB00020D2F000255
:100B0D000D7C00020DC100020AFF00020E4C000216
:100B1D000E4D00020E4E00020E4F00020E5000024E
:100B2D000E5100020E5200020E5300020E5400022E
:100B3D000E5500020E5600020E5700020E5800020E
:100B4D000E5900020E5A00020E5B00E4FE752AFFDC
:100B5D00752B11752C12AB2AAA2BA92C9000011202
:100B6D0008226402702DAD060EEDB507012290002E
:100B7D000212087185F028F5296228E5286229E519
:100B8D0029622829FDE5283AA905752AFFF52B8943
:100B9D002C80C37B007A00790022AB07AA06AC0536
:100BAD00E4FDE5116011EAFFAE050DEE2410F582AE
:100BBD00E4340FF583EFF0EBAE050D74102EF582D6
:100BCD00E4340FF583EBF0AF050D74102FF582E4CF
:100BDD00340FF583ECF0AF0F7A0F7B10120D107FF1
:100BED000A7E00120D94228E328F338D348A358B0E
:100BFD0036E4FDF537E5116012E532FFAE050DEE79
:100C0D002413F582E4340FF583EFF0E533AE050DD3
:100C1D0074132EF582E4340FF583E533F0AF0F7ABC
:100C2D000F7B13120D10AF0FAD34AB36AA35120C6E
:100C3D00F1228E328F338D348A358B36E4F537E5DC
:100C4D0037C3953450200533E533AE32700205328B
:100C5D0014FFE5362537F582E43535F583E0FD12D1
:100C6D000BA7053780D922A907E50D7025907FA523
:100C7D00E04480F0E925E04401907FA6F08D08AFB7
:100C8D0003A9077509018A0A890BE4F50C750D0393
:100C9D00D322C322A907E50D7023907FA5E04480E0
:100CAD00F0E925E0907FA6F08D08AF03A90775093F
:100CBD00018A0A890BE4F50C750D01D322C322902C
:100CCD007FD6E054FBF0E04408F0300604E0440227
:100CDD00F07FD07E07120D94907FD6E054F7F0E0B0
:100CED004404F022120C74E50D24FA601014600710
:100CFD00240770F37F0822E4F50D7F0722E4F50D3C
:100D0D007F0622120CA1E50D24FA60101460072451
:100D1D000770F37F0822E4F50D7F0722E4F50D7FC0
:100D2D000622C0E0C083C082907FC4E4F05391EFEF
:100D3D00907FAB7404F0D082D083D0E032907FD618
:100D4D00E030E712E04401F07F147E00120D949024
:100D5D007FD6E054FEF022C0E0C083C082D20153A2
:100D6D0091EF907FAB7401F0D082D083D0E032C090
:100D7D00E0C083C082D2035391EF907FAB7408F033
:100D8D00D082D083D0E0328E388F39E5391539AE27
:100D9D0038700215384E6005120E0080EE22C0E04C
:100DAD00C083C0825391EF907FAB7402F0D082D09C
:100DBD0083D0E032C0E0C083C0825391EF907FAB0F
:100DCD007410F0D082D083D0E032AE077F217D0148
:100DDD0074002EF582E4340FAB82FA120D102250FE
:100DED000F00C0F9A4B0999282F880988883C6A1AB
:100DFD00868E007400F58690FDA57C05A3E58245E1
:100E0D008370F922907F00E510F0907FB57401F0AA
:100E1D00D322907F00E50EF0907FB57401F0D322C0
:100E2D00907FEAE0F50ED322E4F50DD2E9D2AF22A0
:100E3D00D20022D322D322D322D322D322D32232C1
:0F0E4D00323232323232323232323232323232A8
:101100001201000100000040470510270100010204
:10111000000109022000010103A0000904000002EF
:10112000FF0000040705820240000007050202409C
:10113000000004030904260341006E0063006800F8
:101140006F007200200043006800690070007300A7
:101150002C00200049006E0063002E00280346008A
:10116000690072006D007700610072006500200068
:101170004600720061006D00650057006F0072004C
:101180006B0073002A0343006F006E006600690065
:101190006700750072006100740069006F006E00E6
:1011A000200053007400720069006E006700220383
:1011B00049006E0074006500720066006100630003
:1011C0006500200053007400720069006E00670023
:0211D00000001D
:00000001FF
