:03000000020026D5
:100003008E568F57E5571557AE56700215564E60EC
:0700130005120FA280EE228E
:04001A0053D8EF3296
:0300230002004692
:0C002600787FE4F6D8FD75815A020A3399
:0300330002001AAE
:03004300020F00A9
:10004600C0E0C083C082C086758600C0D075D00867
:1000560030990E300B07A20E929B853699C299D223
:10006600122012030202F9C2123003197E7E7F406B
:10007600751A7E751B407517007E7D7FC075187DCD
:100086007519C080177E7D7FC0751A7D751BC0757A
:1000960017017E7E7F4075187E751940200B03027E
:1000A6000184E53AC39553503C200C342009319025
:1000B6007F9BE055387029301012AF3A053AE51BA0
:1000C6002FF582E4351AF583E013920EAF3A053A1E
:1000D600E51B2FF582E4351AF583E0F5360202F7C3
:1000E600C20B0202F7300311907FC7E4F0A3E0547D
:1000F60002F51DA3E0F51C8011907FC9E4F0907F06
:10010600C6E05402F51DA3E0F51CE51724FF920393
:10011600300D0DC20D907FBB7401F0C20B0202F7C9
:10012600E51D6005C20B0202F7851C538519828501
:100136001883E013920D7512FF200C3A20093790B0
:100146007F9BE05538702F30101C851982851883E7
:10015600A3E013920E851982851883A3A3E0F536D2
:10016600753A030202F7753A02851982851883A348
:10017600E0F5360202F7753A01C20B0202F73003C8
:100186000E907FC6E05402F51DA3E0F51C800C908E
:100196007FC8E05402F51DA3E0F51CE53AC395536C
:1001A6005003020268E51D6007C214C2050202F789
:1001B600851C53851B82851A83E013920D7512FFE9
:1001C600300C03020260300903020260907F9BE05C
:1001D6005538600302026030101B851B82851A8326
:1001E600A3E013929B851B82851A83A3A3E0F5994E
:1001F600753A03800D851B82851A83A3E0F59975F0
:100206003A02E53AC395534026300307907FC7E488
:10021600F08005907FC9E4F0E51724FF9203200DD6
:10022600030202F7C20D907FBB7401F00202F730A1
:100236001012AF3A053AE51B2FF582E4351AF5831D
:10024600E013920EAF3A053AE51B2FF582E4351A14
:10025600F583E0F536D20B0202F7753A01C21402B5
:1002660002F7300C030202F53009030202F5907F13
:100276009BE055387079301012AF3A053AE51B2FDE
:10028600F582E4351AF583E013929BAF3A053AE519
:100296001B2FF582E4351AF583E0F599E53AC39507
:1002A600534022300307907FC7E4F08005907FC952
:1002B600E4F0E51724FF9203300D36C20D907FBBA4
:1002C6007401F0802C301012AF3A053AE51B2FF579
:1002D60082E4351AF583E013920EAF3A053AE51B30
:1002E6002FF582E4351AF583E0F536D20B8002C28B
:1002F60014D201209803020435C298200203020397
:10030600A2201527AF39053974802FF582E4347E93
:10031600F583E599F030104DAF39053974802FF526
:1003260082E4347EF583E598F0803A859955E55563
:10033600B54704D209802EE555B54604C209802585
:10034600AF39053974802FF582E4347EF583E5559F
:10035600F0301011AF39053974802FF582E4347E00
:10036600F583E598F0D20FE539C3954350030204AF
:1003760033907FB8E030E116E539C394405003026C
:10038600043315391539052B433401020433907FA4
:10039600B7E539F0753900C202020433201527AFDC
:1003A60039053974002FF582E4347EF583E599F03A
:1003B60030104DAF39053974002FF582E4347EF5DF
:1003C60083E598F0803A859955E555B54704D209F5
:1003D600802EE555B54604C2098025AF3905397426
:1003E600002FF582E4347EF583E555F0301011AF29
:1003F60039053974002FF582E4347EF583E598F0EB
:10040600D20FE539C395434024907FB6E030E11220
:10041600E539C39440401615391539052B43340187
:10042600800B907FB9E539F0753900D202D20130E0
:100436000105C201020056D0D0D086D082D083D02A
:10044600E032907FBCE020E154E5346050E5317045
:100456004CE53430E10BE4F52F753401753102803B
:100466000EA208E433F52FC208E4F534753110E422
:10047600F5567E007B0074242556F9EE3400FA12F8
:100486000C79FF74002556F582E4347DF583EFF090
:100496000556E556B40CDB907FBD740CF0907FCA10
:1004A600E030E1030205D1E4F55674402556F582A5
:1004B600E4347DF583E0FFE5567C007B00243BF9C0
:1004C600EC3400FAEF120C920556E556B418DBE54B
:1004D6003B601175C92075C836853CCA853DCBE49D
:1004E600907F9FF0E53E139210929F853F38E5403E
:1004F600139215E5416009907F98E054FBF0800760
:10050600907F98E04404F0E5426009907F98E054BB
:100516007FF08007907F98E04480F0E548600BC24A
:100526000CC209907F95E04402F0E549600CD209BF
:10053600433401907F95E04402F0E54A600DC2AF76
:10054600C20BD200E4F553F53AD2AFE54B60053065
:100556001502D209E54C6015907F95E054FDF090A8
:100566007F9EE04402F0907F98E054FDF0E54D60F8
:100576000AD29CC298752C0175311EE54E6007C2E1
:100586009CE4F539F52CE54F6003E4F539E5506058
:1005960002D207E551600AE54D7002F531E5514298
:1005A60034E552601F907FD77411F07431F07412E5
:1005B600F07432F07413F07433F07414F07434F091
:1005C600D203D202D208E4907FCBF0A20CE433FF30
:1005D600652960058F29433401A209E433FF652AA2
:1005E60060058F2A433401907F9BE0FF540864081E
:1005F600F55765256006855725433401EF54106489
:1006060010F55765266006855726433401EF54409A
:100616006440F55765276006855727433401EF5434
:10062600206420F5576528600685572843340190D5
:100636007F9AE054406440F557652E600685572E34
:10064600433401300735C2AF300218907FB8E0203E
:10065600E127E5396009907FB7F0E4F539C202C2B7
:10066600078016907FB6E020E10FE5396009907F9C
:10067600B9F0E4F539D202C207D2AF20053D300306
:100686001E907FC6E020E133907E40E013920D7508
:100696003A01907FC7E0F553D2057512FF801C9092
:1006A6007FC8E020E115907DC0E013920D753A01F8
:1006B600907FC9E0F553D2057512FF201433200050
:1006C60006E53A6553702A30051A300309E4907F2F
:1006D600C7F0C2038007E4907FC9F0D203C205E4E5
:1006E600F553F53A300D0AC20DC200907FBB740176
:1006F600F03014030207BF2005030207BF300C03C6
:100706000207BF3009030207BF907F9BE0553860A0
:10071600030207BF30030C7E7E7F4075587E7559F5
:1007260040800A7E7D7FC075587D7559C030101295
:10073600AF3A053AE5592FF582E43558F583E013CB
:10074600921AAF3A053AE5592FF582E43558F58302
:10075600E0F557E53AC39553502A301012AF3A05E3
:100766003AE5592FF582E43558F583E013920EAF3A
:100776003A053AE5592FF582E43558F583E0F53622
:10078600D20B8015C20B300309E4907FC7F0C20379
:100796008007E4907FC9F0D203301004A21A929B1E
:1007A600D214C2AF855799200B0D300D0AC20DC267
:1007B60000907FBB7401F0D2AF22907FE9E0120C6B
:1007C600A4091C0009890109E60307E306090D08C7
:1007D60009010908E90A08F80B00000A24907FEBD2
:1007E600E024FE601C1470030208792402600302F0
:1007F6000A24740D907FD4F07487907FD5F0020A96
:100806002B907FEAE0B401047F0280027F037582A9
:10081600D875830DEFF07582D175830DF07582CA98
:1008260075830DF07582C375830DF0907FEAE00441
:1008360075829E75830DF0907FEFE0FE907FEEE06F
:100846007C002400F55AEC3EF55975150D75169980
:1008560075829B75830DE0751300F514D3E5149529
:100866005AE51395594006855913855A14120BBA41
:10087600020A2B907FEAE0700B7556FF75570D75CF
:1008860058DC802D907FEAE0B4010B7556FF755752
:100896000D7558E0801B907FEAE0B4020B7556FF99
:1008A60075570D7558F080097556FF75570E7558B2
:1008B6001E907FEEE0755900F55AAE57AF588E156B
:1008C6008F168F828E83E0FEA3E08E13F514D395E8
:1008D6005AE51395594006855913855A14120BBAD1
:1008E600020A2B907F00E511F0907FB57401F002AB
:1008F6000A2B907FEAE0F511020A2B120C24907F56
:10090600EAE0F510020A2B907F00E510F0907FB523
:100916007401F0020A2B907FE8E0247F60271460C0
:100926003424026003020A24A216E433FF25E0FF02
:10093600A218E4334F907F00F0E4A3F0907FB574E3
:1009460002F0020A2BE4907F00F0A3F0907FB574CA
:1009560002F0020A2B907FECE0F45480FFC4540F9F
:10096600FFE054072F25E024B4F582E4347FF583B5
:10097600E054FD907F00F0E4A3F0907FB57402F0A0
:10098600020A2B907FE8E024FE601724026003022F
:100996000A2B907FEAE064016003020A24C2160271
:1009A6000A2B907FEAE07076907FECE0F45480FFAB
:1009B600C4540FFFE054072F25E024B4F582E43435
:1009C6007FF583E4F0907FECE05480FF131313541B
:1009D6001FFFE054072F907FD7F0E04420F08045BA
:1009E600907FE8E024FE601024027039907FEAE0F0
:1009F6006401702AD216802D907FEAE07020907FE5
:100A0600ECE0F45480FFC4540FFFE054072F25E0B8
:100A160024B4F582E4347FF5837401F08007907F77
:100A2600B4E04401F0907FB4E04402F022C210E446
:100A3600F510F534C209C20CC20BC214C20DC215A0
:100A4600C211C207C212C20FC208F535F539F553F5
:100A5600F53AF533F530F52FF52EF52DF52CF52B6A
:100A6600F52AF529F528F527F526F525F524C205F5
:100A7600C217C219C216C218C204D213C206C201D4
:100A8600907F92E054FDF0D2E843D820907FDE7448
:100A960001F0907FDFF0907FAB74FFF0907FA9F0BC
:100AA600907FAAF05391EF907FAFE04401F0907FE2
:100AB600AEE0440FF0907FAC740EF0D2AFD2BCD251
:100AC6001A120F7DC21730040312044830042A306C
:100AD6000627C206E51260161512907FD8E030E6AA
:100AE600047F0080027F20907F96EFF08006907F43
:100AF600967420F0120B1480CD301707C217120718
:100B0600C080C33019C0C219120EDC80B922E5318B
:100B160060021531E53960556535704BE533F46093
:100B2600020533E533C395444043C2AF30021B9000
:100B36007FB8E020E12D907FB7E539F0C202E4F5F9
:100B460039F533F5357512FF8019907FB6E020E14F
:100B560012907FB9E539F0D202E4F539F533F5356F
:100B66007512FFD2AF8006853935E4F533E52C6082
:100B760030200F07907F9BE030E00FE52D6006E404
:100B8600F52D433401E4F5308014E530D395455016
:100B96000DE530B54506752D014334010530C20F0C
:100BA60022907FD9E030E2047F0080027F20907F90
:100BB60096EFF022E51445136057AE13AF14D3EF4A
:100BC6009440EE940040047E007F40C3E5149FF5F8
:100BD60014E5139EF513E4FDEDC39FE49E501F85B7
:100BE6001682851583E0FC74002DF582E4347FF5CA
:100BF60083ECF00D0516E5167002051580DA907F78
:100C0600A97401F0907FACE04401F0907FB5EFF05D
:100C160022907FACE054FEF0E4907FB5F022E490A1
:100C26007F93F0907F9C7430F0907F967420F090C4
:100C36007F947401F0907F9D74FFF0907F97748687
:100C4600F0907F957403F0907F9E7484F0907F9867
:100C5600F0E4907FC7F0907FC9F0907FCBF0759855
:100C66004043A810907FDE741FF0907FDF740FF072
:100C7600D20422BB010689828A83E0225002E7223F
:100C8600BBFE02E32289828A83E49322BB010689A2
:100C9600828A83F0225002F722BBFE01F322D08320
:100CA600D082F8E4937012740193700DA3A393F8A5
:100CB600740193F5828883E4737402936860EFA3EA
:100CC600A3A380DFE4907F95F0907F94F0907F93CC
:100CD600F0907F9DE04402F0907F97E04442F090D0
:100CE6007F9C7410F0E4907F96F0907F9D74BEF028
:100CF6003016047F8080027F00907F97EFF0E490AB
:100D06007F95F0907F9EF0907F98F022C0E0C0F033
:100D1600C083C082C085C084C086758600C0D07579
:100D2600D0085391EF907FA97401F0120BBAD0D07E
:100D3600D086D084D085D082D083D0F0D0E032C0A7
:100D4600E0C083C082C085C084C086758600907F5F
:100D5600C4E4F05391EF907FAB7404F0D086D08456
:100D6600D085D082D083D0E03200000000000000A1
:100D7600000000000000000000000000000000006D
:100D86000012011001FFFFFF40CD061C010100010A
:100D9600020002090243000101008032090400003A
:100DA60007FF0000000705010240000007050202D8
:100DB60040000007050302400000070581024000CD
:100DC6000107058202400001070583024000010772
:100DD6000584024000010403090410034B0065006A
:100DE60079007300700061006E002E034B006500F1
:100DF60079007300700061006E00200055005000FD
:100E0600530048003100310032002D0053006500C8
:100E16007200690061006C00220355005300410016
:100E26002D00350033002000320030003000320043
:100E3600610070007200320036000000C0E0C0831E
:100E4600C082C085C084C0867586005391EF907FAE
:100E5600AB7402F0D206D086D084D085D082D083FF
:100E6600D0E032C0E0C083C082C085C084C0867531
:100E76008600D2175391EF907FAB7401F0D086D0E5
:100E860084D085D082D083D0E032C0E0C083C082D7
:100E9600C085C084C086758600D2195391EF907FB5
:100EA600AB7408F0D086D084D085D082D083D0E0D1
:100EB60032C0E0C083C082C085C084C0867586000B
:100EC6005391EF907FA97402F0D086D084D085D05C
:100ED60082D083D0E032120CCA120FB3907FD6E0D4
:100EE60030E712E04401F07F0D7E00120003907F90
:100EF600D6E054FEF0120C242200020E6900020E07
:100F06004200020D4500020E9000020F1000020F73
:100F16001400020D1200020F1C00020EB700020F91
:100F26002400020F3300020F2C00020F58C0E0C04D
:100F360083C082C085C084C0867586005391EF90B9
:100F46007FA97404F0D086D084D085D082D083D097
:100F5600E032C0E0C083C082C085C084C08675868A
:100F6600005391EF907FA97408F0D086D084D08585
:100F7600D082D083D0E032907FD6E054FBF0E044BC
:100F860008F0301A04E04402F07FF47E01120003F8
:100F9600907FD6E054F7F0E04404F0227400F58622
:100FA60090FDA57C05A3E582458370F922907FD646
:0D0FB600E04480F0438701000000000022AD
:00000001FF
