:03000000020026D5
:100003008E118F12E5121512AE11700215114E608A
:0700130005120F8480EE22AC
:04001A0053D8EF3296
:0300230002004692
:0C002600787FE4F6D8FD758154020B28A9
:0300330002001AAE
:03004300020E00AA
:10004600C0E0C083C082C086758600C0D075D00867
:1000560030990E300B07A20E929B853699C299D223
:100066001220120302041EC21220030302024E20B3
:100076000B03020126E53AC39553503C200C34206D
:100086000931907F9BE055387029301012AF3A0540
:100096003A74402FF582E4347EF583E013920EAF76
:1000A6003A053A74402FF582E4347EF583E0F5365E
:1000B60002041CC20B02041C907FC7E4F0C203308A
:1000C6000D0CC20D907FBB04F0C20B02041C907F86
:1000D600C8E030E105C20B02041C907FC9E0F5536D
:1000E600907DC0E013920D7516FF200C2B20092879
:1000F600907F9BE055387020301011907DC1E01341
:10010600920EA3E0F536753A0302041C753A029086
:100116007DC1E0F53602041C753A01C20B02041CCF
:10012600E53AC3955350030201C9907FC6E030E11A
:1001360007C214C20502041C907FC7E0F553907EE7
:1001460040E013920D7516FF200C7020096D907F0C
:100156009BE055387065301010907E41E013929BFD
:10016600A3E0F599753A038009907E41E0F599750B
:100176003A02E53AC395534017907FC7E4F0C203AD
:10018600200D0302041CC20D907FBB04F002041C68
:10019600301012AF3A053A74402FF582E4347EF5FA
:1001A60083E013920EAF3A053A74402FF582E43499
:1001B6007EF583E0F536D20B02041C753A01C214B3
:1001C60002041C300C03020249200977907F9BE051
:1001D6005538706F301012AF3A053A74402FF582D9
:1001E600E4347EF583E013929BAF3A053A74402FD0
:1001F600F582E4347EF583E0F599E53AC3955340FC
:1002060017907FC7E4F0C203200D0302041CC20D41
:10021600907FBB04F002041C301012AF3A053A740A
:10022600402FF582E4347EF583E013920EAF3A0553
:100236003A74402FF582E4347EF583E0F536D20B2E
:1002460002041CC21402041C200B030202FFE53A3E
:10025600C39553503C200C34200931907F9BE055C8
:10026600387029301012AF3A053A74C02FF582E47F
:10027600347DF583E013920EAF3A053A74C02FF53C
:1002860082E4347DF583E0F53602041CC20B0204D9
:100296001C907FC9E4F0D203300D0CC20D907FBBD9
:1002A60004F0C20B02041C907FC6E030E105C20BCD
:1002B60002041C907FC7E0F553907E40E013920D38
:1002C6007516FF200C2B200928907F9BE05538706F
:1002D60020301011907E41E013920EA3E0F53675A2
:1002E6003A0302041C753A02907E41E0F536020498
:1002F6001C753A01C20B02041CE53AC39553500320
:100306000203A2907FC8E030E107C214C2050204CE
:100316001C907FC9E0F553907DC0E013920D7516D1
:10032600FF200C7020096D907F9BE055387065307A
:100336001010907DC1E013929BA3E0F599753A03E6
:100346008009907DC1E0F599753A02E53AC3955367
:100356004017907FC9E4F0D203200D0302041CC2AB
:100366000D907FBB04F002041C301012AF3A053A20
:1003760074C02FF582E4347DF583E013920EAF3A14
:10038600053A74C02FF582E4347DF583E0F536D264
:100396000B02041C753A01C21402041C200C7520C1
:1003A6000972907F9BE05538706A301012AF3A059B
:1003B6003A74C02FF582E4347DF583E013929BAF47
:1003C6003A053A74C02FF582E4347DF583E0F59959
:1003D600E53AC395534013907FC9E4F0D203300D3C
:1003E60035C20D907FBB04F0802C301012AF3A0559
:1003F6003A74C02FF582E4347DF583E013920EAF94
:100406003A053A74C02FF582E4347DF583E0F5367B
:10041600D20B8002C214D20120980302055AC29858
:100426002002030204C7201627AF39053974802F2E
:10043600F582E4347EF583E599F030104DAF390549
:100446003974802FF582E4347EF583E598F0803A9E
:10045600859910E510B54704D209802EE510B546FA
:1004660004C2098025AF39053974802FF582E4343A
:100476007EF583E510F0301011AF39053974802F01
:10048600F582E4347EF583E598F0D20FE539C3951D
:10049600435003020558907FB8E030E116E539C3B2
:1004A6009440500302055815391539052B4334017C
:1004B600020558907FB7E539F0753900C20202058A
:1004C60058201627AF39053974002FF582E4347E9B
:1004D600F583E599F030104DAF39053974002FF5E5
:1004E60082E4347EF583E598F0803A859910E5102C
:1004F600B54704D209802EE510B54604C209802509
:10050600AF39053974002FF582E4347EF583E510A2
:10051600F0301011AF39053974002FF582E4347EBE
:10052600F583E598F0D20FE539C395434024907FD3
:10053600B6E030E112E539C3944040161539153955
:10054600052B433401800B907FB9E539F0753900EE
:10055600D202D201300105C201020056D0D0D086A7
:10056600D082D083D0E032907FBCE020E151E534E8
:10057600604DE5317049E53430E108E4F52F753416
:1005860001800BA208E433F52FC208E4F534E4F544
:10059600117E007B0074242511F9EE3400FA120D49
:1005A60006FF74002511F582E4347DF583EFF0052E
:1005B60011E511B40CDB907FBD740CF07531109011
:1005C6007FCAE030E1030206F3E4F5117440251119
:1005D600F582E4347DF583E0FFE5117C007B0024A1
:1005E6003BF9EC3400FAEF120D1F0511E511B418B2
:1005F600DBE53B601175C92075C836853CCA853D6B
:10060600CBE4907F9FF0E53E139210929F853F3892
:10061600E540139216E5416009907F98E054FBF09F
:100626008007907F98E04404F0E5426009907F9847
:10063600E0547FF08007907F98E04480F0E54860C2
:100646000BC20CC209907F95E04402F0E549600CAC
:10065600D209433401907F95E04402F0E54A600DEB
:10066600C2AFC20BD200E4F553F53AD2AFE54B6008
:1006760005301602D209E54C6015907F95E054FDD1
:10068600F0907F9EE04402F0907F98E054FDF0E504
:100696004D600AD29CC298752C0175311EE54E60DC
:1006A60007C29CE4F539F52CE54F6003E4F539E51E
:1006B600506002D207E551600AE54D7002F531E55A
:1006C600514234E552601F907FD77411F07431F0B7
:1006D6007412F07432F07413F07433F07414F0740E
:1006E60034F0D203D202D208E4907FCBF0A20CE41D
:1006F60033FF652960058F29433401A209E433FFDE
:10070600652A60058F2A433401907F9BE0FF5408D9
:100716006408FE652560058E25433401EF54106498
:1007260010FE652660058E26433401EF5440644072
:10073600FE652760058E27433401EF54206420FEB2
:10074600652860058E28433401907F9AE054406402
:1007560040FE652E60058E2E433401300735C2AF4C
:10076600300218907FB8E020E127E5396009907FD4
:10077600B7F0E4F539C202C2078016907FB6E020D2
:10078600E10FE5396009907FB9F0E4F539D202C28C
:1007960007D2AF20053D30031E907FC6E020E1332F
:1007A600907E40E013920D753A01907FC7E0F553B5
:1007B600D2057516FF801C907FC8E020E115907D5C
:1007C600C0E013920D753A01907FC9E0F553D2054A
:1007D6007516FF201433200006E53A6553702A305B
:1007E600051A300309E4907FC7F0C2038007E4903E
:1007F6007FC9F0D203C205E4F553F53A300D0AC2BB
:100806000DC200907FBB7401F0301403020914205E
:100816000503020914300C03020914300903020906
:1008260014907F9BE0553860030209143003613051
:100836001012AF3A053A74402FF582E4347EF58300
:10084600E013921BAF3A053A74402FF582E4347EEA
:10085600F583E0FEE53AC39553502A301012AF3ABD
:10086600053A74402FF582E4347EF583E013920E48
:10087600AF3A053A74402FF582E4347EF583E0F50D
:1008860036D20B806AC20BE4907FC7F0C203805F4A
:10089600301012AF3A053A74C02FF582E4347DF574
:1008A60083E013921BAF3A053A74C02FF582E43405
:1008B6007DF583E0FEE53AC39553502A301012AF1A
:1008C6003A053A74C02FF582E4347DF583E013923D
:1008D6000EAF3A053A74C02FF582E4347DF583E015
:1008E600F536D20B8009C20BE4907FC9F0D20330F3
:1008F6001004A21B929BD214C2AF8E99200B0D300E
:100906000D0AC20DC200907FBB7401F0D2AF2290D7
:100916007FE9E0120D310A11000A7E010ADB0309A4
:1009260038060A020809F60909DE0A09ED0B000075
:100936000B19907FEBE024FE601914605A240260C4
:1009460003020B19740D907FD4F07487907FD5F055
:10095600020B20907FEAE070047F0280027F03751D
:1009660082D875830DEFF07582D175830DF075828F
:10097600CA75830DF07582C375830DF0907FEAE02A
:100986000475829E75830DF0740D907FD4F0749972
:10099600907FD5F0020B20907FEAE0700B7511FF77
:1009A60075120D7513DC801B907FEAE0B4010B75A0
:1009B60011FF75120D7513E080097511FF75120D83
:1009C6007513F0AA12A913AE02EE907FD4F0AF0110
:1009D600EF907FD5F0020B20907F00E515F0907F19
:1009E600B57401F0020B20907FEAE0F515020B20AA
:1009F600120CB1907FEAE0F514020B20907F00E51F
:100A060014F0907FB57401F0020B20907FE8E0248B
:100A16007F602714603424026003020B19A217E4D6
:100A260033FF25E0FFA219E4334F907F00F0E4A3E3
:100A3600F0907FB57402F0020B20E4907F00F0A3E3
:100A4600F0907FB57402F0020B20907FECE0F45436
:100A560080FFC4540FFFE054072F25E024B4F5822D
:100A6600E4347FF583E054FD907F00F0E4A3F0903A
:100A76007FB57402F0020B20907FE8E024FE601739
:100A860024026003020B20907FEAE0640160030207
:100A96000B19C217020B20907FEAE07076907FEC6C
:100AA600E0F45480FFC4540FFFE054072F25E024E0
:100AB600B4F582E4347FF583E4F0907FECE0548073
:100AC600FF131313541FFFE054072F907FD7F0E056
:100AD6004420F08045907FE8E024FE6010240270F8
:100AE60039907FEAE06401702AD217802D907FEA60
:100AF600E07020907FECE0F45480FFC4540FFFE0D8
:100B060054072F25E024B4F582E4347FF58374017D
:100B1600F08007907FB4E04401F0907FB4E0440297
:100B2600F022C210E4F514F534C209C20CC20BC29D
:100B360014C20DC216C211C207C212C20FC208F5F4
:100B460035F539F553F53AF533F530F52FF52EF53C
:100B56002DF52CF52BF52AF529F528F527F526F59B
:100B660025F524C205C218C21AC217C219C215C277
:100B760004D213C206C201907F92E054FDF0D2E87F
:100B860043D820907FDE7401F0907FDFF0907FAB3A
:100B960074FFF0907FA9F0907FAAF05391EF907FB9
:100BA600AFE04401F0907FAEE0440FF0907FAC746C
:100BB6000EF0D2AFD2BCD21B120F5FC218300403A4
:100BC60012056D30042A300627C206E51660161592
:100BD60016907FD8E030E6047F0080027F20907F69
:100BE60096EFF08006907F967420F0120C0B80CD65
:100BF600301807C21812091580C3301AC0C21A125B
:100C06000FBB80B922E53160021531E539605565C3
:100C160035704BE533F460020533E533C395444044
:100C260043C2AF30021B907FB8E020E12D907FB722
:100C3600E539F0C202E4F539F533F5357516FF806E
:100C460019907FB6E020E112907FB9E539F0D20223
:100C5600E4F539F533F5357516FFD2AF80068539DB
:100C660035E4F533E52C6030200F07907F9BE030AC
:100C7600E00FE52D6006E4F52D433401E4F5308000
:100C860014E530D39545500DE530B54506752D0173
:100C96004334010530C20F22907FD9E030E2047F51
:100CA6000080027F20907F96EFF022E4907F93F001
:100CB600907F9C7430F0907F967420F0907F9474AF
:100CC60001F0907F9D74BFF0907F977486F0907FBF
:100CD600957403F0907F9E7484F0907F98F0E49072
:100CE6007FC7F0907FC9F0907FCBF075984043A8FE
:100CF60010907FDE741FF0907FDF740FF0D2042215
:100D0600BB010689828A83E0225002E722BBFE02EB
:100D1600E32289828A83E49322BB010689828A833D
:100D2600F0225002F722BBFE01F322D083D082F8D4
:100D3600E4937012740193700DA3A393F874019356
:100D4600F5828883E4737402936860EFA3A3A3809B
:100D5600DFC0E0C083C082C085C084C086758600BF
:100D6600907FC4E4F05391EF907FAB7404F0D0868B
:100D7600D084D085D082D083D0E03200000000003D
:100D86000012011001FF000040CD060C0101000118
:100D9600020002090243000101008032090400003A
:100DA60007FF0000000705010240000007050202D8
:100DB60040000007050302400000070581024000CD
:100DC6000107058202400001070583024000010772
:100DD6000584024000010403090410034B0065006A
:100DE60079007300700061006E000E035300650009
:100DF6007200690061006C000000020EA200020E83
:100E06007B00020D5700020EC900020E1000020EF2
:100E16001400020E1800020E1C00020EF000020E54
:100E26002400020F1500020E2C00020F3AE4907FF8
:100E360095F0907F94F0907F93F0907F9DE0440230
:100E4600F0907F97E04402F0907F9C7410F0E4905D
:100E56007F96F0907F9D74FEF03017047F808002AD
:100E66007F00907F97EFF0E4907F95F0907F9EF063
:100E7600907F98F022C0E0C083C082C085C084C045
:100E8600867586005391EF907FAB7402F0D206D040
:100E960086D084D085D082D083D0E032C0E0C083B3
:100EA600C082C085C084C086758600D2185391EF73
:100EB600907FAB7401F0D086D084D085D082D08369
:100EC600D0E032C0E0C083C082C085C084C08675D1
:100ED6008600D21A5391EF907FAB7408F0D086D07B
:100EE60084D085D082D083D0E032C0E0C083C08277
:100EF600C085C084C0867586005391EF907FA97423
:100F060002F0D086D084D085D082D083D0E032C0A3
:100F1600E0C083C082C085C084C0867586005391B8
:100F2600EF907FA97404F0D086D084D085D082D08B
:100F360083D0E032C0E0C083C082C085C084C08652
:100F46007586005391EF907FA97408F0D086D084FF
:100F5600D085D082D083D0E032907FD6E054FBF0AB
:100F6600E04408F0301B04E04402F07FF47E0112F6
:100F76000003907FD6E054F7F0E04404F0227400BA
:100F8600F58690FDA57C05A3E582458370F9229040
:100F96007FD6E04480F043870100000000002290E5
:100FA6007FD6E04401F07F0D7E00120003907FD6CD
:100FB600E054FEF022120E33120F95907FD6E030E9
:090FC600E703120FA5120CB12281
:00000001FF
