:03000000020C618E
:100003008E138F14E5141514AE13700215134E607E
:0700130005120F3680EE22FA
:04001A0053D8EF3296
:0300230002004692
:0A002600120DBF120F47120D6B22DE
:0300330002001AAE
:03004300020F00A9
:10004600C0E0C083C082C086758600C0D075D00867
:1000560030990E300807A20B929B853599C299D22A
:100066000F200F03020431C20F20020302025620A2
:100076000803020127E537C39550503E2009362074
:100086000633907F9BE030E303200E29300D12AF3C
:1000960037053774402FF582E4347EF583E01392FA
:1000A6000BAF37053774402FF582E4347EF583E0D5
:1000B600F53502042FC20802042F907FC7E4F0C270
:1000C60002300A0CC20A907FBB04F0C20802042F59
:1000D600907FC8E030E105C20802042F907FC9E096
:1000E600F550907DC0E013920A20092D20062A9033
:1000F6007F9BE030E303200E20300D11907DC1E0A0
:1001060013920BA3E0F53575370302042F753702FA
:10011600907DC1E0F53502042F753701C20802044F
:100126002FE537C3955050030201CF907FC6E030CC
:10013600E107C210C20302042F907FC7E0F550907A
:100146007E40E013920A3009030201C7200672209E
:10015600006F907F9BE030E303200E65300D10901A
:100166007E41E013929BA3E0F599753703800990D1
:100176007E41E0F599753702E537C39550401790F3
:100186007FC7E4F0C202200A0302042FC20A907F4E
:10019600BB04F002042F300D12AF37053774402F21
:1001A600F582E4347EF583E013920BAF370537749E
:1001B600402FF582E4347EF583E0F535D20802045B
:1001C6002F753701C21002042F3009030202512095
:1001D6000679907F9BE030E303200E6F300D12AF5F
:1001E60037053774402FF582E4347EF583E01392A9
:1001F6009BAF37053774402FF582E4347EF583E0F4
:10020600F599E537C395504017907FC7E4F0C202D1
:10021600200A0302042FC20A907FBB04F002042FB7
:10022600300D12AF37053774402FF582E4347EF572
:1002360083E013920BAF37053774402FF582E43411
:100246007EF583E0F535D20802042FC21002042F92
:10025600200803020308E537C39550503E200936AF
:10026600200633907F9BE030E303200E29300D12E9
:10027600AF37053774C02FF582E4347DF583E0137C
:10028600920BAF37053774C02FF582E4347DF583C2
:10029600E0F53502042FC20802042F907FC9E4F06E
:1002A600D202300A0CC20A907FBB04F0C2080204D4
:1002B6002F907FC6E030E105C20802042F907FC769
:1002C600E0F550907E40E013920A20092D20062A80
:1002D600907F9BE030E303200E20300D11907E418D
:1002E600E013920BA3E0F53575370302042F75373B
:1002F60002907E41E0F53502042F753701C20802EF
:10030600042FE537C3955050030203B0907FC8E031
:1003160030E107C210C20302042F907FC9E0F550F6
:10032600907DC0E013920A3009030203A8200672EA
:1003360020006F907F9BE030E303200E65300D10A8
:10034600907DC1E013929BA3E0F599753703800970
:10035600907DC1E0F599753702E537C39550401792
:10036600907FC9E4F0D202200A0302042FC20A9049
:100376007FBB04F002042F300D12AF37053774C06F
:100386002FF582E4347DF583E013920BAF37053702
:1003960074C02FF582E4347DF583E0F535D208028A
:1003A600042F753701C21002042F30090302042DF1
:1003B600200674907F9BE030E303200E6A300D1216
:1003C600AF37053774C02FF582E4347DF583E0132B
:1003D600929BAF37053774C02FF582E4347DF583E1
:1003E600E0F599E537C395504013907FC9E4F0D204
:1003F60002300A35C20A907FBB04F0802C300D1201
:10040600AF37053774C02FF582E4347DF583E013EA
:10041600920BAF37053774C02FF582E4347DF58330
:10042600E0F535D2088002C210D2122098030205E8
:100436006DC2982001030204DA201127AF36053673
:1004460074802FF582E4347EF583E599F0300D4D06
:10045600AF36053674802FF582E4347EF583E59851
:10046600F0803A859910E510B54404D206802EE551
:1004760010B54304C2068025AF36053674802FF5C5
:1004860082E4347EF583E510F0300D11AF36053683
:1004960074802FF582E4347EF583E598F0D20CE57E
:1004A60036C39540500302056B907FB8E030E116E5
:1004B600E536C39440500302056B15361536052BF9
:1004C60043330102056B907FB7E536F0753600C2FF
:1004D6000102056B201127AF36053674002FF58211
:1004E600E4347EF583E599F0300D4DAF360536746C
:1004F600002FF582E4347EF583E598F0803A8599FD
:1005060010E510B54404D206802EE510B54304C2AA
:10051600068025AF36053674002FF582E4347EF565
:1005260083E510F0300D11AF36053674002FF582D5
:10053600E4347EF583E598F0D20CE536C395404069
:1005460024907FB6E030E112E536C394404016159C
:10055600361536052B433301800B907FB9E536F00F
:10056600753600D201D212301205C212020056D0E0
:10057600D0D086D082D083D0E032907FCAE030E1FE
:10058600030206ABE4F51374402513F582E4347DCB
:10059600F583E0FFE5137C007B002438F9EC34009A
:1005A600FAEF120D330513E513B418DBE538600CCA
:1005B60075C92075C8348539CA853ACBE53B13928F
:1005C6000D929FE53C13920EE53D139211E53E60B8
:1005D60009907F98E054FBF08007907F98E04404F0
:1005E600F0E53F6009907F98E0547FF08007907FA8
:1005F60098E04480F0E545600BC209C206907F95FD
:10060600E04402F0E546600CD206433301907F9544
:10061600E04402F0E547600DC2AFC208D200E4F53F
:1006260050F537D2AFE5486005301102D206E549EC
:100636006015907F95E054FDF0907F9EE04402F0B7
:10064600907F98E054FDF0E54A600AD29CC2987506
:100656002C0175311EE54B6007C29CE4F536F52C7E
:10066600E54C6003E4F536E54D6002D204E54E60E4
:100676000AE54A7002F531E54E4233E54F601F90B8
:100686007FD77411F07431F07412F07432F0741371
:10069600F07433F07414F07434F0D202D201D2053F
:1006A600E4907FCBF0A209E433FF652960058F292A
:1006B600433301A206E433FF652A60058F2A4333DC
:1006C60001907F9BE05408B5250AE054086408F5BC
:1006D60025433301907F9BE05410B5260AE0541061
:1006E6006410F526433301907F9BE05440B5270AFA
:1006F600E054406440F527433301907F9BE054204B
:10070600B5280AE054206420F52843330130043527
:10071600C2AF300118907FB8E020E127E5366009C6
:10072600907FB7F0E4F536C201C2048016907FB61A
:10073600E020E10FE5366009907FB9F0E4F536D2A6
:1007460001C204D2AF20033730021B907FC6E020DF
:10075600E12D907E40E013920A753701907FC7E045
:10076600F550D2038019907FC8E020E112907DC039
:10077600E013920A753701907FC9E0F550D2032045
:100786001033200006E5376550702A30031A300210
:1007960009E4907FC7F0C2028007E4907FC9F0D2D7
:1007A60002C203E4F550F537300A0AC20AC20090C5
:1007B6007FBB7401F03010030208C5200303020852
:1007C600C5300E0A907F9BE030E3030208C5300671
:1007D600030208C53009030208C5300262300D1253
:1007E600AF37053774402FF582E4347EF583E01386
:1007F6009219AF37053774402FF582E4347EF583BE
:10080600E0F514E537C39550502A300D12AF370581
:100816003774402FF582E4347EF583E013920BAFF4
:1008260037053774402FF582E4347EF583E0F535DD
:10083600D208806BC208E4907FC7F0C202806030A5
:100846000D12AF37053774C02FF582E4347DF5837A
:10085600E0139219AF37053774C02FF582E4347D63
:10086600F583E0F514E537C39550502A300D12AFE5
:1008760037053774C02FF582E4347DF583E0139293
:100886000BAF37053774C02FF582E4347DF583E06E
:10089600F535D2088009C208E4907FC9F0D202304B
:1008A6000D04A219929BD210C2AF85149920080D8F
:1008B600300A0AC20AC200907FBB7401F0D2AF9020
:1008C6007FBCE020E151E533604DE5317049E53309
:1008D60030E108E4F52F753301800BA205E433F50A
:1008E6002FC205E4F533E4F5137E007B007424255E
:1008F60013F9EE3400FA120CEDFF74002513F5829D
:10090600E4347DF583EFF00513E513B40CDB907F3B
:10091600BD740CF075311022907FE9E0120D450A86
:1009260003000A77010AE30309410609F40809E806
:100936000909D00A09DF0B00000B32907FEBE02497
:10094600FE601614605724027076740F907FD4F000
:100956007464907FD5F0020B39907FEAE070047FD3
:100966000280027F037582B575830FEFF07582AE44
:1009760075830FF07582A775830FF07582A0758356
:100986000FF0907FEAE00475827B75830FF0740F99
:10099600907FD4F07476907FD5F0020B39907FEA81
:1009A600E0FF120E48EA49600DEA907FD4F0E99024
:1009B6007FD5F0020B39907FB4E04401F0020B3989
:1009C600907FB4E04401F0020B39907F00E519F006
:1009D600907FB57401F0020B39907FEAE0F51902B9
:1009E6000B39907FEAE0F518120D6B020B39907FF8
:1009F60000E518F0907FB57401F0020B39907FE89E
:100A0600E0247F60241460312402705BA213E43377
:100A1600FF25E0FFA217E4334F907F00F0E4A3F038
:100A2600907FB57402F0020B39E4907F00F0A3F0DA
:100A3600907FB57402F0020B39907FECE0F454809D
:100A4600FFC4540FFFE054072F25E024B4F582E4D9
:100A5600347FF583E054FD907F00F0E4A3F0907FAF
:100A6600B57402F0020B39907FB4E04401F0020B3A
:100A760039907FE8E024FE601D24026003020B39F2
:100A8600907FEAE0B40105C213020B39907FB4E00F
:100A96004401F0020B39907FEAE07038907FECE079
:100AA600F45480FFC4540FFFE054072F25E024B40C
:100AB600F582E4347FF583E4F0907FECE05480FF28
:100AC600131313541FFFE054072F907FD7F0E04411
:100AD60020F0805F907FB4E04401F08056907FE87C
:100AE600E024FE60182402704A907FEAE0B4010414
:100AF600D213803F907FB4E04401F08036907FEAC5
:100B0600E07020907FECE0F45480FFC4540FFFE0C7
:100B160054072F25E024B4F582E4347FF58374016D
:100B2600F08010907FB4E04401F08007907FB4E03D
:100B36004401F0907FB4E04402F022201503020B3A
:100B4600D3E53160021531E536604F65347045E511
:100B560032F460020532E532C39541403DC2AF3002
:100B66000118907FB8E020E127907FB7E536F0C204
:100B760001E4F536F532F5348016907FB6E020E1D3
:100B86000F907FB9E536F0D201E4F536F532F5344B
:100B9600D2AF8006853634E4F532E52C602F200C82
:100BA60007907F9BE030E00FE52D6006E4F52D43CE
:100BB6003301E4F5308014E530D39542500DE5302D
:100BC600B54206752D014333010530C20C2275125C
:100BD60001C214C218C213C217C215C212D216E439
:100BE600F518907F92E054FDF0907FAEE0FFD3922F
:100BF60013E433FEEF4EF0D2E843D820907FDE7444
:100C060001F0907FDFF0907FAB74FFF0907FA9F04A
:100C1600907FAAF05391EF907FAFE04401F0907F70
:100C2600AEE0440DF0D2AFD2BCD219120EDAC21425
:100C3600301503120580907FD8E065116008E0F555
:100C460011120B4180EA301407C21412091E80E00B
:100C56003018DDC21812002680D622787FE4F6D836
:100C6600FD758150020CA8020BD4E493A3F8E4931B
:100C7600A34003F68001F208DFF48029E493A3F889
:100C86005407240CC8C333C4540F4420C8834004FB
:100C9600F456800146F6DFE4800B010204081020BA
:100CA6004080900E04E47E019360BCA3FF543F3065
:100CB600E509541FFEE493A360010ECF54C025E05E
:100CC60060A840B8E493A3FAE493A3F8E493A3C816
:100CD600C582C8CAC583CAF0A3C8C582C8CAC583A7
:100CE600CADFE9DEE780BEBB010689828A83E0228D
:100CF6005002E722BBFE02E32289828A83E4932222
:100D0600BB010CE58229F582E5833AF583E02250A2
:100D160006E92582F8E622BBFE06E92582F8E222EC
:100D2600E58229F582E5833AF583E49322BB010641
:100D360089828A83F0225002F722BBFE01F322D079
:100D460083D082F8E4937012740193700DA3A39379
:100D5600F8740193F5828883E4737402936860EFF4
:100D6600A3A3A380DFE4907F93F0907F9C7430F080
:100D7600907F967410F0907F947401F0907F9D049C
:100D8600F0907F977420F0907F957403F0907F9E8B
:100D96007484F0E4907F98F0907FC7F0907FC9F05C
:100DA600907FCBF075984043A810907FDE741FF0BB
:100DB600907FDF740FF0D21522E4907F95F0907F3C
:100DC60094F0907F93F0907F9DE04402F0907F979F
:100DD600E04402F0907F9DE054FDF0907F9C7420EB
:100DE600F0E4907F96F0907F9DE044FDF0E4907FE4
:100DF60097F0907F9E74FFF0E4907F98F0220C2489
:100E060000000000000000000000000001300001AA
:100E16003301013200013700015000013600013470
:100E260000C105C10CC103C10FC104C10EC111C16E
:100E36000AC110C108C109C106C100C10DC181C1E5
:100E460082008F13E4F5147515FF75160F7517B923
:100E5600AB15AA16A917900001120D06B4031DAF13
:100E6600140514EFB5130122120CED7E0029FFEED6
:100E76003AA9077515FFF516891780D47B007A0005
:100E8600790022C0E0C083C082C085C084C0867558
:100E96008600907FC4E4F05391EF907FAB7404F02A
:100EA600D086D084D085D082D083D0E032C0E0C056
:100EB60083C082C085C084C086758600D2145391D3
:100EC600EF907FAB7401F0D086D084D085D082D0ED
:100ED60083D0E032907FD6E054FBF0E04408F03057
:100EE6001904E04402F07FF47E01120003907FD6DD
:100EF600E054F7F0E04404F02200020EB300020FC3
:100F06000400020E8900020F0FC0E0C083C082C039
:100F160085C084C086758600D2185391EF907FAB4A
:100F26007408F0D086D084D085D082D083D0E032C9
:100F36007400F58690FDA57C05A3E582458370F9CE
:100F460022907FD6E04480F0438701000000000035
:100F56002200000000000000000000000000120156
:100F66001001FF000040CD0607010100010200024A
:100F76000902430001010080320904000007FF0056
:100F860000000705010240000007050202400000BC
:100F9600070503024000000705810240000107051E
:100FA6008202400001070583024000010705840212
:100FB6004000010403090410034B00650079007327
:100FC60000700061006E000E035300650072006938
:070FD6000061006C00000047
:00000001FF
