:0300000002163DA8
:03000300020046B2
:100006008E128F13E5131513AE12700215124E6081
:07001600051218A480EE2280
:04001D0053D8EF3293
:0300230002004692
:0A0026001217DB1218B51214C322E2
:0300330002001DAB
:03003B000200467A
:03004300021B009D
:10004600C0E0C083C082C086758600C0D075D00867
:1000560030990E301107A217929B854699C299D204
:100066001F30C10E301207A21892C38547C1C2C104
:10007600D220201F03020442C21F2003030202678C
:10008600201103020138E54AC3957C503E20133601
:10009600200B33907F9BE020E303201C29301B12AA
:1000A600AE4A054A74402EF582E4347EF583E013A9
:1000B6009217AE4A054A74402EF582E4347EF583E3
:1000C600E0F546020440C211020440907FC7E4F006
:1000D600C20330150CC215907FBF04F0C211020492
:1000E60040907FC8E030E105C211020440907FC90C
:1000F600E0F57C907DC0E013921520132D200B2A8D
:10010600907F9BE020E303201C20301B11907DC1D3
:10011600E0139217A3E0F546754A03020440754AB8
:1001260002907DC1E0F546020440754A01C2110203
:100136000440E54AC3957C50030201E0907FC6E087
:1001460030E107C221C205020440907FC7E0F57C7A
:10015600907E40E01392153013030201D8200B72F3
:1001660020006F907F9BE020E303201C65301B106E
:10017600907E41E013929BA3E0F599754A038009AE
:10018600907E41E0F599754A02E54AC3957C401791
:10019600907FC7E4F0C203201503020440C2159005
:1001A6007FBF04F0020440301B12AE4A054A744079
:1001B6002EF582E4347EF583E0139217AE4A054AA3
:1001C60074402EF582E4347EF583E0F546D21102C2
:1001D6000440754A01C22102044030130302026240
:1001E600200B79907F9BE020E303201C6F301B12CD
:1001F600AE4A054A74402EF582E4347EF583E01358
:10020600929BAE4A054A74402EF582E4347EF5830D
:10021600E0F599E54AC3957C4017907FC7E4F0C2A4
:1002260003201503020440C215907FBF04F00204A8
:1002360040301B12AE4A054A74402EF582E4347EE5
:10024600F583E0139217AE4A054A74402EF582E410
:10025600347EF583E0F546D211020440C221020441
:1002660040201103020319E54AC3957C503E201332
:1002760036200B33907F9BE020E303201C29301BA4
:1002860012AE4A054A74C02EF582E4347DF583E049
:10029600139217AE4A054A74C02EF582E4347DF5F2
:1002A60083E0F546020440C211020440907FC9E48F
:1002B600F0D20330150CC215907FBF04F0C21102B4
:1002C6000440907FC6E030E105C211020440907FF1
:1002D600C7E0F57C907E40E013921520132D200B8D
:1002E6002A907F9BE020E303201C20301B11907E88
:1002F60041E0139217A3E0F546754A0302044075E0
:100306004A02907E41E0F546020440754A01C21158
:10031600020440E54AC3957C50030203C1907FC89E
:10032600E030E107C221C205020440907FC9E0F532
:100336007C907DC0E01392153013030203B9200BA5
:100346007220006F907F9BE020E303201C65301B2A
:1003560010907DC1E013929BA3E0F599754A038046
:1003660009907DC1E0F599754A02E54AC3957C403E
:1003760017907FC9E4F0D203201503020440C2158A
:10038600907FBF04F0020440301B12AE4A054A7447
:10039600C02EF582E4347DF583E0139217AE4A054C
:1003A6004A74C02EF582E4347DF583E0F546D21119
:1003B600020440754A01C2210204403013030204BC
:1003C6003E200B74907F9BE020E303201C6A301BC9
:1003D60012AE4A054A74C02EF582E4347DF583E0F8
:1003E60013929BAE4A054A74C02EF582E4347DF51D
:1003F60083E0F599E54AC3957C4013907FC9E4F004
:10040600D203301535C215907FBF04F0802C301B07
:1004160012AE4A054A74C02EF582E4347DF583E0B7
:10042600139217AE4A054A74C02EF582E4347DF560
:1004360083E0F546D2118002C221D2252020030294
:10044600080CC22020040302063120120302050212
:10045600E54BC3957D503E201436200D33907F9A90
:10046600E020E503201E29301D12AE4B054B7440DB
:100476002EF582E4347DF583E0139218AE4B054BDE
:1004860074402EF582E4347DF583E0F54702080AD0
:10049600C21202080A907FCBE4F0C20430160CC2E6
:1004A60016907FC104F0C21202080A907FCCE03099
:1004B600E105C21202080A907FCDE0F57D907CC06E
:1004C600E013921620142D200D2A907F9AE020E545
:1004D60003201E20301D11907CC1E0139218A3E06A
:1004E600F547754B0302080A754B02907CC1E0F58F
:1004F6004702080A754B01C21202080AE54BC3956A
:100506007D50030205AA907FCAE030E107C222C2ED
:100516000602080A907FCBE0F57D907D40E01392BD
:10052600163014030205A2200D7220006F907F9AE8
:10053600E020E503201E65301D10907D41E01392FA
:10054600C3A3E0F5C1754B038009907D41E0F5C179
:10055600754B02E54BC3957D4017907FCBE4F0C207
:100566000420160302080AC216907FC104F002088E
:100576000A301D12AE4B054B74402EF582E4347DD5
:10058600F583E0139218AE4B054B74402EF582E4CA
:10059600347DF583E0F547D21202080A754B01C295
:1005A6002202080A30140302062C200D79907F9A45
:1005B600E020E503201E6F301D12AE4B054B744044
:1005C6002EF582E4347DF583E01392C3AE4B054BE2
:1005D60074402EF582E4347DF583E0F5C1E54BC326
:1005E600957D4017907FCBE4F0C2042016030208E5
:1005F6000AC216907FC104F002080A301D12AE4BE3
:10060600054B74402EF582E4347DF583E013921891
:10061600AE4B054B74402EF582E4347DF583E0F550
:1006260047D21202080AC22202080A201203020650
:10063600E3E54BC3957D503E201436200D33907F65
:100646009AE020E503201E29301D12AE4B054B749F
:10065600C02EF582E4347CF583E0139218AE4B0588
:100666004B74C02EF582E4347CF583E0F54702082E
:100676000AC21202080A907FCDE4F0D20430160CAA
:10068600C216907FC104F0C21202080A907FCAE027
:1006960030E105C21202080A907FCBE0F57D907D1D
:1006A60040E013921620142D200D2A907F9AE02008
:1006B600E503201E20301D11907D41E0139218A302
:1006C600E0F547754B0302080A754B02907D41E041
:1006D600F54702080A754B01C21202080AE54BC328
:1006E600957D500302078B907FCCE030E107C22254
:1006F600C20602080A907FCDE0F57D907CC0E0132B
:100706009216301403020783200D7220006F907F2B
:100716009AE020E503201E65301D10907CC1E01391
:1007260092C3A3E0F5C1754B038009907CC1E0F547
:10073600C1754B02E54BC3957D4017907FCDE4F024
:10074600D20420160302080AC216907FC104F002E2
:10075600080A301D12AE4B054B74C02EF582E434E8
:100766007CF583E0139218AE4B054B74C02EF582D0
:10077600E4347CF583E0F547D21202080A754B0192
:10078600C22202080A301403020808200D74907F62
:100796009AE020E503201E6A301D12AE4B054B740D
:1007A600C02EF582E4347CF583E01392C3AE4B058C
:1007B6004B74C02EF582E4347CF583E0F5C1E54B3D
:1007C600C3957D4013907FCDE4F0D204301635C238
:1007D60016907FC104F0802C301D12AE4B054B7471
:1007E600C02EF582E4347CF583E0139218AE4B05F7
:1007F6004B74C02EF582E4347CF583E0F547D212C3
:100806008002C222D22520980302093EC298200106
:10081600030208B0202327AE48054874802EF582CF
:10082600E4347EF583E599F0301B49AE48054874FB
:10083600802EF582E4347EF583E598F08036AF9914
:10084600EFB55804D20B802CEFB55704C20B8024A9
:10085600AE48054874802EF582E4347EF583EFF0C9
:10086600301B11AE48054874802EF582E4347EF5BF
:1008760083E598F0D219E548C39554500302093C24
:10088600907FB8E030E115E548C394405003020973
:100896003C15481548052DD20C02093C907FB7E55A
:1008A60048F0754800C20102093C202327AE4805DE
:1008B6004874002EF582E4347EF583E599F0301B0A
:1008C60049AE48054874002EF582E4347EF583E58A
:1008D60098F08036AF99EFB55804D20B802CEFB55F
:1008E6005704C20B8024AE48054874002EF582E4F6
:1008F600347EF583EFF0301B11AE48054874002EA8
:10090600F582E4347EF583E598F0D219E548C3957F
:10091600544023907FB6E030E111E548C39440404F
:100926001515481548052DD20C800B907FB9E54862
:10093600F0754800D201D22520C003020A70C2C059
:100946002002030209E2202427AE49054974802EBD
:10095600F582E4347DF583E5C1F0301D49AE4905E5
:100966004974802EF582E4347DF583E5C0F0803647
:10097600AFC1EFB57004D20D802CEFB56F04C20D78
:100986008024AE49054974802EF582E4347DF583D2
:10099600EFF0301D11AE49054974802EF582E4341E
:1009A6007DF583E5C0F0D21AE549C3956C50030284
:1009B6000A6E907FBCE030E115E549C394405003D0
:1009C600020A6E154915490539D20E020A6E907F44
:1009D600BBE549F0754900C202020A6E202427AE23
:1009E60049054974002EF582E4347DF583E5C1F0AE
:1009F600301D49AE49054974002EF582E4347DF573
:100A060083E5C0F08036AFC1EFB57004D20D802CFF
:100A1600EFB56F04C20D8024AE49054974002EF56A
:100A260082E4347DF583EFF0301D11AE490549743B
:100A3600002EF582E4347DF583E5C0F0D21AE5494F
:100A4600C3956C4023907FBAE030E111E549C39429
:100A5600404015154915490539D20E800B907FBDCA
:100A6600E549F0754900D202D225302505C2250296
:100A76000056D0D0D086D082D083D0E032907FCEC0
:100A8600E030E103020BA5E4F51274402512F5826D
:100A9600E4347CF583E0FFE5127C007B00244CF90E
:100AA600EC3400FAEF1215CD0512E512B418DBE5A9
:100AB6004C600C75C92075C836854DCA854ECBE588
:100AC6004F13921B929FE55013921CE551139223EC
:100AD600E5526009907F98E054FBF08007907F987C
:100AE600E04404F0E5536009907F98E0547FF0807D
:100AF60007907F98E04480F0E559600BC213C20B63
:100B0600907F95E04402F0E55A600BD20BD20C9030
:100B16007F95E04402F0E55B600DC2AFC211D200E2
:100B2600E4F57CF54AD2AFE55C6005302302D20BD2
:100B3600E55D6015907F95E054FDF0907F9EE04462
:100B460002F0907F98E054FDF0E55E600AD29CC208
:100B560098752E01754028E55F6007C29CE4F5484C
:100B6600F52EE5606003E4F548E5616002D207E52D
:100B7600626008E55E7002F540D20CE5636019908C
:100B86007FD77411F07431F07412F07432F074156A
:100B9600F07435F0D203D201D209E4907FCFF0A2EF
:100BA60013E433FF652B60048F2BD20CA20BE433C6
:100BB600FF652C60048F2CD20C907F9BE054086557
:100BC600276007E05408F527D20C907F9BE054403D
:100BD600B52909E054406440F529D20C300735C2E6
:100BE600AF300118907FB8E020E127E54860099012
:100BF6007FB7F0E4F548C201C2078016907FB6E0E1
:100C060020E10FE5486009907FB9F0E4F548D2018C
:100C1600C207D2AF20053730031B907FC6E020E124
:100C26002D907E40E0139215754A01907FC7E0F53E
:100C36007CD2058019907FC8E020E112907DC0E04B
:100C4600139215754A01907FC9E0F57CD2052021E3
:100C560033200006E54A657C702A30051A30030900
:100C6600E4907FC7F0C2038007E4907FC9F0D20307
:100C7600C205E4F57CF54A30150AC215C200907F1C
:100C8600BF7401F0302103020D94200503020D9478
:100C9600301C0A907F9BE020E303020D94300B0387
:100CA600020D94301303020D94300362301B12AF11
:100CB6004A054A74402FF582E4347EF583E01392A8
:100CC6002DAF4A054A74402FF582E4347EF583E061
:100CD600F513E54AC3957C502A301B12AF4A054AE4
:100CE60074402FF582E4347EF583E0139217AF4A01
:100CF600054A74402FF582E4347EF583E0F546D24A
:100D060011806BC211E4907FC7F0C2038060301B74
:100D160012AF4A054A74C02FF582E4347DF583E0AC
:100D260013922DAF4A054A74C02FF582E4347DF53F
:100D360083E0F513E54AC3957C502A301B12AF4A6F
:100D4600054A74C02FF582E4347DF583E0139217CB
:100D5600AF4A054A74C02FF582E4347DF583E0F589
:100D660046D2118009C211E4907FC9F0D203301B2C
:100D760004A22D929BD221C2AF85139920110D306A
:100D8600150AC215C200907FBF7401F0D2AF907FE2
:100D9600D0E030E103020EB5E4F51274C02512F579
:100DA60082E4347BF583E0FFE5127C007B0024645B
:100DB600F9EC3400FAEF1215CD0512E512B418DB82
:100DC600E564600B758960758840D2DF85658DE5C1
:100DD6006713921D92C7E56813921EE56913922464
:100DE600E56A6009907F97E054EFF08007907F975F
:100DF600E04410F0E56B6009907F97E0547FF08047
:100E060007907F97E04480F0E571600BC214C20D35
:100E1600907F94E04408F0E572600BD20DD20E90FC
:100E26007F94E04408F0E573600DC2AFC212D200B1
:100E3600E4F57DF54BD2AFE5746005302402D20DA2
:100E4600E5756015907F94E054F7F0907F9DE0443F
:100E560008F0907F97E054F7F0E576600AD2C4C2B6
:100E6600C0753A01754128E5776007C2C4E4F549C3
:100E7600F53AE5786003E4F549E5796002D208E5DC
:100E86007A6008E5767002F541D20EE57B6019902E
:100E96007FD77413F07433F07414F07434F074164E
:100EA600F07436F0D204D202D20AE4907FD1F0A2D6
:100EB60014E433FF653760048F37D20EA20DE43396
:100EC600FF653860048F38D20E907F9AE054206513
:100ED600336007E05420F533D20E907F9AE05440F9
:100EE600B53509E054406440F535D20E300835C2B8
:100EF600AF300218907FBCE020E127E549600990F9
:100F06007FBBF0E4F549C202C2088016907FBAE0C2
:100F160020E10FE5496009907FBDF0E4F549D20272
:100F2600C208D2AF20063730041B907FCAE020E10A
:100F36002D907D40E0139216754B01907FCBE0F526
:100F46007DD2068019907FCCE020E112907CC0E033
:100F5600139216754B01907FCDE0F57DD2062022C7
:100F660033200006E54B657D702A30061A300409E9
:100F7600E4907FCBF0C2048007E4907FCDF0D204EA
:100F8600C206E4F57DF54B30160AC216C200907F04
:100F9600C17401F03022030210A42006030210A43B
:100FA600301E0A907F9AE020E5030210A4300D035C
:100FB6000210A43014030210A4300462301D12AFD4
:100FC6004B054B74402FF582E4347DF583E0139294
:100FD6002DAF4B054B74402FF582E4347DF583E04D
:100FE600F513E54BC3957D502A301D12AF4B054BCB
:100FF60074402FF582E4347DF583E0139218AF4BED
:10100600054B74402FF582E4347DF583E0F547D235
:1010160012806BC212E4907FCBF0C2048060301D58
:1010260012AF4B054B74C02FF582E4347CF583E098
:1010360013922DAF4B054B74C02FF582E4347CF52B
:1010460083E0F513E54BC3957D502A301D12AF4B57
:10105600054B74C02FF582E4347CF583E0139218B7
:10106600AF4B054B74C02FF582E4347CF583E0F575
:1010760047D2128009C212E4907FCDF0D204301D0F
:1010860004A22D92C3D222C2AF8513C120120D3005
:10109600160AC216C200907FC17401F0D2AF907FCB
:1010A600C2E030E10302117AE51A7046300C3FE5E2
:1010B60040703BA20933F531C209C20CE4F5127E39
:1010C600007B0074262512F9EE3400FA121587FF0C
:1010D60074802512F582E4347BF583EFF00512E582
:1010E60012B40CDB907FC3740CF075401022751A95
:1010F6000122E51A64017045300E3EE541703AA2C0
:101106000A33F53DC20AC20EE4F5127E007B007476
:10111600322512F9EE3400FA121587FF7480251273
:10112600F582E4347BF583EFF00512E512B40CDBAF
:10113600907FC3740CF0754110751A0222E51C608D
:1011460030151CE4F5127E007B00741B2512F9EEA7
:101156003400FA121587FF74802512F582E4347B79
:10116600F583EFF00512E512B403DB907FC3740339
:10117600F0E4F51A22907FE9E012161712400012E9
:10118600B401132003119E06123308122D091220F2
:101196000A13760B0000136F907FEBE024FE6016B7
:1011A600146040240270697419907FD4F074009022
:1011B6007FD5F0021376907FEAE0FF12174B8B1271
:1011C6008A138914EA496011AE02EE907FD4F0AF1B
:1011D60001EF907FD5F0021376907FB4E04401F0E2
:1011E600021376907FEAE0FF12179A8B128A138910
:1011F60014EA496011AE02EE907FD4F0AF01EF9091
:101206007FD5F0021376907FB4E04401F0021376A6
:10121600907FB4E04401F0021376907F007401F0F1
:10122600907FB5F00213761214C3021376907F00F6
:101236007401F0907FB5F0021376907FE8E0247F8A
:1012460060241460312402705BA226E433FF25E09B
:10125600FFA22BE4334F907F00F0E4A3F0907FB51C
:101266007402F0021376E4907F00F0A3F0907FB54D
:101276007402F0021376907FECE0F45480FFC454BD
:101286000FFFE054072F25E024B4F582E4347FF500
:1012960083E054FD907F00F0E4A3F0907FB57402E4
:1012A600F0021376907FB4E04401F0021376907F4B
:1012B600E8E024FE601D24026003021376907FEAB4
:1012C600E0B40105C226021376907FB4E04401F033
:1012D600021376907FEAE07038907FECE0F4548059
:1012E600FFC4540FFFE054072F25E024B4F582E431
:1012F600347FF583E4F0907FECE05480FF13131302
:10130600541FFFE054072F907FD7F0E04420F08071
:101316005F907FB4E04401F08056907FE8E024FEC1
:1013260060182402704A907FEAE0B40104D2268055
:101336003F907FB4E04401F08036907FEAE0702071
:10134600907FECE0F45480FFC4540FFFE054072F65
:1013560025E024B4F582E4347FF5837401F080102F
:10136600907FB4E04401F08007907FB4E04401F040
:10137600907FB4E04402F0222028030214C2E54024
:1013860060021540E548604F65447045E542F460EB
:10139600020542E542C39555403DC2AF3001189063
:1013A6007FB8E020E127907FB7E548F0C201E4F579
:1013B60048F542F5448016907FB6E020E10F907F15
:1013C600B9E548F0D201E4F548F542F544D2AF80DC
:1013D60006854844E4F542E52E602D201907907FE6
:1013E6009BE030E00EE52F6005E4F52FD20CE4F526
:1013F6003E8013E53ED39556500CE53EB556057531
:101406002F01D20C053EC219E54160021541E5499E
:10141600604F65457045E543F460020543E543C307
:10142600956D403DC2AF300218907FBCE020E127A9
:10143600907FBBE549F0C202E4F549F543F54580E6
:1014460016907FBAE020E10F907FBDE549F0D20209
:10145600E4F549F543F545D2AF8006854945E4F5FF
:1014660043E53A602D201A07907F9AE030E20EE5B8
:101476003B6005E4F53BD20EE4F53F8013E53FD330
:10148600956E500CE53FB56E05753B01D20E053FD6
:10149600C21A907FD2E020E123907B40E06009E011
:1014A600F51C907B42E0F51D907B41E06009907F42
:1014B600D77417F07437F0E4907FD3F022E4907F6E
:1014C60093F0907F9C7430F0907F96E04410F090FB
:1014D6007F94740DF0907F9D749AF0907F97E054FE
:1014E600FDF0907F957423F0907F9E7484F0E490D5
:1014F6007FC7F0907FC9F0907FCFF075984043A8E2
:1015060010C21BC205C221C20BC213F57CF54AC22A
:1015160011C215F542C219F544F548C223C21CF59D
:101526002DF52FC207C200C21FF53EC209D20CF527
:1015360026907FCBF0907FCDF0907FD1F075C040A4
:1015460043A840C21DC206C222C20DC214F57DF5D3
:101556004BC212C216F543C21AF545F549C224C25A
:101566001EF539F53BC208C200C220F53FC20AD2B9
:101576000E753201907FDF74FFF0907FDEF0D22887
:1015860022BB010689828A83E0225002E722BBFE43
:1015960002E32289828A83E49322BB010CE5822935
:1015A600F582E5833AF583E0225006E92582F8E6DE
:1015B60022BBFE06E92582F8E222E58229F582E5CC
:1015C600833AF583E49322BB010689828A83F0225B
:1015D6005002F722BBFE01F322BB0110E58229F57A
:1015E60082E5833AF583E0F5F0A3E0225009E92588
:1015F60082F886F008E622BBFE0AE92582F8E2F5C3
:10160600F008E222E5832AF583E993F5F0A3E9934E
:1016160022D083D082F8E4937012740193700DA3E4
:10162600A393F8740193F5828883E4737402936834
:1016360060EFA3A3A380DF787FE4F6D8FD75817DF4
:101646000216840216C9E493A3F8E493A34003F6B2
:101656008001F208DFF48029E493A3F85407240CF0
:10166600C8C333C4540F4420C8834004F4568001D1
:1016760046F6DFE4800B0102040810204080901833
:10168600C5E47E019360BCA3FF543F30E509541FB7
:10169600FEE493A360010ECF54C025E060A840B8D5
:1016A600E493A3FAE493A3F8E493A3C8C582C8CA53
:1016B600C583CAF0A3C8C582C8CAC583CADFE9DE26
:1016C600E780BE751101907F92E054FDF0907FAEE9
:1016D600E0FFD39226E433FEEF4EF0D2E843D82063
:1016E600907FDE7401F0907FDFF0907FAB74FFF0A7
:1016F600907FA9F0907FAAF05391EF907FAFE044DE
:1017060001F0907FAEE0440DF0D2AFD2BCD2BED293
:101716002D12187FC227C225C228302803120A8339
:10172600907FD8E065106008E0F51012137E80EA1D
:10173600302707C22712117B80E0302CDDC22C1225
:10174600002680D622E4FE7517FF75181975191242
:10175600AB17AA18A9199000011215A06402702DE2
:10176600AD060EEDB50701229000021215DF85F0D9
:1017760015F5166215E5156216E516621529FDE5DD
:10178600153AA9057517FFF518891980C37B007AE4
:10179600007900228F15E4F5167517FF751819756F
:1017A6001986AB17AA18A9199000011215A0B4033F
:1017B6001DAF160516EFB51501221215877E0029F5
:1017C600FFEE3AA9077517FFF518891980D47B0033
:1017D6007A00790022E4907F93F0907F9CF0907FCE
:1017E60094F0907F9D7402F0907F97F0E4907F953F
:1017F600F0907F9E74FFF0E4907F98F0907F9DF0CC
:1018060022C0E0C083C082C085C084C086758600C1
:10181600907FC4E4F05391EF907FAB7404F0D086D0
:10182600D084D085D082D083D0E032C0E0C083C0DF
:1018360082C085C084C086758600D2275391EF90FA
:101846007FAB7401F0D086D084D085D082D083D08F
:10185600E032C0E0C083C082C085C084C086758681
:1018660000D22C5391EF907FAB7408F0D086D084D1
:10187600D085D082D083D0E032907FD6E054FBF082
:10188600E04408F0302D04E04402F07FF47E0112BB
:101896000006907FD6E054F7F0E04404F02274008E
:1018A600F58690FDA57C05A3E582458370F9229017
:1018B6007FD6E04480F0438701000000000022C18B
:1018C600AA011A00031B030000C127C12CC126C1AF
:1018D6002B000000000000000000000000000000D7
:1018E60000000000000000000000000000000000F2
:1018F6000000000000000000000012011001FF00BF
:101906000040CD060F01000001020001090274002B
:10191600010100A032090400000EFF0000000705C7
:10192600010240000007050202400000070503020D
:1019360040000007050402400000070505024000BC
:1019460000070506024000000705070240000007E1
:101956000581024000010705820240000107058358
:101966000240000107058402400001070585024088
:1019760000010705860240000107058702400001B5
:101986000403090448034B006500790073007000E6
:1019960061006E002C0020006100200064006900D8
:1019A60076006900730069006F006E0020006F000A
:1019B6006600200049006E006E006F00530079003B
:1019C6007300200049006E0063002E0036034B00B2
:1019D600650079007300700061006E0020005500FC
:1019E6005300420020005300650072006900610048
:1019F6006C00200041006400610070007400650006
:101A0600720000000000000000000000000000005E
:101A160000000000000000000000000000000000C0
:101A260000000000000000000000000000000000B0
:101A360000000000000000000000000000000000A0
:101A46000000000000000000000000000000000090
:101A56000000000000000000000000000000000080
:101A66000000000000000000000000000000000070
:101A76000000000000000000000000000000000060
:101A86000000000000000000000000000000000050
:101A96000000000000000000000000000000000040
:101AA6000000000000000000000000000000000030
:101AB6000000000000000000000000000000000020
:101AC6000000000000000000000000000000000010
:101AD6000000000000000000000000000000000000
:101AE60000000000000000000000000000000000F0
:101AF6000000000000000000000002183100021B78
:091B06000400021807000218583F
:00000001FF
