:03000000020E12DB
:10000300C0E0C083C082C085C084C086758600906E
:100013007FC4E4F05391EF907FAB7404F0D086D0AB
:0A00230084D085D082D083D0E03273
:04002D0053D8EF3283
:0300330002002D9B
:0C003600907F987410F090C000E0FF2252
:03004300021300A5
:10004600300918121333EFC3953C40030200D890D1
:100056007FBF7401F0C209C200807730033B907FF6
:10006600C6E020E16D121333EFC394405064907ED6
:1000760040E0139209907FC7E014F5192000116043
:100086000FF5087E7E7F41750C7E750D41120CCCF6
:10009600C203E4907FC7F08039907FC8E020E13248
:1000A600121333EFC394405029907DC0E013920998
:1000B600907FC9E014F519200011600FF5087E7DC8
:1000C6007FC1750C7D750DC1120CCCD203E4907FF7
:1000D600C9F0907FB6E030E1030201601211F58F9E
:1000E6001912133F8F36E519C3953A500F12131B99
:1000F600EF30E008E53620E703300B5EC20BE5196A
:100106006058B48003433602E53630E726E519D356
:10011600942040037519208519087E7E7F80750C12
:100126007E750D80AF36120F5DE51925E0907FB71D
:10013600F08027E519D3943F400375193F851908C8
:10014600907E80E536F07E7E7F81750C7E750D8112
:10015600120CF1E51904907FB7F0907FCEE030E104
:10016600062005030203C1E4F51874402518F5823C
:10017600E4347CF583E0FFE5187C007B017A7E7928
:10018600002400F9EC347EFAEF120EE40518E518A7
:10019600B420D7907E00E06068907E03E060247F04
:1001A60001E4FD1211D07F037DCD1211D0434680AC
:1001B600907F987414F090C000E546F0E4907E13AA
:1001C600F08030907E01E0FF121054907E02E0FF36
:1001D60012107A7F01907E11E0FD1211D07F037D0F
:1001E600071211D0434680907F987414F090C00097
:1001F600E546F0907F987412F0E540440690C00002
:10020600F0907E03E07006907E13E07008E4907E26
:1002160013F07525FF907E05E06012A3E0543FF5CC
:1002260044907F987413F090C000E544F0907E07E8
:10023600E0602BA3E06005434280800353427F5376
:1002460042FC907E09E06011434202A3E0FF1210D7
:10025600C6907E0BE0FF1210ECAF421210A0907E0B
:1002660003E0600853427FAF421210A0907E0CE07C
:100276006018A3E0600543460280035346FD907F65
:10028600987414F090C000E546F0907E0EE0601879
:10029600A3E0600543460180035346FE907F9874B1
:1002A60014F090C000E546F0907E12E0F53AA3E027
:1002B60013920DA3E0F53CA3E060054346108003CE
:1002C6005346EF907F987414F090C000E546F09086
:1002D6007E16E060325344BF907F987413F0E54475
:1002E600547F90C000F0907F987411F012130FEFB6
:1002F60054FE90C000F0533EFDE4FFAD3E1211D017
:10030600E4F52AF529D207907E17E0600F433E02F6
:10031600E4FFAD3E1211D0752901D207907E18E098
:100326006010907F987412F0E540440490C000F08D
:10033600D200907E19E06011434440907F98741378
:10034600F0E544547F90C000F0907E1AE0600F53B1
:100356003EFEE4FFAD3E1211D0752B01D207907E12
:100366001BE0600F433E01E4FFAD3E1211D0E4F501
:100376002BD207907E1CE0600E907F987412F0E5F9
:1003860040440290C000F0907E1DE06002D20B90C7
:100396007E1EE06008752C01E4F538D207907E1FBA
:1003A600E06011907FD77411F07431F07415F07419
:1003B60035F0D203C205E4907FCFF0301A54E53809
:1003C6006002153820134BE513D39400400415132F
:1003D600804075130A301B02D21312130FEF54011B
:1003E600F519652A600585192AD20712134BEF54B1
:1003F600806480F51965266005851926D207300DBB
:100406001112134BEF5410F5196525600585192552
:10041600D207201B030207F0300A18121387EFC316
:10042600953D40030204B0907FC17401F0C20AC238
:1004360000807730043B907FCAE020E16D1213877D
:10044600EFC394405064907D40E013920A907FCBB6
:10045600E014F519200011600FF5087E7D7F4175C7
:100466000C7D750D41120D16C204E4907FCBF08011
:1004760039907FCCE020E132121387EFC3944050CD
:1004860029907CC0E013920A907FCDE014F51920E4
:100496000011600FF5087E7C7FC1750C7C750DC15F
:1004A600120D16D204E4907FCDF0907FBAE030E1D1
:1004B6000302053812123F8F191213938F37E5196D
:1004C600C3953B500F12136FEF30E008E53720E776
:1004D60003300C5EC20CE5196058B4800343370242
:1004E600E53730E726E519D39420400375192085B2
:1004F60019087E7D7F80750C7D750D80AF37120FD4
:1005060096E51925E0907FBBF08027E519D3943F47
:10051600400375193F851908907D80E537F07E7D8B
:100526007F81750C7D750D81120D3BE51904907F59
:10053600BBF0907FD0E030E106200603020799E485
:10054600F51874C02518F582E4347BF583E0FFE5E1
:10055600187C007B017A7E79202420F9EC347EFA1F
:10056600EF120EE40518E518B420D7907E20E0605F
:1005760068907E23E060247F01E4FD12121A7F0357
:100586007DCD12121A434780907F98740CF090C06C
:1005960000E547F0E4907E33F08030907E21E0FF66
:1005A600121138907E22E0FF12115E7F01907E319B
:1005B600E0FD12121A7F037D0712121A434780903C
:1005C6007F98740CF090C000E547F0907F98740A0D
:1005D600F0E541440690C000F0907E23E07006905E
:1005E6007E33E07008E4907E33F0752EFF907E2512
:1005F600E06012A3E0543FF545907F98740BF090AD
:10060600C000E545F0907E27E0602BA3E06005433F
:100616004380800353437F5343FC907E29E060115F
:10062600434302A3E0FF121184907E2BE0FF1211D8
:10063600AAAF43121112907E23E0600853437FAFA6
:1006460043121112907E2CE06018A3E06005434728
:100656000280035347FD907F98740CF090C000E52C
:1006660047F0907E2EE06018A3E0600543470180C6
:10067600035347FE907F98740CF090C000E547F056
:10068600907E32E0F53BA3E013920EA3E0F53DA386
:10069600E0600543471080035347EF907F98740C42
:1006A600F090C000E547F0907E36E060325345BFDB
:1006B600907F98740BF0E545547F90C000F0907FD2
:1006C600987409F0121363EF54FE90C000F0533F84
:1006D600FDE4FFAD3F12121AE4F533F532D208906D
:1006E6007E37E0600F433F02E4FFAD3F12121A75FA
:1006F6003201D208907E38E06010907F98740AF03C
:10070600E541440490C000F0D200907E39E06011CB
:10071600434540907F98740BF0E545547F90C000A8
:10072600F0907E3AE0600F533FFEE4FFAD3F1212B9
:100736001A753401D208907E3BE0600F433F01E416
:10074600FFAD3F12121AE4F534D208907E3CE06009
:100756000E907F98740AF0E541440290C000F09034
:100766007E3DE06002D20C907E3EE0600875350169
:10077600E4F539D208907E3FE06011907FD774137C
:10078600F07433F07416F07436F0D204C206E490B6
:100796007FD1F0301A54E5396002153930134BE534
:1007A60013D3940040041513804075130A301B02BE
:1007B600C213121363EF5401F519653360058519E9
:1007C60033D20812139FEF54806480F519652F60A9
:1007D6000585192FD208300E1112139FEF5410F50C
:1007E60019652E600585192ED208301A2A907FD2F7
:1007F600E020E123907B40E06009E0F515907B4224
:10080600E0F516907B41E06009907FD77417F0748D
:1008160037F0E4907FD3F0907FC2E030E103020925
:1008260024E50A7040300739E5387035C207F518F7
:100836007E007B0074242518F9EE3400FA120E9E11
:10084600FF74802518F582E4347BF583EFF00518F4
:10085600E518B409DB907FC37409F0753810E4F528
:100866002C750A0122E50A64017040300839E53921
:100876007035C208F5187E007B00742D2518F9EE38
:100886003400FA120E9EFF74802518F582E4347B3C
:10089600F583EFF00518E518B409DB907FC37409FA
:1008A600F0753910E4F535750A0222E50A6402701E
:1008B6003630142FC214F5187E007B00740E2518EE
:1008C600F9EE3400FA120E9EFF74802518F582E4C4
:1008D600347BF583EFF00518E518B405DB907FC38C
:1008E6007405F0750A0322E51560301515E4F51850
:1008F6007E007B0074142518F9EE3400FA120E9E61
:10090600FF74802518F582E4347BF583EFF0051833
:10091600E518B403DB907FC37403F0E4F50A229074
:100926007FE9E0120EF60A0C000A80010AEC0309C0
:10093600480609FF0809F90909E10A09F00B000050
:100946000B3B907FEBE024FE60191460612402608B
:10095600030209D77419907FD4F07400907FD5F004
:10096600020B42907FEAE070047F0280027F0375EB
:100976008282758319EFF075827B758319F0758213
:1009860074758319F0758266758319F075825875CA
:100996008319F0907FEAE004758217758319F07465
:1009A60019907FD4F07412907FD5F0020B42907F9D
:1009B600EAE0FF120F1CEA49600DEA907FD4F0E9E5
:1009C600907FD5F0020B42907FB4E04401F0020B19
:1009D60042907FB4E04401F0020B42907F00E509AB
:1009E600F0907FB57401F0020B42907FEAE0F509C2
:1009F600020B42120B4A020B42907F007401F090E8
:100A06007FB5F0020B42907FE8E0247F60241460FB
:100A1600312402705BA210E433FF25E0FFA216E446
:100A2600334F907F00F0E4A3F0907FB57402F0029C
:100A36000B42E4907F00F0A3F0907FB57402F002C1
:100A46000B42907FECE0F45480FFC4540FFFE05457
:100A5600072F25E024B4F582E4347FF583E054FDC6
:100A6600907F00F0E4A3F0907FB57402F0020B4291
:100A7600907FB4E04401F0020B42907FE8E024FE50
:100A8600601D24026003020B42907FEAE0B4010578
:100A9600C210020B42907FB4E04401F0020B429078
:100AA6007FEAE07038907FECE0F45480FFC4540F86
:100AB600FFE054072F25E024B4F582E4347FF58364
:100AC600E4F0907FECE05480FF131313541FFFE013
:100AD60054072F907FD7F0E04420F0805F907FB4DA
:100AE600E04401F08056907FE8E024FE601824027E
:100AF600704A907FEAE0B40104D210803F907FB440
:100B0600E04401F08036907FEAE07020907FECE0D0
:100B1600F45480FFC4540FFFE054072F25E024B49B
:100B2600F582E4347FF5837401F08010907FB4E0A1
:100B36004401F08007907FB4E04401F0907FB4E078
:100B46004402F022E4907F93F0907F9C7430F0E4AE
:100B5600907F96F0907F9574C0F0907F9E743FF0E2
:100B6600907F987418F0E4F58E907FDF74FFF09014
:100B76007FDEF0E4F5247518017B0074242518F94E
:100B8600E43400FAE4120EE40518E518B409EA752F
:100B96003A01E4F538F513F536C207C20BC205C2B1
:100BA60000C209C213907F987413F075440390C075
:100BB600007403F07F0CE4FD1211D07F108F4212F7
:100BC60010A0907F987412F07F018F40EF4406903A
:100BD600C000F0907F987414F075468090C0007441
:100BE60080F00FE4FD1211D0E4FF7EA3AD068D3E2A
:100BF6001211D0907F987411F090C000E4F07F0538
:100C06007D7F1211D07F011212897F037D07121199
:100C1600D07F137D091211D0201B03020CC9752D3C
:100C2600017518017B00742D2518F9E43400FAE4E7
:100C3600120EE40518E518B409EA753B01E4F53926
:100C4600F513F537C208C20CC206C200C20AC213A7
:100C5600907F98740BF075450390C0007403F07F85
:100C66000CE4FD12121A7F108F43121112907F9816
:100C7600740AF07F018F41EF440690C000F0907F28
:100C860098740CF075478090C0007480F00FE4FDF6
:100C960012121AE4FF7EA3AD068D3F12121A907F40
:100CA600987409F090C000E4F07F057D7F12121A57
:100CB6007F011212AA7F037D0712121A7F137D0984
:100CC60012121AD21222907F987410F0AF08E50D16
:100CD600F582E50CF583C2AF058690C0000586E077
:100CE600A30586F00586DFF7D2AF22907F987410B1
:100CF600F0AF08E50DF582E50CF583C2AF058690E9
:100D0600C000E00586F0A30586DFF70586D2AF2290
:100D1600907F987408F0AF08E50DF582E50CF58331
:100D2600C2AF058690C0000586E0A30586F005865D
:100D3600DFF7D2AF22907F987408F0AF08E50DF583
:100D460082E50CF583C2AF058690C000E00586F00B
:100D5600A30586DFF70586D2AF227400F58690FDDF
:100D6600A57C05A3E582458370F922907FD6E044F1
:100D760080F0438701000000000022D219907F9284
:100D8600E04402F0907FAEE0FFD39210E433FEEF32
:100D96004EF0D2E843D820907FDE7401F0907FDFDA
:100DA600F0907FAB74FFF0907FA9F0907FAAF0538C
:100DB60091EF907FAFE04401F0907FAEE0440DF0FC
:100DC600D2AFD21A121264C211E4F50BF513C21790
:100DD600C212907FA104F0907FD8E06517601030B2
:100DE6001205D21A120046907FD8E0F51780083017
:100DF6001205C21A120046301107C21112092580C7
:100E0600D63018D3C2181213AB80CC22787FE4F602
:100E1600D8FD758147020E59020D81E493A3F8E4CB
:100E260093A34003F68001F208DFF48029E493A33C
:100E3600F85407240CC8C333C4540F4420C8834055
:100E460004F456800146F6DFE4800B010204081024
:100E56002040809012CBE47E019360BCA3FF543FF8
:100E660030E509541FFEE493A360010ECF54C0255C
:100E7600E060A840B8E493A3FAE493A3F8E493A34C
:100E8600C8C582C8CAC583CAF0A3C8C582C8CAC5B0
:100E960083CADFE9DEE780BEBB010689828A83E07A
:100EA600225002E722BBFE02E32289828A83E49370
:100EB60022BB010CE58229F582E5833AF583E0221F
:100EC6005006E92582F8E622BBFE06E92582F8E20D
:100ED60022E58229F582E5833AF583E49322BB0174
:100EE6000689828A83F0225002F722BBFE01F32292
:100EF600D083D082F8E4937012740193700DA3A38B
:100F060093F8740193F5828883E47374029368609E
:100F1600EFA3A3A380DF8F18E4F519751AFF751BDD
:100F260019751C86AB1AAA1BA91C900001120EB7D4
:100F3600B4031DAF190519EFB5180122120E9E7ED6
:100F46000029FFEE3AA907751AFFF51B891C80D404
:100F56007B007A007900228F1A050DE50DAE0C7024
:100F660002050C14F5828E83E51AF0120036050D83
:100F7600E50DAC0C7002050C14F5828C83EFF015B0
:100F860008E508600A12133F8F1AEF423680CA221C
:100F96008F1A050DE50DAE0C7002050C14F5828E48
:100FA60083E51AF0121357050DE50DAC0C7002051A
:100FB6000C14F5828C83EFF01508E508600A12130D
:100FC600938F1AEF423780CA22E4907F93F0907F86
:100FD6009C7430F0E4907F96F0907F95F0907F9E21
:100FE6007427F0907F987420F0907F9E7407F0E449
:100FF600907F94F0907F9D74FFF0E4907F97F022AD
:10100600C0E0C083C082C085C084C086758600D219
:10101600115391EF907FAB7401F0D086D084D085C8
:10102600D082D083D0E032C0E0C083C082C085C009
:1010360084C086758600D2185391EF907FAB7408F2
:10104600F0D086D084D085D082D083D0E032907F15
:10105600987413F090C00074BFF0907F987410F0ED
:1010660090C000EFF0907F987413F0E544547F90A1
:10107600C000F022907F987413F090C00074BFF007
:10108600907F987411F090C000EFF0907F987413E1
:10109600F0E544547F90C000F022907F987413F0DE
:1010A60090C00074BFF0907F987412F090C000EF6B
:1010B600F0907F987413F0E544547F90C000F022BE
:1010C600907F987413F090C00074BFF0907F98746E
:1010D60014F090C000EFF0907F987413F0E544543C
:1010E6007F90C000F022907F987413F090C0007437
:1010F600BFF0907F987416F090C000EFF0907F9844
:101106007413F0E544547F90C000F022907F9874E9
:101116000BF090C00074BFF0907F98740AF090C0F6
:1011260000EFF0907F98740BF0E545547F90C00077
:10113600F022907F98740BF090C00074BFF0907FFF
:10114600987408F090C000EFF0907F98740BF0E56B
:1011560045547F90C000F022907F98740BF090C0A9
:101166000074BFF0907F987409F090C000EFF09083
:101176007F98740BF0E545547F90C000F022907F75
:1011860098740BF090C00074BFF0907F98740CF0C8
:1011960090C000EFF0907F98740BF0E545547F9077
:1011A600C000F022907F98740BF090C00074BFF0DE
:1011B600907F98740EF090C000EFF0907F98740BBB
:1011C600F0E545547F90C000F022907F987413F0AC
:1011D600E544547F90C000F0907F987417F090C05B
:1011E60000EFF0907F987415F090C000EDF0221299
:1011F60013278F1A1213278F1BE51A651B6012120D
:1012060013278F1AE51A651B60071213278F1B8099
:10121600E8AF1A22907F98740BF0E545547F90C092
:1012260000F0907F98740FF090C000EFF0907F98D8
:10123600740DF090C000EDF02212137B8F1A12137A
:101246007B8F1BE51A651B601212137B8F1AE51A3A
:10125600651B600712137B8F1B80E8AF1A22907FF5
:10126600D6E054FBF0E04408F0301A04E04402F003
:101276007FF47E011212E7907FD6E054F7F0E04447
:1012860004F022AE07E4FFE53E547FFD1211D09034
:101296007F987411F090C000EEF0E4E53E4480FDC6
:1012A6001211D022AE07E4FFE53F547FFD12121A59
:1012B600907F987409F090C000EEF0E4E53F44801A
:1012C600FD12121A22050E0200000000031403008C
:1012D60000C111C118C195C110C116010A00C19BF8
:1012E600008E188F19E5191519AE18700215184ECB
:1012F6006005120D6080EE22000002100600021347
:1013060004000200030002102D907F987411F090E3
:10131600C000E0FF22907F987412F090C000E0FFBA
:1013260022907F987413F090C000E0FF22907F987F
:101336007414F090C000E0FF22907F987415F0902E
:10134600C000E0FF22907F987416F090C000E0FF86
:1013560022907F987408F090C000E0FF22907F985A
:101366007409F090C000E0FF22907F98740AF09014
:10137600C000E0FF22907F98740BF090C000E0FF61
:1013860022907F98740CF090C000E0FF22907F9826
:10139600740DF090C000E0FF22907F98740EF090DC
:1013A600C000E0FF22120FCF120D71120B4A22006D
:1013B6000000000000000000000000000000000027
:1013C6000000000000000000000000000000000017
:1013D6000000000000000000000000000000000007
:1013E60000000000000000000000000000000000F7
:1018F6000000000000000000000012011001FF00BF
:101906000040CD0610010000010200020902740029
:10191600010100A032090400000EFF0000000705C7
:10192600010240000007050202400000070503020D
:1019360040000007050402400000070505024000BC
:1019460000070506024000000705070240000007E1
:101956000581024000010705820240000007058359
:101966000240000107058402400001070585024088
:1019760000010705860240000107058702400001B5
:101986000403090448034B006500790073007000E6
:1019960061006E002C0020006100200064006900D8
:1019A60076006900730069006F006E0020006F000A
:1019B6006600200049006E006E006F00530079003B
:1019C6007300200049006E0063002E0036034B00B2
:1019D600650079007300700061006E0020005500FC
:1019E6005300420020005300650072006900610048
:1019F6006C00200041006400610070007400650006
:041A0600720000006A
:00000001FF
