:030000000210905B
:1000030090784174F3F090C00074BFF0907841741D
:10001300F0F090C000EFF090784174F3F0E5152410
:1000230037F582E43514F583E0547F90C000F02265
:100033000218FBE51104907841F090C000E0FF2224
:03004300021B009D
:10004600E4FF74402FF582E4347BF583E0FEE5158A
:100056002404FDE43514FAA9057B01EF7C0029F997
:10006600EC3AFAEE1211EC0FBF22D7E5152405F58E
:1000760082E43514F583E07003020134E5152409A2
:10008600F582E43514F583E0700EE515240AF58251
:10009600E43514F583E060187F01E4FD12166BE584
:1000A600152431F582E43514F583E054CFF0804110
:1000B600E5152406F582E43514F583E0FF12000306
:1000C600E5152407F582E43514F583E0FF1215AB38
:1000D6007F01E5152408F582E43514F583E0FD1269
:1000E600166BE5152431F582E43514F583E04430CA
:1000F600F0E5152439F582E43514F583E04480F003
:1001060090784174F4F0E5152439F582E43514F558
:1001160083E090C000F090784174F2F0E515243643
:10012600F582E43514F583E0440690C000F0E51549
:10013600240BF582E43514F583E06032E515240CD2
:10014600F582E43514F583E0543FFFE5152437F5D1
:1001560082E43514F583EFF090784174F3F0E515F9
:100166002437F582E43514F583E090C000F0E515F8
:10017600240DF582E43514F583E0700302024FE5A1
:10018600152417F582E43514F583E06011E515248E
:1001960032F582E43514F583E04404F0800FE5156A
:1001A6002432F582E43514F583E054FBF0E4FFE5F0
:1001B600152432F582E43514F583E0FD12166BE55D
:1001C60015240EF582E43514F583E06011E5152457
:1001D60033F582E43514F583E04480F0800FE515AD
:1001E6002433F582E43514F583E0547FF0E51524D5
:1001F60033F582E43514F583E054FCF0E515240F5D
:10020600F582E43514F583E0602FE5152433F58295
:10021600E43514F583E04402F0E5152410F582E494
:100226003514F583E0FF12160BE5152411F582E46B
:100236003514F583E0FF12163BE5152433F582E409
:100246003514F583E0FF1215DBE5152414F582E479
:100256003514F583E06044E5152415F582E435147C
:10026600F583E06011E5152439F582E43514F5834C
:10027600E04401F0800FE5152439F582E43514F5E4
:1002860083E054FEF090784174F4F0E5152439F5D6
:1002960082E43514F583E090C000F0E5152412F5EC
:1002A60082E43514F583E06044E5152413F582E411
:1002B6003514F583E06011E5152439F582E435142B
:1002C600F583E04402F0800FE5152439F582E43524
:1002D60014F583E054FDF090784174F4F0E51524AC
:1002E60039F582E43514F583E090C000F0E5152475
:1002F60016F582E43514F583E0FFE5152435F5821D
:10030600E43514F583EFF0E5152417F582E435148A
:10031600F583E030E011E5152431F582E43514F576
:1003260083E04440F0800FE5152431F582E435146E
:10033600F583E054BFF0E5152418F582E43514F58D
:1003460083E0FFE515243BF582E43514F583EFF0F1
:10035600E5152419F582E43514F583E06011E515F9
:100366002439F582E43514F583E04410F0800FE576
:10037600152439F582E43514F583E054EFF09078CE
:100386004174F4F0E5152439F582E43514F583E07B
:1003960090C000F0E515241AF582E43514F583E0E3
:1003A600606BE5152437F582E43514F583E054BF18
:1003B600F090784174F3F0E5152437F582E43514AE
:1003C600F583E0547F90C000F090784174F1F0120C
:1003D6000036EF54FE90C000F0E5152432F582E4B5
:1003E6003514F583E054FDFFF0FDE4FF12166BE5CE
:1003F60015242CF582E43514F583E4F0E515242B59
:10040600F582E43514F583E4F0E5164213E5152488
:100416001BF582E43514F583E0700EE5152425F509
:1004260082E43514F583E06028E5152432F582E48C
:100436003514F583E04402FFF0FDE4FF12166BE588
:1004460015242BF582E43514F5837401F0E5164284
:1004560013E515241CF582E43514F583E0FF700ED0
:10046600E5152425F582E43514F583E0602A9078B5
:100476004174F2F0E5152436F582E43514F583E08F
:10048600440490C000F0EF600FE5152431F582E4D6
:100496003514F583E04404F0E515241DF582E435B2
:1004A60014F583E06027E5152437F582E43514F565
:1004B60083E04440F090784174F3F0E5152437F575
:1004C60082E43514F583E0547F90C000F0E51524EE
:1004D6001EF582E43514F583E06028E5152432F52F
:1004E60082E43514F583E054FEFFF0FDE4FF1216B6
:1004F6006BE515242DF582E43514F5837401F0E5DA
:10050600164213E515241FF582E43514F583E070D1
:100516000EE5152425F582E43514F583E06027E51C
:10052600152432F582E43514F583E04401FFF0FD2D
:10053600E4FF12166BE515242DF582E43514F583D8
:10054600E4F0E5164213E5152420F582E43514F5AA
:1005560083E0700EE5152425F582E43514F583E075
:10056600601890784174F2F0E5152436F582E4358A
:1005760014F583E0440290C000F0E5152421F582CD
:10058600E43514F583E0600FE5152431F582E43592
:1005960014F583E04402F0E5152422F582E43514CF
:1005A600F583E0601FE515242EF582E43514F58306
:1005B6007401F0E515243AF582E43514F583E4F088
:1005C600E5164213E5152423F582E43514F583E098
:1005D600600312187AE5152424F582E43514F583B0
:1005E600E06023E5152431F582E43514F583E04413
:1005F60008F0E516C454F0FF4211907F96E04FF0E4
:10060600907841E04FF0E5152425F582E43514F5A0
:1006160083E06024E5152431F582E43514F583E0A2
:1006260054F7F0E516C454F0F4FF5211907F96E0AB
:100636005FF0907841E05FF022907FE9E01211FED2
:10064600079900080D01087903066206078A08075C
:100656007E0907660A07750B000008C8907FEBE065
:1006660024FE601C147003020714240260030207B0
:100676005C7419907FD4F07400907FD5F00208CF97
:10068600907FEAE004758217758319F0907FEAE09F
:1006960030E0047F0280027F03758282758319EF42
:1006A600F075826D758319F0758266758319F0751C
:1006B600825F758319F0758258758319F0907FEA09
:1006C600E030E1047F6480027F3275821A758319F7
:1006D600EFF0907FEFE0FE907FEEE07C002400F5E7
:1006E60018EC3EF517753319753412758214758337
:1006F60019E0752700F528D3E5289518E5279517FD
:10070600400685172785182812130D0208CF907FFB
:10071600EAE0FF12145FEA496032907FEEE0751757
:1007260000F518AE02AF018E338F348F828E83E0D0
:10073600FEA3E08E27F528D39518E52795174006E2
:1007460085172785182812130D0208CF907FB4E06D
:100756004401F00208CF907FB4E04401F00208CFD4
:10076600907F00E525F0907FB57401F00208CF90E8
:100776007FEAE0F5250208CF907FEAE0F522120A2B
:10078600CE0208CF907F00E522F0907FB57401F08D
:100796000208CF907FE8E0247F60241460312402B1
:1007A600705BA200E433FF25E0FFA206E4334F901E
:1007B6007F00F0E4A3F0907FB57402F00208CFE466
:1007C600907F00F0A3F0907FB57402F00208CF90FE
:1007D6007FECE0F45480FFC4540FFFE054072F254C
:1007E600E024B4F582E4347FF583E054FD907F0085
:1007F600F0E4A3F0907FB57402F00208CF907FB4C6
:10080600E04401F00208CF907FE8E024FE601D245A
:100816000260030208CF907FEAE0B40105C200023D
:1008260008CF907FB4E04401F00208CF907FEAE061
:100836007038907FECE0F45480FFC4540FFFE0540E
:10084600072F25E024B4F582E4347FF583E4F090A5
:100856007FECE05480FF131313541FFFE054072F5F
:10086600907FD7F0E04420F0805F907FB4E04401B1
:10087600F08056907FE8E024FE60182402704A90CB
:100886007FEAE0B40104D200803F907FB4E04401E7
:10089600F08036907FEAE07020907FECE0F45480A0
:1008A600FFC4540FFFE054072F25E024B4F582E47B
:1008B600347FF5837401F08010907FB4E04401F03A
:1008C6008007907FB4E04401F0907FB4E04402F0EA
:1008D60022E512540F70030209C812169AEF20E19E
:1008E600751216F8EF14F5181218C5EF2518FFE45F
:1008F60033FEC3EF9480EE64809480505985158250
:10090600851483E0FEA3E0FFF5828E83E030E011DC
:10091600E5152431F582E43514F583E04480F08052
:100926000FE5152431F582E43514F583E0547FF0A4
:10093600E5152431F582E43514F583E020E212E56D
:1009460018600EF523EF2401F52DE43EF52C121464
:10095600A0E4FF1214D7E5152431F582E43514F529
:1009660083E030E75D1218C5E515243BF582E435D2
:1009760014F583E0FEEFC39E5048E515242FF5825B
:10098600E43514F5837401F0E5152431F582E43578
:1009960014F583E0547BF0E515243AF582E435142A
:1009A600F583E4F0E5164213907FC2E030E110E5EE
:1009B600152426F582E43514F583E0F52480031228
:1009C600129C1216C9EF30E103020ACD1217C78F27
:1009D600181218D3E5152438F582E43514F583EF9B
:1009E600F0E5152435F582E43514F583E0FFE518C6
:1009F600C39F50281218A9EF30E021E5152438F5D9
:100A060082E43514F583E020E712E5152431F582FA
:100A1600E43514F583E020E103020ACDE51524311F
:100A2600F582E43514F583E054FDF0E51870030211
:100A36000ACDB4800FE5152438F582E43514F58324
:100A4600E04402F0E5152438F582E43514F583E038
:100A5600FF30E729E518D394204003751820851840
:100A660023851582851483A3A3E0FCA3E08C2CF5D3
:100A76002D1213CFE51825E0FF12150D22E518D328
:100A8600943F400375183F851823E5152438F582F1
:100A9600E43514F583E0FF851582851483A3A3E06E
:100AA600FCA3E0F5828C83EFF0851582851483A381
:100AB600A3E0FEA3E02401F52DE43EF52C12141D5F
:100AC600E51804FF12150D22E4907F93F0907F9CA9
:100AD60074FFF0E4907F96F0907F94F090784A044B
:100AE600F0F58E907F9574C0F0907F9E743FF090E5
:100AF6007F98742FF090784374F7F0E4907841F083
:100B0600907FDF749FF0907FDEF0907F92E044024A
:100B1600F07E7B7FC075147B7515C0907F98742E10
:100B2600F0751601120F287E7B7FC075147B751534
:100B3600C0907F98742EF0751601E5152426F5826F
:100B4600E43514F583E4F07E7E7F408515828514B6
:100B560083747EF0A37440F07E7E7F808515828547
:100B66001483A3A3747EF0A37480F07E7C7F00754B
:100B7600147C751500907F98742DF0751602120F6F
:100B8600287E7C7F0075147C751500907F98742DE7
:100B9600F0751602E5152426F582E43514F58374FE
:100BA60001F07E7D7FC0851582851483747DF0A358
:100BB60074C0F07E7E7F00851582851483A3A3749E
:100BC6007EF0A37400F07E7C7F4075147C75154022
:100BD600907F98742BF0751604120F287E7C7F4048
:100BE60075147C751540907F98742BF0751604E586
:100BF600152426F582E43514F5837402F07E7D7F94
:100C060040851582851483747DF0A37440F07E7D43
:100C16007F80851582851483A3A3747DF0A37480D9
:100C2600F07E7C7F8075147C751580907F98742784
:100C3600F0751608120F287E7C7F8075147C75155A
:100C460080907F987427F0751608E5152426F5829E
:100C5600E43514F5837403F07E7C7FC085158285A8
:100C66001483747CF0A374C0F07E7D7F00851582AA
:100C7600851483A3A3747DF0A37400F0C20AC2098D
:100C8600E4F511D20222E510045403F51014601F96
:100C9600146031146043240370527E7B7FC0751448
:100CA6007B7515C0907F98742EF0751601803D7E79
:100CB6007C7F0075147C751500907F98742DF075F7
:100CC600160280287E7C7F4075147C751540907FC7
:100CD60098742BF075160480137E7C7F8075147CC7
:100CE600751580907F987427F0751608E5325516AD
:100CF6007003020E27E516F45232E526547FFF7084
:100D060017E52A55166034907F96E0FEE516C45422
:100D1600F0F4FDEE5DF08023BF2020E5152431F5CB
:100D260082E43514F583E030E311E4F52A907F96EA
:100D3600E0FFE516C454F0FEEF4EF0E515243AF553
:100D460082E43514F583E06003E014F0E5152434FD
:100D5600F582E43514F583E06003E014F0E0600307
:100D6600020E27740AF0120036EF5401FFF518E55B
:100D760015242CF582E43514F583E06F6007E51839
:100D8600F0E51642131218E18F18E5152427F582AF
:100D9600E43514F583E0FFE5185410FE6F6006EEA7
:100DA600F0E5164213E5152428F582E43514F5839B
:100DB600E0FFE5185480FE6F6006EEF0E51642137C
:100DC600E5152429F582E43514F583E0FFE518548A
:100DD60020FE6F6015EEF0E5152431F582E435143A
:100DE600F583E030E404E5164213E515242AF5827E
:100DF600E43514F583E0FFE5185440FE6F6015EE08
:100E0600F0E5152431F582E43514F583E030E50488
:100E1600E5164213E5152430F582E43514F583E42E
:100E2600F022300903020F27E52414602A146041DA
:100E360014605814606F24046003020EE57E7B7F05
:100E4600C075147B7515C0907F98742EF0751601C9
:100E560012129C752401227E7C7F0075147C751508
:100E660000907F98742DF075160212129C7524025C
:100E7600227E7C7F4075147C751540907F98742B7C
:100E8600F075160412129C752403227E7C7F8075F1
:100E9600147C751580907F987427F07516081212C9
:100EA6009C75240422300433C2045313DFE4F5187E
:100EB6007E007B00742E2518F9EE3400FA1211A676
:100EC600FF74802518F582E4347BF583EFF005186E
:100ED600E518B403DB907FC37403F075240522E59F
:100EE60036603BD5360A5313EF300A04D209C20ADC
:100EF600E4F5187E007B0074352518F9EE3400FA07
:100F06001211A6FF74802518F582E4347BF583EF71
:100F1600F00518E518B403DB907FC37403F0E4F51D
:100F26002422E4F5197E007B01E5152519F9EE3535
:100F360014FAE41211EC0519E519B43CE8E5152498
:100F460035F582E43514F5837401F090784174F335
:100F5600F0E5152437F582E43514F5837403F09033
:100F6600C000F07F0CE4FD12166B7F10E5152433EC
:100F7600F582E43514F583EFF01215DB90784174B1
:100F8600F2F07F01E5152436F582E43514F583EF9A
:100F9600F0440690C000F090784174F4F0E5152412
:100FA60039F582E43514F5837480F090C000F00FB3
:100FB600E4FD12166BE4FF7EA3E5152432F582E408
:100FC6003514F583EEF0FD12166B90784174F1F04E
:100FD60090C000E4F07F057D7F12166B7F0112152D
:100FE600437F037D0712166B2253133F907BF1E07C
:100FF60030E3167E7B7FC075147B7515C0907F9895
:10100600742EF07516011208D7907C31E030E31685
:101016007E7C7F0075147C751500907F98742DF08A
:101026007516021208D7907C71E030E3167E7C7F3D
:101036004075147C751540907F98742BF0751604D6
:101046001208D7907CB1E030E3167E7C7F80751461
:101056007C751580907F987427F07516081208D74E
:101066000512E512540FF517700412111C22E5172C
:10107600B40104120C8C22907FC2E020E108E51333
:101086006004120E2822120C8C22787FE4F6D8FD1A
:101096007581370210D7021224E493A3F8E493A3D0
:1010A6004003F68001F208DFF48029E493A3F854A4
:1010B60007240CC8C333C4540F4420C8834004F427
:1010C60056800146F6DFE4800B010204081020403A
:1010D60080901845E47E019360BCA3FF543F30E541
:1010E60009541FFEE493A360010ECF54C025E060AF
:1010F600A840B8E493A3FAE493A3F8E493A3C8C57D
:1011060082C8CAC583CAF0A3C8C582C8CAC583CA6D
:10111600DFE9DEE780BE907FD2E030E1030211A571
:10112600C209907B40E014602614603B1460502492
:10113600836064248070637E7B7FC075147B751525
:10114600C0907F98742EF0751601120046804B7E73
:101156007C7F0075147C751500907F98742DF07552
:10116600160212004680337E7C7F4075147C75150E
:1011760040907F98742BF0751604120046801B7EF3
:101186007C7F8075147C751580907F987427F07528
:1011960016081200468003121751E4907FD3F022FE
:1011A600BB010689828A83E0225002E722BBFE0247
:1011B600E32289828A83E49322BB010CE58229F526
:1011C60082E5833AF583E0225006E92582F8E62295
:1011D600BBFE06E92582F8E222E58229F582E5834F
:1011E6003AF583E49322BB010689828A83F0225072
:1011F60002F722BBFE01F322D083D082F8E493707B
:1012060012740193700DA3A393F8740193F5828869
:1012160083E4737402936860EFA3A3A380DF907FD7
:10122600AEE0FFD39200E433FEEF4EF0D2E843D8AF
:1012360020907FDE7401F0907FDFF0907FAB74FF2B
:10124600F0907FA9F0907FAAF05391EF907FAF7452
:1012560001F0907FAE740DF0D2AFD20B121809C216
:1012660001E4F52BF531C207C20275290F907FD82C
:10127600E06526600675320FE0F526300203120F90
:10128600EF300107C20112063F80E23008DFC208D4
:1012960012182A80D822E5135516606AE515243AF5
:1012A600F582E43514F583E0705CE516F45213E537
:1012B600152426FFE43514FEE4FD0FEFAA0670019F
:1012C6000E14F5828A83E0FC74802DF582E4347B6B
:1012D600F583ECF00DBD0BE2907FC3740BF0E515C2
:1012E600243AF582E43514F5837410F0E515242EBE
:1012F600F582E43514F583E4F0E515242FF582E450
:101306003514F583E4F022E52845276057AE27AF6C
:1013160028D3EF9440EE940040047E007F40C3E55E
:10132600289FF528E5279EF527E4FDEDC39FE49E5B
:10133600501F853482853383E0FC74002DF582E4EA
:10134600347FF583ECF00D0534E534700205338007
:10135600DA907FA97401F0907FACE04401F0907FB1
:10136600B5EFF022907FACE054FEF0E4907FB5F04C
:1013760022907F98740FF0E490784AF0907F94F072
:10138600907F9D74FFF0E4907F97F0907841F09005
:101396007F93F0907F9C74FFF0300007E529540F8F
:1013A600FF80027F00907F96EFF0907F98741FF089
:1013B600E4907F95F0907F9E743FF0907F9874DF65
:1013C600F0907F92E054FDF0228F19052DE52DAEA9
:1013D6002C7002052C14F5828E83E519F01218EF95
:1013E600052DE52DAC2C7002052C14F5828C83EFAF
:1013F600F01523E523601FE5152438F582E435143E
:10140600F583C083C082E0FE1218D38F19EE4FD049
:1014160082D083F080B522907841E511F090784F24
:1014260074C0F0E4907850F0E52C907851F0AE2C32
:10143600E52D907852F0907854E523F09078577423
:1014460004F0907FE2E04410F0E054F7F0E4907886
:1014560055F0907855E060FA228F19E4F51A751B5D
:10146600FF751C19751D86AB1BAA1CA91D900001D2
:101476001211BFB4031DAF1A051AEFB519012212D6
:1014860011A67E0029FFEE3AA907751BFFF51C89F8
:101496001D80D47B007A00790022907841E511F016
:1014A600E52C90784FF0AE2CE52D907850F09078A2
:1014B6005174C0F0E4907852F0907854E523F0909F
:1014C60078577404F0E4907855F0907855E060FA17
:1014D60022E5152404F582E43514F583E014600F43
:1014E6001460131460178000907FC7EFF08013908C
:1014F6007FC9EFF0800C907FCBEFF08005907FCD19
:10150600EFF0E516422A22E5152404F582E43514A7
:10151600F583E014600F1460131460178000907F49
:10152600B7EFF08013907FB9EFF0800C907FBBEFA0
:10153600F08005907FBDEFF0E516422A22AE07E463
:10154600FFE5152432F582E43514F583E0547FFD7A
:1015560012166B90784174F1F090C000EEF0E4E55D
:10156600152432F582E43514F583E04480FD121625
:101576006B22C0E0C0F0C083C082C085C084C08634
:10158600758600C0D075D0085391EF907FA974017D
:10159600F012130DD0D0D086D084D085D082D083DF
:1015A600D0F0D0E03290784174F3F090C00074BF70
:1015B600F090784174F1F090C000EFF090784174AB
:1015C600F3F0E5152437F582E43514F583E0547F0E
:1015D60090C000F02290784174F3F090C00074BF80
:1015E600F090784174F2F090C000EFF0907841747A
:1015F600F3F0E5152437F582E43514F583E0547FDE
:1016060090C000F02290784174F3F090C00074BF4F
:10161600F090784174F4F090C000EFF09078417447
:10162600F3F0E5152437F582E43514F583E0547FAD
:1016360090C000F02290784174F3F090C00074BF1F
:10164600F090784174F6F090C000EFF09078417415
:10165600F3F0E5152437F582E43514F583E0547F7D
:1016660090C000F02290784174F3F0E5152437F528
:1016760082E43514F583E0547F90C000F090784101
:1016860074F7F090C000EFF090784174F5F090C0D8
:1016960000EDF022E5152404F582E43514F583E027
:1016A60014600E1460111460148000907FC6E0FF71
:1016B60022907FC8E0FF22907FCAE0FF22907FCC75
:1016C600E0FF22E5152404F582E43514F583E014E1
:1016D600600E1460111460148000907FB6E0FF2243
:1016E600907FB8E0FF22907FBAE0FF22907FBCE0B7
:1016F600FF22E5152404F582E43514F583E0146031
:101706000E1460111460148000907FC7E0FF2290D1
:101716007FC9E0FF22907FCBE0FF22907FCDE0FFE4
:1017260022C0E0C083C082C085C084C086758600A2
:10173600907FC4E4F05391EF907FAB7404F0D086B1
:10174600D084D085D082D083D0E032907B41E0F542
:1017560036431310A3E06009907FD77417F07437EF
:10176600F0907B43E0F537A3E054F0F529E0600202
:10177600D20A22C0E0C083C082C085C084C08675FC
:101786008600D2015391EF907FAB7401F0D086D0E2
:1017960084D085D082D083D0E032C0E0C083C082BE
:1017A600C085C084C086758600D2085391EF907FAD
:1017B600AB7408F0D086D084D085D082D083D0E0B8
:1017C600321218B7AE071218B7AD07EE6D601012D9
:1017D60018B7AE07EE6D60071218B7AD0780ECAF0D
:1017E60006227400F58690FDA57C05A3E582458357
:1017F60070F922907FD6E04480F043870100000014
:10180600000022907FD6E04404F0E04408F0300B5C
:1018160004E04402F07FF47E01121860907FD6E067
:1018260054F7F0221213771217F9907FD6E030E7BB
:101836000A7F057E00121860121893120ACE220340
:1018460035800000032E810000C185C181C108C119
:1018560000C106012200012400008E178F18E5182A
:101866001518AE17700215174E60081217E81217F2
:10187600E880EB22E5152404F582E43514F583E0CF
:1018860004FF4410907FD7F0EF4430F022907FD6CB
:10189600E04401F07F0D7E00121860907FD6E05480
:1018A600FEF022E5112402907841F090C000E0FF9E
:1018B60022E5112403907841F090C000E0FF22E574
:1018C600112404907841F090C000E0FF22E5112435
:1018D60005907841F090C000E0FF22E511240690C3
:1018E6007841F090C000E0FF22907841E511F09039
:1018F600C000E0FF2253D8EF320012011001FFFFB3
:10190600FF40CD062A01000001020004090274000E
:10191600010100A032090400000EFF0000000705C7
:10192600010240000007050202400000070503020D
:1019360040000007050402400000070505024000BC
:1019460000070506024000000705070240000007E1
:101956000581024000010705820240000107058358
:101966000240000107058402400001070585024088
:1019760000010705860240000107058702400001B5
:101986000403090448034B006500790073007000E6
:1019960061006E002C0020006100200064006900D8
:1019A60076006900730069006F006E0020006F000A
:1019B6006600200049006E006E006F00530079003B
:1019C6007300200049006E0063002E0024034B00C4
:1019D600650079007300700061006E0020005500FC
:1019E600530041002D003400390057004C004300DD
:1019F60022035500530041002D003600350020001B
:101A060032003000300033006A0061006E0033009F
:101A1600310000000000000000000000000000008F
:101A260000000000000000000000000000000000B0
:101A360000000000000000000000000000000000A0
:101A46000000000000000000000000000000000090
:101A56000000000000000000000000000000000080
:101A66000000000000000000000000000000000070
:101A76000000000000000000000000000000000060
:101A86000000000000000000000000000000000050
:101A96000000000000000000000000000000000040
:101AA6000000000000000000000000000000000030
:101AB6000000000000000000000000000000000020
:101AC6000000000000000000000000000000000010
:101AD6000000000000000000000000000000000000
:101AE60000000000000000000000000000000000F0
:101AF6000000000000000000000002177900021B31
:101B06000400021727000217A000021B1000021B88
:051B1600140002157827
:017F920001ED
:00000001FF
