:0300000002109556
:100003009078417403F090C00074BFF0907841740D
:1000130001F090C000EFF09078417403F0E51524EF
:1000230037F582E43514F583E0547F90C000F02265
:0F0033000218FB9078417401F090C000E0FF22AA
:03004300021B009D
:10004600E4FF74402FF582E4347BF583E0FEE5158A
:100056002404FDE43514FAA9057B01EF7C0029F997
:10006600EC3AFAEE1211F10FBF22D7E5152405F589
:1000760082E43514F583E07003020134E5152409A2
:10008600F582E43514F583E0700EE515240AF58251
:10009600E43514F583E060187F01E4FD121647E5A8
:1000A600152431F582E43514F583E054CFF0804110
:1000B600E5152406F582E43514F583E0FF1216767D
:1000C600E5152407F582E43514F583E0FF120003F5
:1000D6007F01E5152408F582E43514F583E0FD1269
:1000E6001647E5152431F582E43514F583E04430EE
:1000F600F0E5152439F582E43514F583E04480F003
:100106009078417404F0E5152439F582E43514F548
:1001160083E090C000F09078417402F0E515243633
:10012600F582E43514F583E0440690C000F0E51549
:10013600240BF582E43514F583E06032E515240CD2
:10014600F582E43514F583E0543FFFE5152437F5D1
:1001560082E43514F583EFF09078417403F0E515E9
:100166002437F582E43514F583E090C000F0E515F8
:10017600240DF582E43514F583E0700302024FE5A1
:10018600152417F582E43514F583E06011E515248E
:1001960032F582E43514F583E04404F0800FE5156A
:1001A6002432F582E43514F583E054FBF0E4FFE5F0
:1001B600152432F582E43514F583E0FD121647E581
:1001C60015240EF582E43514F583E06011E5152457
:1001D60033F582E43514F583E04480F0800FE515AD
:1001E6002433F582E43514F583E0547FF0E51524D5
:1001F60033F582E43514F583E054FCF0E515240F5D
:10020600F582E43514F583E0602FE5152433F58295
:10021600E43514F583E04402F0E5152410F582E494
:100226003514F583E0FF1215E7E5152411F582E490
:100236003514F583E0FF121617E5152433F582E42D
:100246003514F583E0FF1215B7E5152414F582E49D
:100256003514F583E06044E5152415F582E435147C
:10026600F583E06011E5152439F582E43514F5834C
:10027600E04401F0800FE5152439F582E43514F5E4
:1002860083E054FEF09078417404F0E5152439F5C6
:1002960082E43514F583E090C000F0E5152412F5EC
:1002A60082E43514F583E06044E5152413F582E411
:1002B6003514F583E06011E5152439F582E435142B
:1002C600F583E04402F0800FE5152439F582E43524
:1002D60014F583E054FDF09078417404F0E515249C
:1002E60039F582E43514F583E090C000F0E5152475
:1002F60016F582E43514F583E0FFE5152435F5821D
:10030600E43514F583EFF0E5152417F582E435148A
:10031600F583E030E011E5152431F582E43514F576
:1003260083E04440F0800FE5152431F582E435146E
:10033600F583E054BFF0E5152418F582E43514F58D
:1003460083E0FFE515243BF582E43514F583EFF0F1
:10035600E5152419F582E43514F583E06011E515F9
:100366002439F582E43514F583E04410F0800FE576
:10037600152439F582E43514F583E054EFF09078CE
:10038600417404F0E5152439F582E43514F583E06B
:1003960090C000F0E515241AF582E43514F583E0E3
:1003A600606BE5152437F582E43514F583E054BF18
:1003B600F09078417403F0E5152437F582E435149E
:1003C600F583E0547F90C000F09078417401F012FC
:1003D6000036EF54FE90C000F0E5152432F582E4B5
:1003E6003514F583E054FDFFF0FDE4FF121647E5F2
:1003F60015242CF582E43514F583E4F0E515242B59
:10040600F582E43514F583E4F0E5164213E5152488
:100416001BF582E43514F583E0700EE5152425F509
:1004260082E43514F583E06028E5152432F582E48C
:100436003514F583E04402FFF0FDE4FF121647E5AC
:1004460015242BF582E43514F5837401F0E5164284
:1004560013E515241CF582E43514F583E0FF700ED0
:10046600E5152425F582E43514F583E0602A9078B5
:10047600417402F0E5152436F582E43514F583E07F
:10048600440490C000F0EF600FE5152431F582E4D6
:100496003514F583E04404F0E515241DF582E435B2
:1004A60014F583E06027E5152437F582E43514F565
:1004B60083E04440F09078417403F0E5152437F565
:1004C60082E43514F583E0547F90C000F0E51524EE
:1004D6001EF582E43514F583E06028E5152432F52F
:1004E60082E43514F583E054FEFFF0FDE4FF1216B6
:1004F60047E515242DF582E43514F5837401F0E5FE
:10050600164213E515241FF582E43514F583E070D1
:100516000EE5152425F582E43514F583E06027E51C
:10052600152432F582E43514F583E04401FFF0FD2D
:10053600E4FF121647E515242DF582E43514F583FC
:10054600E4F0E5164213E5152420F582E43514F5AA
:1005560083E0700EE5152425F582E43514F583E075
:1005660060189078417402F0E5152436F582E4357A
:1005760014F583E0440290C000F0E5152421F582CD
:10058600E43514F583E0600FE5152431F582E43592
:1005960014F583E04402F0E5152422F582E43514CF
:1005A600F583E0601FE515242EF582E43514F58306
:1005B6007401F0E515243AF582E43514F583E4F088
:1005C600E5164213E5152423F582E43514F583E098
:1005D6006003121885E5152424F582E43514F583A5
:1005E600E0601BE5152431F582E43514F583E0441B
:1005F60008F0907F98E0FFE516F4FEEF5EF0E51553
:100606002425F582E43514F583E06016E5152431DA
:10061600F582E43514F583E054F7F0907F98E045D1
:1006260016F022907FE9E012120307830007F70114
:10063600086303064C0607740807680907500A078B
:100646005F0B000008B2907FEBE024FE601C147084
:10065600030206FE240260030207467419907FD443
:10066600F07400907FD5F00208B9907FEAE0047537
:100676008217758319F0907FEAE030E0047F0380EB
:10068600027F02758282758319EFF075826D75831C
:1006960019F0758266758319F075825F758319F096
:1006A600758258758319F0907FEAE030E1047F6423
:1006B60080027F3275821A758319EFF0907FEFE022
:1006C600FE907FEEE07C002400F519EC3EF51875EF
:1006D6003319753412758214758319E0752700F580
:1006E60028D3E5289519E527951840068518278506
:1006F60019281213120208B9907FEAE0FF12142B90
:10070600EA496032907FEEE0751800F519AE02AF47
:10071600018E338F348F828E83E0FEA3E08E27F521
:1007260028D39519E5279518400685182785192891
:100736001213120208B9907FB4E04401F00208B91E
:10074600907FB4E04401F00208B9907F00E525F0FF
:10075600907FB57401F00208B9907FEAE0F52502B2
:1007660008B9907FEAE0F522120AB80208B9907F2C
:1007760000E522F0907FB57401F00208B9907FE899
:10078600E0247F60241460312402705BA200E4330D
:10079600FF25E0FFA206E4334F907F00F0E4A3F0CC
:1007A600907FB57402F00208B9E4907F00F0A3F0E0
:1007B600907FB57402F00208B9907FECE0F45480A3
:1007C600FFC4540FFFE054072F25E024B4F582E45C
:1007D600347FF583E054FD907F00F0E4A3F0907F32
:1007E600B57402F00208B9907FB4E04401F0020843
:1007F600B9907FE8E024FE601D240260030208B978
:10080600907FEAE0B40105C2000208B9907FB4E027
:100816004401F00208B9907FEAE07038907FECE07E
:10082600F45480FFC4540FFFE054072F25E024B48E
:10083600F582E4347FF583E4F0907FECE05480FFAA
:10084600131313541FFFE054072F907FD7F0E04493
:1008560020F0805F907FB4E04401F08056907FE8FE
:10086600E024FE60182402704A907FEAE0B4010496
:10087600D200803F907FB4E04401F08036907FEA5A
:10088600E07020907FECE0F45480FFC4540FFFE04A
:1008960054072F25E024B4F582E4347FF5837401F0
:1008A600F08010907FB4E04401F08007907FB4E0C0
:1008B6004401F0907FB4E04402F022E511540F7039
:1008C600030209B21216A5EF20E175121703EF1401
:1008D600F5191218CCEF2519FFE433FEC3EF948007
:1008E600EE648094805059851582851483E0FEA3BA
:1008F600E0FFF5828E83E030E011E5152431F582C4
:10090600E43514F583E04480F0800FE5152431F5D5
:1009160082E43514F583E0547FF0E5152431F58241
:10092600E43514F583E020E212E519600EF523EFB5
:100936002401F52DE43EF52C1214ADE4FF1214E368
:10094600E5152431F582E43514F583E030E75D12D0
:1009560018CCE515243BF582E43514F583E0FEEF6B
:10096600C39E5048E515242FF582E43514F58374AB
:1009760001F0E5152431F582E43514F583E0547B66
:10098600F0E515243AF582E43514F583E4F0E5162E
:100996004213907FC2E030E110E5152426F582E48B
:1009A6003514F583E0F52480031212A11216D4EF54
:1009B60030E103020AB71217D28F191218D8E515BB
:1009C6002438F582E43514F583EFF0E5152435F582
:1009D60082E43514F583E0FFE519C39F5028121809
:1009E600B4EF30E021E5152438F582E43514F583BB
:1009F600E020E712E5152431F582E43514F583E0AD
:100A060020E103020AB7E5152431F582E43514F531
:100A160083E054FDF0E5197003020AB7B4800FE5D0
:100A2600152438F582E43514F583E04402F0E51523
:100A36002438F582E43514F583E0FF30E729E5191B
:100A4600D3942040037519208519238515828514B2
:100A560083A3A3E0FCA3E08C2CF52D1213DDE5198E
:100A660025E0FF12151922E519D3943F40037519A5
:100A76003F851923E5152438F582E43514F583E01E
:100A8600FF851582851483A3A3E0FCA3E0F5828C81
:100A960083EFF0851582851483A3A3E0FEA3E024EB
:100AA60001F52DE43EF52C12146CE51904FF121520
:100AB6001922E4907F93F0907F9C74F0F0907F96DB
:100AC600F0E4907F94F090784A04F0F58E907F954C
:100AD60074C0F0907F9E743FF0907F98741FF090E2
:100AE600784374FFF0E4907841F0907FDF749FF0D4
:100AF600907FDEF0907F92E04402F07E7B7FC075AF
:100B0600147B7515C0907F9674EFF0751601120F61
:100B1600127E7B7FC075147B7515C0907F9674EF2F
:100B2600F0751601E5152426F582E43514F583E4FF
:100B3600F07E7E7F40851582851483747EF0A374D3
:100B460040F07E7E7F80851582851483A3A3747E04
:100B5600F0A37480F07E7C7F0075147C7515009080
:100B66007F9674DFF0751602120F127E7C7F007579
:100B7600147C751500907F9674DFF0751602E515E6
:100B86002426F582E43514F5837401F07E7D7FC05A
:100B9600851582851483747DF0A374C0F07E7E7FF4
:100BA60000851582851483A3A3747EF0A37400F0D8
:100BB6007E7C7F4075147C751540907F9674BFF0DF
:100BC600751604120F127E7C7F4075147C751540D5
:100BD600907F9674BFF0751604E5152426F582E419
:100BE6003514F5837402F07E7D7F40851582851469
:100BF60083747DF0A37440F07E7D7F8085158285A9
:100C06001483A3A3747DF0A37480F07E7C7F80752B
:100C1600147C751580907F96747FF0751608120FF8
:100C2600127E7C7F8075147C751580907F96747F0C
:100C3600F0751608E5152426F582E43514F5837457
:100C460003F07E7C7FC0851582851483747CF0A3B7
:100C560074C0F07E7D7F00851582851483A3A374FE
:100C66007DF0A37400F0C20AC209D20222E5100484
:100C76005403F51014601F1460311460432403708C
:100C8600527E7B7FC075147B7515C0907F9674EF7E
:100C9600F0751601803D7E7C7F0075147C7515000D
:100CA600907F9674DFF075160280287E7C7F4075F3
:100CB600147C751540907F9674BFF07516048013EA
:100CC6007E7C7F8075147C751580907F96747FF08E
:100CD600751608E53255167003020E11E516F4FF77
:100CE6005232E526547FFE700FE52A551660249091
:100CF6007F98E04516F0801BBE2018E5152431F5D7
:100D060082E43514F583E030E309E4F52A907F9810
:100D1600E05FF0E515243AF582E43514F583E060EA
:100D260003E014F0E5152434F582E43514F583E088
:100D36006003E014F0E06003020E11740AF0120082
:100D460036EF5401FFF519E515242CF582E4351428
:100D5600F583E06F6007E519F0E51642131218E413
:100D66008F19E5152427F582E43514F583E0FFE5B0
:100D7600195410FE6F6006EEF0E5164213E51524D1
:100D860028F582E43514F583E0FFE5195480FE6FFB
:100D96006006EEF0E5164213E5152429F582E435E2
:100DA60014F583E0FFE5195420FE6F6015EEF0E5BB
:100DB600152431F582E43514F583E030E404E516B4
:100DC6004213E5125516FFF519E515242AF582E4B6
:100DD6003514F583E06F6016E519F0E5152431F555
:100DE60082E43514F583E030E504E5164213E51791
:100DF6005516FFF519E5152430F582E43514F5830B
:100E0600E06F6007E519F0E5164213223009030288
:100E16000F11E52414602A14604114605814606FA1
:100E260024046003020ECF7E7B7FC075147B75158C
:100E3600C0907F9674EFF07516011212A175240109
:100E4600227E7C7F0075147C751500907F9674DF7A
:100E5600F07516021212A1752402227E7C7F40755F
:100E6600147C751540907F9674BFF07516041212A7
:100E7600A1752403227E7C7F8075147C7515809075
:100E86007F96747FF07516081212A175240422301D
:100E96000433C2045313DFE4F5197E007B00742E7D
:100EA6002519F9EE3400FA1211ABFF74802519F5F5
:100EB60082E4347BF583EFF00519E519B403DB9082
:100EC6007FC37403F075240522E536603BD5360AE8
:100ED6005313EF300A04D209C20AE4F5197E007BE7
:100EE6000074352519F9EE3400FA1211ABFF74803F
:100EF6002519F582E4347BF583EFF00519E519B47D
:100F060003DB907FC37403F0E4F52422E4F51A7E34
:100F1600007B01E515251AF9EE3514FAE41211F1F4
:100F2600051AE51AB43CE8E5152435F582E43514CE
:100F3600F5837401F09078417403F0E5152437F5D4
:100F460082E43514F5837403F090C000F07F0CE45E
:100F5600FD1216477F10E5152433F582E43514F5A6
:100F660083EFF01215B79078417402F07F01E51512
:100F76002436F582E43514F583EFF0440690C0007C
:100F8600F09078417404F0E5152439F582E43514BF
:100F9600F5837480F090C000F00FE4FD121647E46C
:100FA600FF7EA3E5152432F582E43514F583EEF0D1
:100FB600FD1216479078417401F090C000E4F07F6E
:100FC600057D7F1216477F0112154F7F037D07129D
:100FD60016472253133F907BF1E030E3167E7B7F6A
:100FE600C075147B7515C0907F9674EFF075160169
:100FF6001208C1907C31E030E3167E7C7F007514C8
:101006007C751500907F9674DFF07516021208C184
:10101600907C71E030E3167E7C7F4075147C7515FC
:1010260040907F9674BFF07516041208C1907CB18B
:10103600E030E3167E7C7F8075147C751580907F8A
:1010460096747FF07516081208C10511E511540F44
:10105600F518701F907841E054F7F0907F99E0F50D
:1010660017907841E04408F0907F99E0F4F5121269
:10107600112122E518B40104120C7322907FC2E0FC
:1010860020E108E5136004120E1222120C73227876
:101096007FE4F6D8FD7581370210DC021229E4934D
:1010A600A3F8E493A34003F68001F208DFF4802955
:1010B600E493A3F85407240CC8C333C4540F442044
:1010C600C8834004F456800146F6DFE4800B010233
:1010D600040810204080901850E47E019360BCA361
:1010E600FF543F30E509541FFEE493A360010ECF81
:1010F60054C025E060A840B8E493A3FAE493A3F8AB
:10110600E493A3C8C582C8CAC583CAF0A3C8C5826A
:10111600C8CAC583CADFE9DEE780BE907FD2E03069
:10112600E1030211AAC209907B40E0146026146014
:101136003B14605024836064248070637E7B7FC090
:1011460075147B7515C0907F9674EFF075160112B5
:101156000046804B7E7C7F0075147C751500907F61
:101166009674DFF075160212004680337E7C7F404F
:1011760075147C751540907F9674BFF07516041231
:101186000046801B7E7C7F8075147C751580907F61
:1011960096747FF0751608120046800312175CE4F9
:1011A600907FD3F022BB010689828A83E022500217
:1011B600E722BBFE02E32289828A83E49322BB01F3
:1011C6000CE58229F582E5833AF583E0225006E9AB
:1011D6002582F8E622BBFE06E92582F8E222E582B0
:1011E60029F582E5833AF583E49322BB01068982D9
:1011F6008A83F0225002F722BBFE01F322D083D06D
:1012060082F8E4937012740193700DA3A393F8749B
:101216000193F5828883E4737402936860EFA3A355
:10122600A380DF907FAEE0FFD39200E433FEEF4E63
:10123600F0D2E843D820907FDE7401F0907FDFF093
:10124600907FAB74FFF0907FA9F0907FAAF0539146
:10125600EF907FAF7401F0907FAE740DF0D2AFD2F5
:101266000B121814C201E4F52BF531C207C2027540
:1012760029F0907FD8E06526600675320FE0F526E6
:10128600300203120FD9300107C20112062980E28B
:101296003008DFC20812183580D822E513551660CB
:1012A6006AE515243AF582E43514F583E0705CE5C9
:1012B60016F45213E5152426FFE43514FEE4FD0F5B
:1012C600EFAA0670010E14F5828A83E0FC74802D65
:1012D600F582E4347BF583ECF00DBD0BE2907FC321
:1012E600740BF0E515243AF582E43514F583741091
:1012F600F0E515242EF582E43514F583E4F0E515C2
:10130600242FF582E43514F583E4F022E5284527F9
:101316006057AE27AF28D3EF9440EE940040047E8A
:10132600007F40C3E5289FF528E5279EF527E4FDC5
:10133600EDC39FE49E501F853482853383E0FC74A1
:10134600002DF582E4347FF583ECF00D0534E534A9
:101356007002053380DA907FA97401F0907FACE0CB
:101366004401F0907FB5EFF022907FACE054FEF0A0
:10137600E4907FB5F022E4907F93F0907F9C74F028
:10138600F0907F96F0E490784AF0907F94F0907F0A
:101396009D74FFF0E4907F97F0300007E52954F044
:1013A600FF80027F00EF4408907841F0E4907F9838
:1013B600F0907F95F0907F9E74FFF0E4907F98F018
:1013C600907F93F0907F9C74F0F0E4907F96F0907D
:1013D6007F92E054FDF0228F1A052DE52DAE2C707C
:1013E60002052C14F5828E83E51AF01218F0052DED
:1013F600E52DAC2C7002052C14F5828C83EFF015CC
:1014060023E523601FE5152438F582E43514F583BA
:10141600C083C082E0FE1218D88F1AEE4FD082D059
:1014260083F080B5228F1AE4F51B751CFF751D1914
:10143600751E86AB1CAA1DA91E9000011211C4B40C
:10144600031DAF1B051BEFB51A01221211AB7E005F
:1014560029FFEE3AA907751CFFF51D891E80D47B6E
:10146600007A00790022E4907841F090784F74C0B9
:10147600F0E4907850F0E52C907851F0AE2CE52D04
:10148600907852F0907854E523F09078577404F0F1
:10149600907FE2E04410F0E054F7F0E4907855F0E5
:1014A600907855E060FA22E4907841F0E52C907847
:1014B6004FF0AE2CE52D907850F090785174C0F036
:1014C600E4907852F0907854E523F09078577404BD
:1014D600F0E4907855F0907855E060FA22E515240E
:1014E60004F582E43514F583E014600F14601314D8
:1014F60060178000907FC7EFF08013907FC9EFF0F0
:10150600800C907FCBEFF08005907FCDEFF0E51655
:10151600422A22E5152404F582E43514F583E01405
:10152600600F1460131460178000907FB7EFF0808F
:1015360013907FB9EFF0800C907FBBEFF0800590A1
:101546007FBDEFF0E516422A22AE07E4FFE515243B
:1015560032F582E43514F583E0547FFD1216479088
:1015660078417401F090C000EEF0E4E5152432F500
:1015760082E43514F583E04480FD12164722C0E06C
:10158600C0F0C083C082C085C084C086758600C096
:10159600D075D0085391EF907FA97401F012131201
:1015A600D0D0D086D084D085D082D083D0F0D0E081
:1015B600329078417403F090C00074BFF090784187
:1015C6007402F090C000EFF09078417403F0E515D6
:1015D6002437F582E43514F583E0547F90C000F09B
:1015E600229078417403F090C00074BFF090784167
:1015F6007404F090C000EFF09078417403F0E515A4
:101606002437F582E43514F583E0547F90C000F06A
:10161600229078417403F090C00074BFF090784136
:101626007406F090C000EFF09078417403F0E51571
:101636002437F582E43514F583E0547F90C000F03A
:10164600229078417403F0E5152437F582E43514C9
:10165600F583E0547F90C000F09078417407F090D5
:10166600C000EFF09078417405F090C000EDF022D4
:101676009078417403F090C00074BFF0E490784114
:10168600F090C000EFF09078417403F0E515243730
:10169600F582E43514F583E0547F90C000F022E52E
:1016A600152404F582E43514F583E014600E146005
:1016B600111460148000907FC6E0FF22907FC8E07E
:1016C600FF22907FCAE0FF22907FCCE0FF22E51543
:1016D6002404F582E43514F583E014600E146011D9
:1016E6001460148000907FB6E0FF22907FB8E0FF80
:1016F60022907FBAE0FF22907FBCE0FF22E515240E
:1017060004F582E43514F583E014600E14601114B8
:1017160060148000907FC7E0FF22907FC9E0FF221F
:10172600907FCBE0FF22907FCDE0FF22C0E0C08318
:10173600C082C085C084C086758600907FC4E4F0F0
:101746005391EF907FAB7404F0D086D084D085D0CF
:1017560082D083D0E032907B41E0F536431310A36C
:10176600E06009907FD77417F07437F0907B43E000
:10177600F537A3E054F0F529E06002D20A22C0E072
:10178600C083C082C085C084C086758600D20153DE
:1017960091EF907FAB7401F0D086D084D085D08253
:1017A600D083D0E032C0E0C083C082C085C084C090
:1017B60086758600D2085391EF907FAB7408F0D0FF
:1017C60086D084D085D082D083D0E0321218C0AEC5
:1017D600071218C0AD07EE6D60101218C0AE07EE06
:1017E6006D60071218C0AD0780ECAF06227400F5D5
:1017F6008690FDA57C05A3E582458370F922907F3E
:10180600D6E04480F0438701000000000022907F6C
:10181600D6E04404F0E04408F0300B04E04402F063
:101826007FF47E0112186B907FD6E054F7F02212F7
:10183600137C121804907FD6E030E70A7F057E00FD
:1018460012186B12189E120AB82203358000000384
:101856002E810000C185C181C108C100C1060122D7
:1018660000012400008E188F19E5191519AE18709D
:101876000215184E60081217F31217F380EB22E5D3
:10188600152404F582E43514F583E004FF44109032
:101896007FD7F0EF4430F022907FD6E04401F07F0E
:1018A6000D7E0012186B907FD6E054FEF0229078E1
:1018B600417402F090C000E0FF229078417403F07A
:1018C60090C000E0FF229078417404F090C000E0E0
:1018D600FF229078417405F090C000E0FF229078D6
:1018E600417406F090C000E0FF22E4907841F09049
:1018F600C000E0FF2253D8EF320012011001FF00B2
:101906000040CD060A01000001020004090274002D
:10191600010100A032090400000EFF0000000705C7
:10192600010240000007050202400000070503020D
:1019360040000007050402400000070505024000BC
:1019460000070506024000000705070240000007E1
:101956000581024000010705820240000107058358
:101966000240000107058402400001070585024088
:1019760000010705860240000107058702400001B5
:101986000403090448034B006500790073007000E6
:1019960061006E002C0020006100200064006900D8
:1019A60076006900730069006F006E0020006F000A
:1019B6006600200049006E006E006F00530079003B
:1019C6007300200049006E0063002E0036035500A8
:1019D60053004200200034002D0070006F0072009A
:1019E60074002000530065007200690061006C00FD
:1019F6002000410064006100700074006500720000
:101A060000000000000000000000000000000000D0
:101A160000000000000000000000000000000000C0
:101A260000000000000000000000000000000000B0
:101A360000000000000000000000000000000000A0
:101A46000000000000000000000000000000000090
:101A56000000000000000000000000000000000080
:101A66000000000000000000000000000000000070
:101A76000000000000000000000000000000000060
:101A86000000000000000000000000000000000050
:101A96000000000000000000000000000000000040
:101AA6000000000000000000000000000000000030
:101AB6000000000000000000000000000000000020
:101AC6000000000000000000000000000000000010
:101AD6000000000000000000000000000000000000
:101AE60000000000000000000000000000000000F0
:101AF6000000000000000000000002178400021B26
:101B06000400021732000217AB00021B1000021B72
:051B160014000215841B
:00000001FF
