:06000000024356024BCD45
:03000B00024BD2D3
:03001300024B920B
:03001B00024BD5C0
:03002300021B3984
:03002B000243E2AB
:03003300023FF396
:03003B00024BC0B5
:0300430002470071
:03004B00023FFC75
:030053000237FA77
:03005B00024BC78E
:030063000246FC56
:1005000012011001000000406A080101000101020F
:1005100000010902B80103010080A00904000000E5
:10052000010100000A2401000156000201020C240E
:100530000201010100060000000015240605010269
:10054000030000000000000000000000000000099F
:1005500024030204030005000C240203010200022C
:10056000000000000D240606030203000000000046
:100570000009240304010100060009040100000130
:100580000200000904010102010200000724010128
:10059000000100112402010202100344AC0080BBE0
:1005A0000000770109050A05840101008F07250174
:1005B0000100000009058F01030001060009040184
:1005C000020201020000072401010001000E2402C2
:1005D000010602100244AC0080BB0009050A054C6C
:1005E0000201008F0725010100000009058F0103AA
:1005F00000010600090401030201020000072401B2
:10060000010001000E2402010603180244AC008020
:10061000BB0009050A05720301008F0725010100CF
:10062000000009058F01030001060009040104020E
:1006300001020000072401010001000B2402010255
:1006400003180100770109050A05460201008F071A
:1006500025010100000009058F01030001060009C2
:10066000040200000102000009040201010102006D
:1006700000072401040001001124020102021003FA
:1006800044AC0080BB0000770109058C05840101A2
:100690000000072501010200000904020201010215
:1006A00000000724010400010011240201020318C4
:1006B0000344AC0080BB0000770109058C054602AD
:1006C00001000007250101020000050C0901A1013C
:1006D000050C09E9050C09EA1500250195027501CB
:1006E0008142950175068101050C0900050C090080
:1006F0001500250195027501910695017506910376
:10070000C004030904180345004D00410047004997
:10071000004300200047006D00620048001E0345B2
:10072000006D006100670069006300200045004D16
:10073000004900200032007C0036002A0343006F8D
:10074000006E006600690067007500720061007449
:100750000069006F006E0020005300740072006991
:10076000006E006700220349006E0074006500728D
:100770000066006100630065002000530074007291
:100780000069006E00670000007400F58690FDA50A
:100790007C05A3E582458370F922907FD6E04480F2
:1007A000F0438701000000000022C0D0C0E08FE0CD
:1007B000C0E08EE0C0E08DE0C0E08CE0C0E0C08230
:1007C000C0830586C084C085E518B402030207D93A
:1007D000B401030207DE0207FA7D01020816E519DB
:1007E00014F519C3B513030207F55009B400EA75EF
:1007F000190A0207D97D00020816E51914F519C374
:10080000B514030208115009B400CE75190A020785
:10081000D97D020208167C05907F99E05440DC03E4
:10082000020843B4001D907FE3747BF0A37480F052
:10083000907FE27440F0907FE5F0907FE27400F0EA
:100840000208180586907FE27480F0907965E0B424
:10085000010302089EB40203020896B403030208CF
:100860008EB40403020886B4050302087EB40603AE
:100870000208760208F40586907F6C0208E9058676
:10088000907F6C0208DD0586907F6C0208CF05869C
:10089000907F6C0208C00586907F6C0208B20586C6
:1008A000907F6CF000F000F000F00DEDB42DF4023C
:1008B00008F4F0F0F0F0F0F00DEDB42DF50208F4CE
:1008C000F000F000F000F00DEDB431F40208F4F0A7
:1008D000F0F0F0F0F00DEDB431F50208F4F0F0F0C6
:1008E000F00DEDB461F70208F4F0F0F0F0F0F00D67
:1008F000EDB461F5907FE27400F0D085D084058678
:10090000D083D082D0E0FCD0E0FDD0E0FED0E0FF8C
:10091000D0E0D0D022C0D0C0E0C082C083907F6F32
:10092000E50CF0E50DF0E50EF0D083D082D0E0D0FC
:10093000D022C0D0C0E08FE0C0E08EE0C0E0C08236
:10094000C0830586C084C085907970E0FFBF000336
:10095000020AB8907F96E04480F0907FE27480F0C5
:10096000907F62E00586907FE27400F0907F96E0D1
:10097000547FF0907FE27480F0907988E0B40103B6
:100980000209BEB402030209C3B403030209ACB4F2
:10099000040302099A0586020AB2EF5403FEEF032C
:1009A00003543FFF907F6305860209C9EF5403FE9D
:1009B000EF0303543FFF907F630586020A360586E6
:1009C000020AA50586020A8EE0E0E0E0E0E0058686
:1009D000E0E0E00586E0E0E0E0E0E00586E0E0E081
:1009E0000586E0E0E0E0E0E00586E0E0E00586E0A6
:1009F000E0E0E0E0E00586E0E0E00586DFCAEEB496
:100A00000003020AB2B40103020A25E0E0E0E0E0DC
:100A1000E00586E0E0E00586E0E0E0E0E0E0058675
:100A2000E0E0E00586E0E0E0E0E0E00586E0E0E030
:100A30000586020AB2E0E0E0E00586E0E00586E037
:100A4000E0E0E00586E0E00586E0E0E0E00586E045
:100A5000E00586E0E0E0E00586E0E00586DFD6EE32
:100A6000B40003020AB2B40103020A80E0E0E0E04D
:100A70000586E0E00586E0E0E0E00586E0E005864A
:100A8000E0E0E0E00586E0E00586020AB2E0E0E0B2
:100A9000E0E0E0E0E0E0E0E0E0E0E0E0E0E0E0DF57
:100AA000EC020AB2E0E0E0E0E0E0E0E0E0E0E0E01C
:100AB000DFF2907FE27400F0D085D0840586D08389
:100AC000D082D0E0FED0E0FFD0E0D0D022C082C003
:100AD00083C0E0E8C0E078D1E814F870FBD0E0F81B
:100AE000D0E0D083D08222C0D0C0E08FE0C0E08EC2
:100AF000E0C0E08DE0C0E08CE0C0E0758600C08220
:100B0000C0830586C084C0857E0090798EE0B400E5
:100B1000167401F09006CAA3A3A3A3A3A3A3E0FFA6
:100B200090798DF0020B3990798DE0FF90798FE00C
:100B3000FD907990E0FC020B469006CA0586907FF6
:100B4000000586020B518D848C850586907F0005FB
:100B500086E0A30586F0A30EEEB44003020B6C05FD
:100B600086DFEE90798E7400F0020B820586AD84EC
:100B7000AC8590798FEDF0907990ECF090798D1FA5
:100B8000EFF0907FB5EEF0D085D0840586D083D08D
:100B900082D0E0FCD0E0FDD0E0FED0E0FFD0E0D09D
:100BA000D022C0D0C0E0C082C083907FAEE054E0CD
:100BB000F0907F96E0440854FBF0907F97E054BF9C
:100BC000F0907FE3747BF0907FE47440F09079784C
:100BD000E0907B40F0907FE27448F0907FE5E090F9
:100BE0007FE27400F0907F96E054F74404F0907F29
:100BF000E3747BF0907FE47440F0907979E0907B2F
:100C000040F0907FE27448F0907FE5E0907FE274DE
:100C100000F0907F96E054F3F0907FAEE0441FF038
:100C2000D083D082D0E0D0D022C0D0C0E0C083C07A
:100C30008290792FE064FFC32401F0D082D083D06A
:100C4000E0D0D022BB010689828A83E0225002E7ED
:100C500022BBFE02E32289828A83E49322BB010C39
:100C6000E58229F582E5833AF583E0225006E925FD
:100C700082F8E622BBFE06E92582F8E222E5822917
:100C8000F582E5833AF583E49322BB010689828AE3
:100C900083F0225002F722BBFE01F322F8BB010DC4
:100CA000E58229F582E5833AF583E8F0225006E9EA
:100CB0002582C8F622BBFE05E92582C8F222C2D5EC
:100CC000EC30E709B2D5E4C39DFDE49CFCEE30E7CF
:100CD00015B2D5E4C39FFFE49EFE120E40C3E49D0F
:100CE000FDE49CFC8003120E4030D507C3E49FFF57
:100CF000E49EFE22C5F0F8A3E028F0C5F0F8E582F6
:100D0000158270021583E038F022BB0110E58229BC
:100D1000F582E5833AF583E0F5F0A3E0225009E996
:100D20002582F886F008E622BBFE0AE92582F8E271
:100D3000F5F008E222E5832AF583E993F5F0A3E9CB
:100D40009322E88FF0A4CC8BF0A42CFCE98EF0A4C5
:100D50002CFC8AF0EDA42CFCEA8EF0A4CDA8F08B3C
:100D6000F0A42DCC3825F0FDE98FF0A42CCD35F082
:100D7000FCEB8EF0A4FEA9F0EB8FF0A4CFC5F02E13
:100D8000CD39FEE43CFCEAA42DCE35F0FDE43CFC7C
:100D900022EB9FF5F0EA9E42F0E99D42F0E89C4587
:100DA000F022BB010DE58229F582E5833AF5830245
:100DB0000EA15007E92582F8020E95BBFE07E92532
:100DC00082F8020EADE58229F582E5833AF58302C9
:100DD0000EB9BB010DE58229F582E5833AF5830260
:100DE0000ED55007E92582F8020EC9BBFE07E9259A
:100DF00082F8020EE122BB010DE58229F582E5832E
:100E00003AF583020F065007E92582F8020EEDBB82
:100E1000FE07E92582F8020F3722D083D082F8E45A
:100E2000937012740193700DA3A393F8740193F55A
:100E3000828883E4737402936860EFA3A3A380DFC6
:100E4000BC000BBE0029EF8DF084FFADF022E4CC96
:100E5000F875F008EF2FFFEE33FEEC33FCEE9DEC5F
:100E6000984005FCEE9DFE0FD5F0E9E4CEFD22EDA5
:100E7000F8F5F0EE8420D21CFEADF075F008EF2FEF
:100E8000FFED33FD4007985006D5F0F222C398FDE0
:100E90000FD5F0EA22E6FC08E6FD08E6FE08E6FFCC
:100EA00022E0FCA3E0FDA3E0FEA3E0FF22E2FC08B9
:100EB000E2FD08E2FE08E2FF22E493FCA3E493FDD6
:100EC000A3E493FEA3E493FF22ECF608EDF608EE0C
:100ED000F608EFF622ECF0A3EDF0A3EEF0A3EFF0AE
:100EE00022ECF208EDF208EEF208EFF222D083D005
:100EF00082E493F608740193F608740293F608747A
:100F00000393F6740473A8828583F0D083D0821291
:100F10000F1D120F1D120F1D120F1DE473E493A37A
:100F2000C583C5F0C583C8C582C8F0A3C583C5F015
:100F3000C583C8C582C822D083D082E493F20874E6
:100F40000193F208740293F208740393F274047329
:100F5000C2AFD22C907F937430F0907F9C74BFF01E
:100F6000907F96E05430F0907F947430F0907F9DA5
:100F700074CFF0907F9774A0F0907F9574CCF0E4DC
:100F8000907F9EF0C22DC22AC22BC22E907974048B
:100F9000F0122E941249E2124BE612320D123B0D62
:100FA0001241FD123E99E51F7018751F011217FFBF
:100FB000122FFF1249C8124BD8124BDA12496F1286
:100FC0001B4012398D907FAFE04401F0907FAEE07E
:100FD000441FF0907FAC74FFF0907FADF0907FDE07
:100FE000F0907FDFF0907FABF0907FA9F0907FAA28
:100FF000F05391EF43D820D2E843D82043A8802271
:10100000907963E014604414700221D0147002419E
:10101000D914700261D7240460028156E490797873
:10102000F090797BE0907979F04401F054FDF090F4
:10103000797BF0E4907988F0A2AF33F512C2AF1259
:101040000BA2E51270028156D2AF2290792DE06496
:10105000017079907FF2F0907FF37430F0907FFF11
:1010600074FCF0E4907978F090797BE0907979F0F5
:101070004401F04402F090797BF0A2AFE433F51222
:10108000C2AF120BA29079787402F0907984E0904C
:101090007979F090797FE0B40109907979E054FE94
:1010A000F08007907979E04401F0907979E054FD7F
:1010B000F054FBF0907984F0120BA29079827404C2
:1010C000F090798814F0E5126002D2AF90792DE0AB
:1010D00064027079907FF2F0907FF37434F0907F27
:1010E000FF74FCF0E4907978F090797BE090797966
:1010F000F04401F04402F090797BF0A2AFE433F5C4
:1011000012C2AF120BA29079787402F0907984E049
:10111000907979F090797FE0B40109907979E05481
:10112000FEF08007907979E04401F0907979E0440D
:1011300002F054FBF0907984F0120BA29079827443
:1011400004F090798814F0E5126002D2AF90792D06
:10115000E0640360028156907FF2F0907FF3746444
:10116000F0907FFF74FCF0E4907978F090797BE068
:10117000907979F04401F04402F090797BF0A2AFCD
:10118000E433F512C2AF120BA29079787402F0909A
:101190007984E0907979F090797FE0B401099079D1
:1011A00079E054FEF08007907979E04401F090797D
:1011B00079E04404F0907984F0120BA29079827463
:1011C00004F090798814F0E51270028156D2AF22B3
:1011D00090792DE06401707A907FF2F0907FF37443
:1011E00088F0907FFF74FCF0E4907978F090797B40
:1011F000E0907979F04401F054FDF090797BF0A211
:10120000AFE433F512C2AF120BA29079787402F0FA
:10121000907984E0907979F090797FE0B401099039
:101220007979E054FEF08007907979E04401F090FC
:101230007979E054FDF054FBF0907984F0120BA220
:10124000907982740CF09079887401F0E512600254
:10125000D2AF90792DE0640260028156907FF2F067
:10126000907FF37494F0907FFF74FCF0E4907978B1
:10127000F090797BE0907979F04401F054FDF090A2
:10128000797BF0A2AFE433F512C2AF120BA29079D2
:10129000787402F0907984E0907979F090797FE029
:1012A000B40109907979E054FEF08007907979E0F3
:1012B0004401F0907979E04402F054FBF090798495
:1012C000F0120BA2907982740CF09079887401F07E
:1012D000E51270028156D2AF2290792DE064017040
:1012E00077907FF2F0907FF374CCF0907FFF74FCE6
:1012F000F0E4907978F090797BE0907979F054FC83
:10130000F090797BF0A2AFE433F512C2AF120BA2DA
:101310009079787402F0907984E0907979F09079FE
:101320007FE0B40109907979E054FEF0800790796C
:1013300079E04401F0907979E054FDF054FBF090AD
:101340007984F0120BA29079827412F090798874EB
:1013500002F0E5126002D2AF90792DE0640270775E
:10136000907FF2F0907FF374E0F0907FFF74FCF0D8
:10137000E4907978F090797BE0907979F054FCF002
:1013800090797BF0A2AFE433F512C2AF120BA290BA
:1013900079787402F0907984E0907979F090797F8F
:1013A000E0B40109907979E054FEF08007907979F2
:1013B000E04401F0907979E04402F054FBF0907938
:1013C00084F0120BA29079827412F09079887402E2
:1013D000F0E5126002D2AF90792DE064037077904F
:1013E0007FF2F0907FF37494F0907FFF74FCF0E450
:1013F000907978F090797BE0907979F054FEF04420
:1014000002F090797BF0A2AFE433F512C2AF120B79
:10141000A29079787402F0907984E0907979F090D4
:10142000797FE0B40109907979E054FEF08007906B
:101430007979E04401F0907979E04404F09079847E
:10144000F0120BA29079827406F09079887404F0FF
:10145000E5126002D2AF22C228C229907FE8E012D2
:101460000E1A14840014E00114F602167C2116BE34
:101470002215918015D181162E8216CFA11705A2B3
:101480000000170A907FE9E014601124FE60282410
:10149000FE603B24FC7040124A2AE116124BE040E9
:1014A00002E116907FEAE0B40104C22AE116907FBF
:1014B000B4E04401F0E116124BE2907FEAE0B4019F
:1014C00004D22AE116907FB4E04401F0E116907F47
:1014D000B4E04401F0E116907FB4E04401F0E1167D
:1014E000907FE9E024F5700512479CE116907FB4E7
:1014F000E04401F0E116907FE9E024FD605424020D
:101500006002A188124BE04002E116907FEAE07091
:1015100038907FECE0F45480FFC4540FFFE0540790
:101520002F25E024B4F582E4347FF583E4F0907F46
:10153000ECE05480FF131313541FFFE054072F9067
:101540007FD7F0E04420F0E116907FB4E04401F052
:10155000E116124BE24002E116907FEAE070209023
:101560007FECE0F45480FFC4540FFFE054072F25B4
:10157000E024B4F582E4347FF5837401F0E1169041
:101580007FB4E04401F0E116907FB4E04401F0E163
:1015900016907FE9E0601224F86009240270291295
:1015A000171EE116124BA0E116124BDEA22AE433FD
:1015B000FF25E0FFA22BE4334F907F00F0E4A3F07F
:1015C000907FB57402F0E116907FB4E04401F0E141
:1015D00016907FE9E0603724F6602E240470419075
:1015E0007FEBE024DE600E047016D229907FB4E019
:1015F0004401F0E116D229907FB4E04401F0E116F5
:10160000907FB4E04401F0E116124463E116124BFE
:10161000DEE4907F00F0A3F0907FB57402F0E11655
:10162000202907907FB4E04401F0C229E116907FA1
:10163000E9E024F46034240C7039124BDE907FEC26
:10164000E0F45480FFC4540FFFE054072F25E0243A
:10165000B4F582E4347FF583E054FD907F00F0E43C
:10166000A3F0907FB57402F0E116907FB4E04401DE
:10167000F0E116907FB4E04401F0E116907FE9E0DC
:1016800024F6601214601A2402701DD228907FB4D0
:10169000E04401F08012D228907FB4E04401F08051
:1016A00007907FB4E04401F020280F907985740101
:1016B000F012496F907FC57402F0C228805890796B
:1016C000867401F012496F907FC57402F0804790D4
:1016D0007FE9E024FE601214601A2402701DD228F3
:1016E000907FB4E04401F08012D228907FB4E044AF
:1016F00001F08007907FB4E04401F0202803121A23
:101700007BC2288011122C2B800C124BE4500790C6
:101710007FB4E04401F0907FB4E04402F022124B29
:10172000DC4002E1E3907FEBE024FE601E146046A3
:1017300014606E147002E1D424046002E1DC7405CC
:10174000907FD4F07400907FD5F022907FEAE0FF84
:10175000123FA28B338A348935EA496011CEEACE32
:10176000EE907FD4F0CFE9CFEF907FD5F022907F3D
:10177000B4E04401F022907FEAE0FF1248008B338E
:101780008A348935EA496011CEEACEEE907FD4F0F2
:10179000CFE9CFEF907FD5F022907FB4E04401F005
:1017A00022907FEAE0FF907EC0E0FDA3E0FB1244C0
:1017B000D28B338A348935EA496011CEEACEEE9075
:1017C0007FD4F0CFE9CFEF907FD5F022907FB4E0C7
:1017D0004401F022907FB4E04401F022907FB4E015
:1017E0004401F022C0E0C083C082907FC4E4F05383
:1017F00091EF907FAB7404F0D082D083D0E032229E
:10180000E4907815F07B0190781204F0A37478F0DE
:10181000A37458F0907812E0FBA3E0FAA3E0F990EB
:101820000001120C5DFF90799AE06F6018907815B6
:10183000E0C39406500FE004F0907813E475F00FC5
:10184000120CF480CF907815E0B40608907FB4E0D5
:101850004401F022907812E0FBA3E0FAA3E0F91231
:101860000C44FF24BF7002417A24E07002414C24F2
:101870002160024173907997E024FE7002219A144E
:10188000700221EF24026002414490792DE0A3F020
:10189000907923E0FFE4FCFDFEFBFA7901F8120DDC
:1018A00042C8ECC8C9EDC9CAEECACBEFCB907922C9
:1018B000E0FEE4FCFD2BFBEA3EFAED39F9EC38F8EA
:1018C000907921E0FFE4FEEB2FFFEE3AFEED39FDCB
:1018D000EC38FC907812E0FBA3E0FAA3E0F990006A
:1018E00002120DD2900002120DA27B447AAC790054
:1018F0007800C3120D91700590792D04F090781244
:10190000E0FBA3E0FAA3E0F9900002120DA27B80B5
:101910007ABB79007800C3120D91700690792D740E
:1019200002F0907812E0FBA3E0FAA3E0F990000245
:10193000120DA27B007A7779017800C3120D9170A5
:101940000690792D7403F090792DE0FFB4010975AC
:101950000C67750D06750E0BEFB40208E4F50CF577
:101960000D750E0CEFB40308E4F50CF50D750E18AB
:10197000EFB4030D90792EE064036005D22F123D81
:101980007990792DE06403600AA3E0B40305C22FC7
:10199000123D7912100012280122907923E0FFE411
:1019A000FCFDFEFBFA7901F8120D42C8ECC8C9ED46
:1019B000C9CAEECACBEFCB907922E0FEE4FCFD2B46
:1019C000FBEA3EFAED39F9EC38F8907921E0FFE4D2
:1019D000FEEB2FFFEE3AFEED39FDEC38FC9078126D
:1019E000E0FBA3E0FAA3E0F9900006120DD22290EA
:1019F0007923E0FFE4FCFDFEFBFA7901F8120D42C9
:101A0000C8ECC8C9EDC9CAEECACBEFCB907922E0C9
:101A1000FEE4FCFD2BFBEA3EFAED39F9EC38F890D8
:101A20007921E0FFE4FEEB2FFFEE3AFEED39FDEC0D
:101A300038FC907812E0FBA3E0FAA3E0F990000AEA
:101A4000120DD222907FB4E04401F022907997E009
:101A5000147018907921E0FF907812E0FBA3E0FA6F
:101A6000A3E0F990000EEF120C9C22907FB4E044AA
:101A700001F022907FB4E04401F022E4FFFE7B01FC
:101A800090780F04F0A37478F0A3742BF090780F83
:101A9000E0FBA3E0FAA3E0F9900002120C5DFD90D8
:101AA0007FECE06D6013EFC39405500D0F9078103C
:101AB000E475F003120CF480D48D3390780FE0FBC2
:101AC000A3E0FAA3E0F9900001120C5DFD907FED18
:101AD000E06D6013EEC3940B500D0E907810E4751A
:101AE000F003120CF480D4907FEDE0F534EF640540
:101AF0006003BE0B08907FB4E04401F02290780FA1
:101B0000E0FBA3E0FAA3E0F9120C44FF24F0600824
:101B1000240F700E12492A22124B83907920E5344B
:101B2000F022907FB4E04401F022907FEAE0B4FF1D
:101B30000412341622123800225398FE5398FD32B4
:101B40000000000000000000000000000000000095
:101B50000000000000000000000000000000000085
:101B60000000000000000000000000000000000075
:101B70000000000000000000000000000000000065
:1028000022907964E0146046147002413C24026016
:1028100002812A907FFC74CCF0907FFF74FCF090D2
:1028200079787401F090797CE0907979F054FDF03A
:102830004401F090797CF0A2AFE433F512C2AF12FC
:102840000BA2E5126002D2AFE490797AF02290797F
:102850002DE06401600201F1907FFC74CCF0907F68
:10286000FF74FCF09079787401F090797CE09079B5
:1028700079F04401F04402F090797EE0B4010990CF
:102880007979E04404F08007907979E054FBF09086
:102890007979E090797CF0A2AFE433F512C2AF12FF
:1028A0000BA29079787402F0907984E0907979F0B5
:1028B00090797FE0B40109907979E054FEF08007C7
:1028C000907979E04401F0907979E054FDF054FB7F
:1028D000F0907984F0120BA290797A7401F09079DB
:1028E00065F0E5126002D2AFE490798CF090798BBC
:1028F000F090792DE0640260022196907FFC74C80C
:10290000F0907FFF74FCF09079787401F090797CFE
:10291000E0907979F04401F04402F090797EE0B4DF
:102920000109907979E04404F08007907979E054C6
:10293000FBF0907979E090797CF0A2AFE433F51266
:10294000C2AF120BA29079787402F0907984E09073
:102950007979F090797FE0B40109907979E054FEBB
:10296000F08007907979E04401F0907979E04402B1
:10297000F054FBF0907984F0120BA290797A7401F4
:10298000F09079657403F0E5126002D2AFE49079BB
:102990008CF090798BF090792DE064036002812AAD
:1029A000907FFC7498F0907FFF74FCF090797874BD
:1029B00001F090797CE0907979F04401F04402F0E4
:1029C00090797EE0B40109907979E04404F08007C1
:1029D000907979E054FBF0907979E090797CF0A2DD
:1029E000AFE433F512C2AF120BA29079787402F003
:1029F000907984E0907979F090797FE0B401099042
:102A00007979E054FEF08007907979E04401F09004
:102A10007979E054FDF04404F0907984F0120BA22F
:102A200090797A7401F09079657405F0E51260028E
:102A3000D2AFE490798CF090798BF02290792DE0F0
:102A40006401600241E0907FFC74B4F0907FFF74F9
:102A5000FCF09079787401F090797CE0907979F0CD
:102A600054FEF04402F090797EE0B4010990797947
:102A7000E04404F08007907979E054FBF090797994
:102A8000E090797CF0A2AFE433F512C2AF120BA252
:102A90009079787402F0907984E0907979F0907967
:102AA0007FE0B40109907979E054FEF080079079D5
:102AB00079E04401F0907979E054FDF054FBF09016
:102AC0007984F0120BA290797A7401F09079650400
:102AD000F0E5126002D2AFE490798CF090798BF03F
:102AE00090792DE0640260026185907FFC74B0F003
:102AF000907FFF74FCF09079787401F090797CE01D
:102B0000907979F054FEF04402F090797EE0B401BF
:102B100009907979E04404F08007907979E054FBDA
:102B2000F0907979E090797CF0A2AFE433F512C2AD
:102B3000AF120BA29079787402F0907984E09079CA
:102B400079F090797FE0B40109907979E054FEF052
:102B50008007907979E04401F0907979E04402F0BF
:102B600054FBF0907984F0120BA290797A7401F002
:102B70009079657404F0E5126002D2AFE490798C2C
:102B8000F090798BF090792DE064036002812A90B7
:102B90007FFC7468F0907FFF74FCF090797874018A
:102BA000F090797CE0907979F054FEF04402F09056
:102BB000797EE0B40109907979E04404F0800790CF
:102BC0007979E054FBF0907979E090797CF0A2AFCC
:102BD000E433F512C2AF120BA29079787402F09030
:102BE0007984E0907979F090797FE0B40109907967
:102BF00079E054FEF08007907979E04401F0907913
:102C000079E054FDF04404F0907984F0120BA29026
:102C1000797A7401F09079657406F0E5126002D259
:102C2000AFE490798CF090798BF022E4FF7B0190F7
:102C3000781604F0A37478F0A37458F0907816E036
:102C4000FBA3E0FAA3E0F9900001120C5DFE907F77
:102C5000ECE06E6013EFC39406500D0F907817E40C
:102C600075F00F120CF480D4BF0608907FB4E044D6
:102C700001F022907816E0FBA3E0FAA3E0F9120C31
:102C800044FF249F7002C16624216002C18C907FA2
:102C9000E9E0247E7002A130147002A1C824026011
:102CA00002C15E900002120DA27B447AAC790078DA
:102CB00000C3120D917013907F007444F0A374ACA4
:102CC000F0E4A3F0907FB57403F0907816E0FBA3D6
:102CD000E0FAA3E0F9900002120DA27B807ABB79A2
:102CE000007800C3120D917013907F007480F0A3E0
:102CF00074BBF0E4A3F0907FB57403F0907816E015
:102D0000FBA3E0FAA3E0F9900002120DA27B007A87
:102D10007779017800C3120D916002C193907F0012
:102D2000F0A37477F0A37401F0907FB57403F022E0
:102D3000907816E0FBA3E0FAA3E0F9900006120DEC
:102D4000A27B447AAC79007800C3120D9170139085
:102D50007F007444F0A374ACF0E4A3F0907FB574EA
:102D600003F0907816E0FBA3E0FAA3E0F9900006E8
:102D7000120DA27B807ABB79007800C3120D91708E
:102D800013907F007480F0A374BBF0E4A3F0907FF5
:102D9000B57403F0907816E0FBA3E0FAA3E0F99095
:102DA0000006120DA27B007A7779017800C3120D1C
:102DB000916002C193907F00F0A37477F0A3740137
:102DC000F0907FB57403F022907816E0FBA3E0FA50
:102DD000A3E0F990000A120DA27B447AAC79007846
:102DE00000C3120D917013907F007444F0A374AC73
:102DF000F0E4A3F0907FB57403F0907816E0FBA3A5
:102E0000E0FAA3E0F990000A120DA27B807ABB7968
:102E1000007800C3120D917013907F007480F0A3AE
:102E200074BBF0E4A3F0907FB57403F0907816E0E3
:102E3000FBA3E0FAA3E0F990000A120DA27B007A4E
:102E40007779017800C3120D917048907F00F0A34C
:102E50007477F0A37401F0907FB57403F022907F33
:102E6000B4E04401F022907FE9E0247F701690786E
:102E700016E0FBA3E0FAA3E0F990000E120C5D90BF
:102E80007F00F022907FB4E04401F022907FB4E014
:102E90004401F022753625753724907974E0640179
:102EA0007054F0F535752201E52264017048907F79
:102EB000A5E04480F0907FA6E536F01246C0744F3E
:102EC0002535F582E43479F583E0907FA6F012464B
:102ED000C074352535F582E43479F583E0907FA61A
:102EE000F01246C0907FA57440F0120ACD0535E57A
:102EF00035C3940D40B2907975E064016002E1DE63
:102F0000F0907920E064056002E18D7B0190795CAE
:102F100004F0A37478F0A374B2F075330790795C71
:102F2000E0FBA3E0FAA3E0F9900001120C5D700F42
:102F3000900004120C5D90792FF0120C29800690FD
:102F4000792F74FFF0E4F535752201753402E5221E
:102F500064017039907FA5E04480F0907FA6E5364B
:102F6000F01246C0AF340534907FA6EFF01246C091
:102F700090792FE0907FA6F01246C0907FA5744014
:102F8000F0120ACD0535E535C3940640C19079208D
:102F9000E0640670497B0190795F04F0A37478F0D7
:102FA000A374FFF075330390795FE0FBA3E0FAA30D
:102FB000E0F9900001120C5D701C900004120C5D91
:102FC000907933F0700374FFF0907933E0547FFF11
:102FD000F025E0F08005E4907933F01247DF22908D
:102FE00079787403F0907983E0907979F0A2AFE476
:102FF00033F512C2AF120BA2E5126002D2AF222249
:10300000E4FE907920E0FDB405119078257401F07C
:10301000A37478F0A374B2F0753507EDB40611907F
:1030200078257401F0A37478F0A374FFF07535036C
:10303000907FEBE014601114605B24026002410594
:10304000907FB4E04401F022907FE9E0247F703D5E
:10305000E4FFEFC39535502F907825E0FBA3E0FA0D
:10306000A3E0F9900001120C5DFDCCEECC0E7400D3
:103070002CF582E4347FF583EDF0907826E475F04A
:103080000B120CF40F80CB907FB5EEF022907FB442
:10309000E04401F022907FE9E0247E606414700235
:1030A000215514700221A92403600221FDE4FFEFE1
:1030B000C395355046907825E0FBA3E0FAA3E0F9EC
:1030C000900003120C5DFDCCEECC0E74002CF5824A
:1030D000E4347FF583EDF0900004120C5DFDCCEE3E
:1030E000CC0E74002CF582E4347FF583EDF09078FB
:1030F00026E475F00B120CF40F80B4907FB5EEF05F
:1031000022E4FFEFC395355046907825E0FBA3E01D
:10311000FAA3E0F9900005120C5DFDCCEECC0E7424
:10312000002CF582E4347FF583EDF0900006120C5C
:103130005DFDCCEECC0E74002CF582E4347FF5837B
:10314000EDF0907826E475F00B120CF40F80B4903B
:103150007FB5EEF022E4FFEFC39535504690782519
:10316000E0FBA3E0FAA3E0F9900007120C5DFDCCB0
:10317000EECC0E74002CF582E4347FF583EDF090F4
:103180000008120C5DFDCCEECC0E74002CF582E430
:10319000347FF583EDF0907826E475F00B120CF493
:1031A0000F80B4907FB5EEF022E4FFEFC395355069
:1031B00046907825E0FBA3E0FAA3E0F9900009121D
:1031C0000C5DFDCCEECC0E74002CF582E4347FF562
:1031D00083EDF090000A120C5DFDCCEECC0E740075
:1031E0002CF582E4347FF583EDF0907826E475F0D9
:1031F0000B120CF40F80B4907FB5EEF022907FB4E8
:10320000E04401F022907FB4E04401F0227B017A97
:1032100078792B907800EBF0A3EAF0A3E9F0740141
:10322000120C8A907800E0FBA3E0FAA3E0F990008A
:10323000017401120C9C900002E4120C9C90780125
:10324000E475F003120CF4907800E0FBA3E0FAA31D
:10325000E0F97410120C8A907800E0FBA3E0FAA366
:10326000E0F99000017405120C9C900002E4120C2D
:103270009C907801E475F003120CF4907800E0FB68
:10328000A3E0FAA3E0F97402120C8A907800E0FB44
:10329000A3E0FAA3E0F99000017402120C9C9000E4
:1032A00002E4120C9C907801E475F003120CF49087
:1032B0007800E0FBA3E0FAA3E0F97401120C8A9015
:1032C0007800E0FBA3E0FAA3E0F990000174031298
:1032D0000C9C900002E4120C9C907801E475F003C1
:1032E000120CF4907800E0FBA3E0FAA3E0F974106C
:1032F000120C8A907800E0FBA3E0FAA3E0F99000BA
:10330000017406120C9C900002E4120C9C9078014F
:10331000E475F003120CF4907800E0FBA3E0FAA34C
:10332000E0F97402120C8A907800E0FBA3E0FAA3A3
:10333000E0F99000017404120C9C900002E4120C5D
:103340009C907801E475F003120CF4907800E0FB97
:10335000A3E0FAA3E0F97402120C8A907800E0FB73
:10336000A3E0FAA3E0F99000017404120C9C900011
:10337000027404120C9C907801E475F003120CF4B2
:10338000907800E0FBA3E0FAA3E0F97402120C8A43
:10339000907800E0FBA3E0FAA3E0F9900001740349
:1033A000120C9C9000027404120C9C907801E4753D
:1033B000F003120CF4907800E0FBA3E0FAA3E0F92C
:1033C0007402120C8A907800E0FBA3E0FAA3E0F903
:1033D0009000017402120C9C9000027404120C9C68
:1033E000907801E475F003120CF4907800E0FBA3F0
:1033F000E0FAA3E0F97402120C8A907800E0FBA3D3
:10340000E0FAA3E0F99000017401120C9C90000214
:103410007404120C9C22E4FE907920E0FDB40511A6
:1034200090781F7401F0A37478F0A374B2F075352E
:1034300007EDB4061190781F7401F0A37478F0A31F
:1034400074FFF0753503907999E014601114605B96
:1034500024026002C106907FB4E04401F02290791A
:1034600097E014703EE4FFEFC39535502FCDEECDBD
:103470000E74212DF582E43479F583E0FD90781FF8
:10348000E0FBA3E0FAA3E0F9900001ED120C9C90A0
:103490007820E475F00B120CF40F80CB90797574E2
:1034A00001F022907FB4E04401F022907997E0246B
:1034B000FE6063147002A164147002A1B224036060
:1034C00002A1FEE4FFEFC395355044CDEECD0E745E
:1034D000212DF582E43479F583E0FD90781FE0FB3F
:1034E000A3E0FAA3E0F9900003ED120C9CCDEECD21
:1034F0000E74212DF582E43479F583E090000412F6
:103500000C9C907820E475F00B120CF40F80B690B0
:1035100079757401F022E4FFEFC395354002C10DC7
:10352000CDEECD0E74212DF582E43479F583E0FDE6
:1035300090781FE0FBA3E0FAA3E0F9900005ED12FC
:103540000C9CCDEECD0E74212DF582E43479F583FB
:10355000E0900006120C9C907820E475F00B120CA1
:10356000F40F80B4E4FFEFC395354002C10DCDEEFA
:10357000CD0E74212DF582E43479F583E0FD907849
:103580001FE0FBA3E0FAA3E0F9900007ED120C9C0A
:10359000CDEECD0E74212DF582E43479F583E090E3
:1035A0000008120C9C907820E475F00B120CF40FBC
:1035B00080B4E4FFEFC395355053CDEECD0E7421AA
:1035C0002DF582E43479F583E0FD90781FE0FBA3CC
:1035D000E0FAA3E0F9900009ED120C9CCDEECD0EBF
:1035E00074212DF582E43479F583E090000A120C01
:1035F0009C907820E475F00B120CF40F80B6907F4D
:10360000B4E04401F022907FB4E04401F022E4FEF3
:10361000907920E0FDB405109078287401F0A3742F
:1036200078F0A374B2F07F07EDB406109078287498
:1036300001F0A37478F0A374FFF07F03907828E082
:10364000FBA3E0FAA3E0F9120C44FD907FEAE06DE1
:103650006012EEC39F500D907829E475F00B120CA8
:10366000F40E80D8907FEBE01460111460462402C1
:103670006002E19A907FB4E04401F022907FE9E09B
:10368000247F7028EE6F7008907FB4E04401F02230
:10369000907828E0FBA3E0FAA3E0F9900001120C77
:1036A0005D907F00F0907FB57401F022907FB4E0D0
:1036B0004401F022907FE9E0247E604014606F14A2
:1036C0007002E16024036002E192EE6F7008907F67
:1036D000B4E04401F022907828E0FBA3E0FAA3E0F4
:1036E000F9900003120C5D907F00F0900004120C22
:1036F0005D907F01F0907FB57402F022EE6F70084C
:10370000907FB4E04401F022907828E0FBA3E0FA37
:10371000A3E0F9900005120C5D907F00F090000688
:10372000120C5D907F01F0907FB57402F022EE6F75
:103730007008907FB4E04401F022907828E0FBA369
:10374000E0FAA3E0F9900007120C5D907F00F09082
:103750000008120C5D907F01F0907FB57402F0229A
:10376000EE6F7008907FB4E04401F022907828E07A
:10377000FBA3E0FAA3E0F9900009120C5D907F0032
:10378000F090000A120C5D907F01F0907FB57402FA
:10379000F022907FB4E04401F022907FB4E0440135
:1037A000F022C0E0C0F0C083C082C0D0E8C0E0E931
:1037B000C0E0EAC0E0EBC0E0ECC0E0EDC0E0EEC08D
:1037C000E0EFC0E05391EF907FAB7410F0907983FD
:1037D000E054FDF0122FDFD0E0FFD0E0FED0E0FD9E
:1037E000D0E0FCD0E0FBD0E0FAD0E0F9D0E0F8D0B7
:1037F000D0D082D083D0F0D0E0325391BFD22632E5
:10380000E4FE907920E0FDB405109078227401F078
:10381000A37478F0A374B2F07F07EDB4061090782B
:10382000227401F0A37478F0A374FFF07F03907802
:1038300022E0FBA3E0FAA3E0F9120C44FD90799892
:10384000E06D6012EEC39F500D907823E475F00B8D
:10385000120CF40E80D8907999E01460111460482D
:10386000240260022185907FB4E04401F022907927
:1038700097E014702BEE6F7009907FB4E04401F074
:103880008017907921E0FD907822E0FBA3E0FAA375
:10389000E0F9900001ED120C9C9079757401F02212
:1038A000907FB4E04401F022907997E024FE6043D9
:1038B00014606E147002214F24036002217DEE6FAC
:1038C0007009907FB4E04401F08021907921E0FDFF
:1038D000907822E0FBA3E0FAA3E0F9900003ED1258
:1038E0000C9C907922E0900004120C9C90797574E5
:1038F00001F022EE6F7008907FB4E04401F0229056
:103900007921E0FD907822E0FBA3E0FAA3E0F990B2
:103910000005ED120C9C907922E0900006120C9CA0
:1039200022EE6F7008907FB4E04401F0229079217C
:10393000E0FD907822E0FBA3E0FAA3E0F990000715
:10394000ED120C9C907922E0900008120C9C22EE63
:103950006F7008907FB4E04401F022907921E0FE7E
:10396000907822E0FBA3E0FAA3E0F9900009EE12C0
:103970000C9C907922E090000A120C9C22907FB45B
:10398000E04401F022907FB4E04401F022A2AFE4D1
:1039900033F512E4907983F0122FDF907FE074907A
:1039A000F0907FE17404F0E4907FDDF0907FA1F06F
:1039B000538EF875880575B82075F801438E30F57B
:1039C000C875CA7F75CBF843A82090797404F0C2FB
:1039D00022E4F50F907978F0A3F0907962F0A3F0EB
:1039E000A3F0907966F0A3F090797BF0A3F0907942
:1039F00084F090797DF0907975F0A3F0A3F0C22364
:103A0000C224C225C226C220907F9BE0F50A542022
:103A1000F50A700690797EF0800690797E7401F048
:103A2000907F9BE0F50A5402F50A700690797FF0CA
:103A3000800690797F7401F09079787402F0907923
:103A400084E0907979F090797FE0B40109907979F8
:103A5000E054FEF08007907979E04401F0907979A4
:103A6000E0907984F0120BA29079787401F090794B
:103A70007CE0907979F090797EE0B40109907979D1
:103A8000E04404F08007907979E054FBF090797974
:103A9000E090797CF0120BA2E4907978F0A304F026
:103AA000E4907988F0120BA2907FFC74DDF0907F97
:103AB000FF74FFF09079787401F0A3F0120BA2E488
:103AC00090797AF090798304F0122FDFE4907930C6
:103AD000F0907985F0A3F0A3F0122E9490792D74D4
:103AE00002F090798814F0C22FE4907968F0907910
:103AF0008AF090796AF0A3F0751308751408F5162A
:103B0000F515F51790798CF090798BF0227B017A7E
:103B1000787958907803EBF0A3EAF0A3E9F07440C9
:103B2000120C8A907803E0FBA3E0FAA3E0F990007E
:103B300001740A120C9C900002120DF60000BB806A
:103B4000900006120DF60000AC4490000A120DF62B
:103B500000017700907804E475F00F120CF490786F
:103B600003E0FBA3E0FAA3E0F97440120C8A90781A
:103B700003E0FBA3E0FAA3E0F9900001748C120CBF
:103B80009C900002120DF60000BB80900006120D02
:103B9000F60000AC4490000A120DF6000177009088
:103BA0007804E475F00F120CF4907803E0FBA3E0C6
:103BB000FAA3E0F97440120C8A907803E0FBA3E0CA
:103BC000FAA3E0F9900001748F120C9C907804E441
:103BD00075F00F120CF4907803E0FBA3E0FAA3E079
:103BE000F97441120C8A907803E0FBA3E0FAA3E099
:103BF000F99000017484120C9C907804E475F00F25
:103C0000120CF4907803E0FBA3E0FAA3E0F97461EE
:103C1000120C8A907803E0FBA3E0FAA3E0F990008D
:103C2000017481120C9C907804E475F00F120CF46E
:103C3000907803E0FBA3E0FAA3E0F97461120C8A28
:103C4000907803E0FBA3E0FAA3E0F990000174018F
:103C5000120C9C22C0E0C0F0C083C082C0D0E8C07B
:103C6000E0E9C0E0EAC0E0EBC0E0ECC0E0EDC0E0BD
:103C7000EEC0E0EFC0E0907FA2E0F50B907F74E033
:103C8000907970F0907F75E0907971F0907983E091
:103C9000FFFE5402FE700DEF4402F0122FDF907908
:103CA000747401F0E50B20E228907970E0FEA3E047
:103CB0007C002400F511EC3EF510907982E0FDAE19
:103CC00010AF11120CBE907970EFF09079897401E9
:103CD000F0124843124876907989E06401703212FC
:103CE0004108907989E4F0907F98E04440F0907F1B
:103CF0009EE04440F0907F957480F075E8011209D1
:103D00003275E80D907F9574C0F075E80DD2208073
:103D10000575E801C22020202B90792DE0FFB40129
:103D200009750C67750D06750E0BEFB40209750C5D
:103D300000750D00750E0CEFB40309750C00750DC0
:103D400000750E1875CA6F75CBFED2CA5391EF90ED
:103D50007FAB7402F0F0D0E0FFD0E0FED0E0FDD009
:103D6000E0FCD0E0FBD0E0FAD0E0F9D0E0F8D0D031
:103D7000D082D083D0F0D0E03275332575342490D2
:103D8000795C7401F0A37478F0A374B2F0202F0270
:103D9000C117E4F53575220190795CE0FBA3E0FAE8
:103DA000A3E0F9900004120C5DF5367535067442F7
:103DB0002535F582E43479F583E536F00535E535CA
:103DC000B40CEBE535C3940D4002C198E5226401C3
:103DD0006002C198907FA5E04480F0907FA6E53313
:103DE000F01246C0744F2535F582E43479F583E04E
:103DF000907FA6F01246C074422535F582E43479EE
:103E0000F583E0907FA6F01246C0907FA57440F045
:103E1000120ACD053580ACE4F53575220190795C48
:103E2000E0FBA3E0FAA3E0F9900004120C5DF53684
:103E300075350674352535F582E43479F583E53634
:103E4000F00535E535B40CEBE535C3940D5049E587
:103E50002264017043907FA5E04480F0907FA6E546
:103E600033F01246C0744F2535F582E43479F5837A
:103E7000E0907FA6F01246C074352535F582E43413
:103E800079F583E0907FA6F01246C0907FA574403C
:103E9000F0120ACD053580B0229078097401F0A3A4
:103EA0007478F0A374B2F0E4FFFE907809E0FBA30D
:103EB000E0FAA3E0F9EF120C8A907809E0FBA3E0A6
:103EC000FAA3E0F9900001E4120C9C900002741532
:103ED000120C9C900003E4120C9C90000474FF12DE
:103EE0000C9C900005E4120C9C90000674C3120C0C
:103EF0009C900007E4120C9C900008E4120C9C902B
:103F00000009E4120C9C90000A7401120C9C907839
:103F10000AE475F00B120CF40F0EBE078D907809B1
:103F20007401F0A37478F0A374FFF0E4FFFE9078BE
:103F300009E0FBA3E0FAA3E0F9EF120C8A907809FC
:103F4000E0FBA3E0FAA3E0F9900001E4120C9C90DE
:103F500000027415120C9C900003E4120C9C90005B
:103F6000047480120C9C900005E4120C9C900006D6
:103F700074C3120C9C900007E4120C9C900008E49F
:103F8000120C9C900009E4120C9C90000A7401121F
:103F90000C9C90780AE475F00B120CF40F0EBE0323
:103FA0008D22E4FE753DFF753E05753F12AB3DAABF
:103FB0003EA93F900001120C5D6402702FCDEECD42
:103FC0000EED6F700122900002120D0A85F03BF594
:103FD0003C623BE53B623CE53C623B29FDE53B3A0C
:103FE000C9EDC9753DFFF53E893F80C17B007A0070
:103FF00079002253D8EF43D820C22D325391DF32BB
:10400000907987E0B4011D907985E0B401031242F4
:10401000AA907986E0B40103121800E4907985F043
:10402000A3F0A3F0122E94907F9BE0F50A5402F5C2
:104030000A700490797FF0907F9BE0F50A5402FFAC
:10404000F50ABF020690797F7401F0907F9BE0F53E
:104050000A5420F50A700490797EF0907F9BE0F579
:104060000A5420FFF50ABF200690797E7401F09073
:10407000797FE0FF907981E06F6038907978740201
:10408000F0907984E0907979F0EFB40106E054FE85
:10409000F08007907979E04401F0907979E09079A7
:1040A00084F0A2AFE433F512C2AF120BA2E51260A6
:1040B00002D2AF90797EE0FF907980E06F60389017
:1040C00079787401F090797CE0907979F0EFB4011F
:1040D00006E04404F08007907979E054FBF0907991
:1040E00079E090797CF0A2AFE433F512C2AF120B05
:1040F000A2E5126002D2AF90797FE0907981F090D2
:10410000797EE0907980F02290792DE0640170351D
:10411000907970E0FFD3942D402B9079697401F071
:10412000907968E004F0E0D3940F4019E4F0EFD305
:104130009431400890792D7403F0800690792D74A5
:1041400002F012100090792DE0B4022C907970E00A
:10415000FFC3942F5022EFD3942A401C90796974A6
:1041600001F0907968E004F0E0D3940F400AE4F0A5
:1041700090792D04F012100090792DE0B402269071
:104180007970E0D39431401D9079697401F0907991
:1041900068E004F0E0D3940F400BE4F090792D74C4
:1041A00003F012100090792DE06403703F90797055
:1041B000E0FFC3945F50359079697401F09079689D
:1041C000E004F0E0D3940F4023E4F0EFC3942F50C9
:1041D0000CEFD3942A400690792D7401F0EFD3941C
:1041E0002F400690792D7402F0121000907969E04A
:1041F0007005907968F022E4907969F0227B017A69
:1042000078794C907806EBF0A3EAF0A3E9F0E41299
:104210000C8A907806E0FBA3E0FAA3E0F990000195
:104220007401120C9C907807E475F003120CF49062
:104230007806E0FBA3E0FAA3E0F9E4120C8A907898
:1042400006E0FBA3E0FAA3E0F99000017402120C6F
:104250009C907807E475F003120CF4907806E0FB6C
:10426000A3E0FAA3E0F9E4120C8A907806E0FBA33D
:10427000E0FAA3E0F99000017403120C9C90780717
:10428000E475F003120CF4907806E0FBA3E0FAA3C7
:10429000E0F9E4120C8A907806E0FBA3E0FAA3E0D0
:1042A000F99000017404120C9C22E4FFFE7B019043
:1042B000780C04F0A37478F0A3742BF090780CE0E1
:1042C000FBA3E0FAA3E0F9900002120C5DFD9079E7
:1042D0009AE06D6013EFC39405500D0F90780DE4D4
:1042E00075F003120CF480D48D3390780CE0FBA3AE
:1042F000E0FAA3E0F9900001120C5DFD90799BE0DB
:10430000FC6D6013EEC3940B500D0E90780DE475A8
:10431000F003120CF480D38C34EF64056003BE0B01
:1043200008907FB4E04401F02290780CE0FBA3E019
:10433000FAA3E0F9120C44FF24F06008240E700E7A
:1043400012494D22907920E534F0121B2A22907FE9
:10435000B4E04401F022787FE4F6D8FD75813F0295
:10436000439D0248A9E493A3F8E493A34003F68095
:1043700001F208DFF48029E493A3F85407240CC861
:10438000C333C4540F4420C8834004F4568001460C
:10439000F6DFE4800B0102040810204080904661A3
:1043A000E47E019360BCA3FF543F30E509541FFE37
:1043B000E493A360010ECF54C025E060A840B8E4A8
:1043C00093A3FAE493A3F8E493A3C8C582C8CAC52B
:1043D00083CAF0A3C8C582C8CAC583CADFE9DEE7BD
:1043E00080BEC0E0C0F0C083C082C0D0E8C0E0E9B9
:1043F000C0E0EAC0E0EBC0E0ECC0E0EDC0E0EEC041
:10440000E0EFC0E0C2CAC2CF90797AE0B4011F12D7
:104410004BAE12475853A8A0907FAEE4F01207AA03
:10442000124BB7907FAE741FF043A805800353A8CA
:10443000A053A8FA75E80112091575E80D43A805FF
:10444000D0E0FFD0E0FED0E0FDD0E0FCD0E0FBD03B
:10445000E0FAD0E0F9D0E0F8D0D0D082D083D0F02C
:10446000D0E032907FECE0F50914601D14602A144E
:10447000603714604424047050907962E0907F00AB
:10448000F0907FB57401F08047907963E0907F00F1
:10449000F0907FB57401F08037907964E0907F00F0
:1044A000F0907FB57401F08027907966E0907F00EE
:1044B000F0907FB57401F08017907967E0907F00ED
:1044C000F0907FB57401F08007907FB4E04401F074
:1044D000D3228D368B37123FA2EA496057120C4423
:1044E0007E0029FFEE3AC9EFC97538FFF539893AE0
:1044F000AB38AA39A93A900001120C5DFF64046040
:1045000005EF6405702EEFB40415900002120C5DE7
:104510006536700B900003120C5D65377001221236
:104520000C447E0029FFEE3AC9EFC97538FFF53912
:10453000893A80BC7B007A00790022E4FF7B0190FD
:10454000781C04F0A37478F0A3744CF090781CE00D
:10455000FBA3E0FAA3E0F9900002120C5DFE907F4D
:10456000ECE06E6013EFC39404500D90781DE47579
:10457000F003120CF40F80D4BF0409907FB4E04420
:1045800001F08014907921E0FF90781CE0FBA3E01B
:10459000FAA3E0F9EF120C8A907FC57401F022C0F3
:1045A000E0C083C082C0D0EEC0E0EFC0E09079856B
:1045B000E064016005A3E0B4012D9079877401F0F7
:1045C000E4FF907FC5E0FEEFC39E501B74C02FF543
:1045D00082E4347EF583E0FE74212FF582E43479A1
:1045E000F583EEF00F80DB5391EF907FAAE044015A
:1045F000F0D0E0FFD0E0FED0D0D082D083D0E03247
:10460000E4FF7B0190781904F0A37478F0A3744C54
:10461000F0907819E0FBA3E0FAA3E0F99000021211
:104620000C5DFE907FECE06E6013EFC39404500DC0
:1046300090781AE475F003120CF40F80D4BF0408CC
:10464000907FB4E04401F022907819E0FBA3E0FAF7
:10465000A3E0F9120C44907F00F0907FB57401F054
:104660002201180201190A011C00C128C129011FD9
:104670000144799F000000004179A3004179A40022
:1046800041798900012201417931FF417934004D9E
:1046900079353F3F00080001000000000000154D83
:1046A00079423F3F06080407000000000000154D56
:1046B000794F0A0A090001090203040506070800E8
:1046C000120ACD907FA5E0F521E5215401F5216482
:1046D000016028E52264017022907FA5E0F5215455
:1046E00002F5217003752201907FA5E0F5215404A5
:1046F000FFF521BF04D375220180CE2253D8F732B3
:104700000249FA00023C54000217E400024A120077
:104710000237A2000247FF00024A410002459F0003
:1047200002498E000249AB00024A5800024A6F005B
:10473000024A8600024A9D00024AB400024ACB00A7
:10474000024AE200024AF900024B1000024B270025
:10475000024B3E00024B5500E518701490798CE036
:1047600004F090798BE0C394004015E014F08010C1
:1047700090798BE004F0A3E0C394004003E014F0D0
:1047800090798BE0D394144004E4F518F090798C80
:10479000E0D394144005751801E4F022907FD7E02F
:1047A000F533907FECE0F50914601114601B2402CE
:1047B0007024907FEAE0907962F08021907FEAE0B7
:1047C000907963F01210008014907FEAE090796491
:1047D000F01228018007907FB4E04401F0D32290CA
:1047E00079787404F0907933E0907979F0A2AFE4AD
:1047F00033F512C2AF120BA2E5126002D2AF223221
:104800008F36E4F5377538FF753907753A01AB38DF
:10481000AA39A93A900001120C5DB4031FAF370505
:1048200037EF6536700122120C447E0029FFEE3A04
:10483000C9EFC97538FFF539893A80D27B007A0013
:1048400079002230262FC22690792DE0FFB401098D
:10485000E4F50C750DF8750E0AEFB40209E4F50CD9
:10486000750DF0750E0BEFB40309E4F50C750DF83A
:10487000750E17D2222230252FC22590792DE0FF08
:10488000B40109750CC0750D14750E0BEFB4020957
:10489000E4F50C750D10750E0CEFB40309E4F50C7E
:1048A000750D18750E18D22222E4F532120F502021
:1048B0002E10E532C3940250090532D23012490558
:1048C00080ED302E05121457C22E302D0612079A95
:1048D0001248D912400080EA22907FD6E0F51D549C
:1048E00080F51D6480701DC2AFE04480F0E044019B
:1048F000F07F0C7E00124B6C907FD6E054FEF0539C
:1049000087FED2AF22907FD6E054FBF0E04408F05F
:10491000303004E04402F07FDC7E05124B6C907F67
:10492000D6E054F7F0E04404F022907FEBE01470FE
:1049300014907FE9E0247F700412460022907FB437
:10494000E04401F022907FB4E04401F022907FEB3C
:10495000E0147013907FE9E014700412453B22903C
:104960007FB4E04401F022907FB4E04401F022E4FF
:10497000FF74E82FF582E4347FF583E0FE74962F10
:10498000F582E43479F583EEF00FBF08E422C0E04D
:10499000C083C0825391EF907FA9E04402F0907FE2
:1049A000B77403F0D082D083D0E032C0E0C083C0BF
:1049B000825391EF907FAAE04402F0907FC7740386
:1049C000F0D082D083D0E032907FD6E030E712E0A2
:1049D0004401F07F147E00124B6C907FD6E054FEB1
:1049E000F022E4F51A751B0190799104F0A3F0E42C
:1049F000A3F0A3740AF0E4A3F022C0E0C083C08255
:104A0000D22E5391EF907FAB7401F0D082D083D03F
:104A1000E032C0E0C083C082D22D5391EF907FABD3
:104A20007408F0D082D083D0E032907FEAE0F508BD
:104A3000E4907962F0A3F0A3F0907966F0A3F0D34C
:104A400022C0E0C083C0825391EF907FA9E044016F
:104A5000F0D082D083D0E032C0E0C083C0825391D6
:104A6000EF907FA9E04404F0D082D083D0E032C040
:104A7000E0C083C0825391EF907FAAE04404F0D05D
:104A800082D083D0E032C0E0C083C0825391EF90E7
:104A90007FA9E04408F0D082D083D0E032C0E0C0EB
:104AA00083C0825391EF907FAAE04408F0D082D077
:104AB00083D0E032C0E0C083C0825391EF907FA9E1
:104AC000E04410F0D082D083D0E032C0E0C083C098
:104AD000825391EF907FAAE04410F0D082D083D02F
:104AE000E032C0E0C083C0825391EF907FA9E044E0
:104AF00020F0D082D083D0E032C0E0C083C08253A7
:104B000091EF907FAAE04420F0D082D083D0E032B1
:104B1000C0E0C083C0825391EF907FA9E04440F091
:104B2000D082D083D0E032C0E0C083C0825391EF06
:104B3000907FAAE04440F0D082D083D0E032C0E041
:104B4000C083C0825391EF907FA9E04480F0D0826F
:104B5000D083D0E032C0E0C083C0825391EF907F19
:104B6000AAE04480F0D082D083D0E0328E338F34FC
:104B7000E5341534AE33700215334E6005120789E3
:104B800080EE22907FEAE0B4FF0412300022123659
:104B90000E22C0E0C28BD224302302C223D0E032E6
:104BA000907F00E508F0907FB57401F0D3223024A7
:104BB00005C22475180122302305C223E4F518220A
:104BC00053C0FE53C0FD3253917FD22532C289D2E9
:104BD0002332C28D32C28F32D322D322D322D322A8
:074BE000D322D322C32222DD
:00000001FF
