:0300000002031CDC
:03004300020400B4
:10010000907FE9E0245B6060240260030201BE90FE
:100110007FEAE0750A00F50BA3E0FEE4EE420A90E8
:100120007FEEE0751500F516A3E0FEE4EE4215E55E
:1001300016451570030201BEE4907FC5F0907FB4B0
:10014000E020E3F9907FC5E0F50C120277AF0C7E5A
:1001500000EF250BF50BEE350AF50AC3E5169FF502
:1001600016E5159EF51580C7907FEAE0750A00F543
:100170000BA3E0FEE4EE420A907FEEE0751500F579
:1001800016A3E0FEE4EE4215E51645156030E49056
:100190007FC5F0907FB4E020E3F9907FC5E0F50CD7
:1001A00012028FAF0C7E00EF250BF50BEE350AF532
:1001B0000AC3E5169FF516E5159EF51580CAC322FC
:1001C000C220D2E843D820907FAB74FFF0907FA983
:1001D000F0907FAAF05391EF907F95E044C0F090AB
:1001E0007F98E044C0F0907F9EE044C0F0E4907FB0
:1001F00094F0907F9DE0440FF0907F97E054F0F0F2
:10020000907FAFE04401F0907FAEE0440DF0D2AFBC
:10021000907F97E054F0F020204275140075130091
:100220007512007511007F487E927D007C00AB1432
:10023000AA13A912A811C312049A50DB2020D87A5D
:100240000079007800E5142401F514EA3513F5135C
:10025000E93512F512E83511F51180CA3020FD128A
:1002600001005007907FB4E04401F0907FB4E04477
:1002700002F0C22080E622E50CFFE50BF582E50ADC
:10028000F58375927E74C0F8E208F0A3DFFA22903D
:100290007F96858392A8827902900000E0B40037AF
:1002A0007401F0907F93E054FCF0907F96E054FC52
:1002B000F0907F9CE04403F0907F94E0547FF090B6
:1002C0007F97E04480F0907F9DE04480F0907F979E
:1002D000E0547FF04480F0E50CFF907EC0E0F5280C
:1002E000E4A24733F269F2E4A24633F269F2E4A2EF
:1002F0004533F269F2E4A24433F269F2E4A24333F3
:10030000F269F2E4A24233F269F2E4A24133F26903
:10031000F2E4A24033F269F2A3DFC222787FE4F66E
:10032000D8FD7581290203630201C0E493A3F8E4B8
:1003300093A34003F68001F208DFF48029E493A33D
:10034000F85407240CC8C333C4540F4420C8834056
:1003500004F456800146F6DFE4800B010204081025
:10036000204080900484E47E019360BCA3FF543F4E
:1003700030E509541FFEE493A360010ECF54C0255D
:10038000E060A840B8E493A3FAE493A3F8E493A34D
:10039000C8C582C8CAC583CAF0A3C8C582C8CAC5B1
:1003A00083CADFE9DEE780BEC0E0C083C082907F01
:1003B000C4E4F05391EF907FAB7404F0D082D0830B
:1003C000D0E032C0E0C083C082D2205391EF907F52
:1003D000AB7401F0D082D083D0E032C0E0C083C0E3
:1003E000825391EF907FAB7402F0D082D083D0E043
:1003F00032323232323232323232323232323232DD
:100400000203C3000203DB000203A80002046E0023
:10041000020458000203F1000203F2000203F30099
:100420000203F4000203F5000203F6000203F700E2
:100430000203F8000203F9000203FA000203FB00C2
:100440000203FC000203FD000203FE000203FF00A2
:100450000204AB000204AC00C0E0C083C082539130
:10046000EF907FAB7410F0D082D083D0E032C0E048
:10047000C083C0825391EF907FAB7408F0D082D0DC
:1004800083D0E032020A000F010C11040D000000BD
:1004900000410000000217000000EB9FF5F0EA9E0B
:0D04A00042F0E99D42F0E89C45F022323226
:1011000012011001000000406A0801010001010203
:10111000000109022000010103A0000904000002EF
:10112000FF0000040705820240000007050202409C
:10113000000004030904260341006E0063006800F8
:101140006F007200200043006800690070007300A7
:101150002C00200049006E0063002E00280346008A
:10116000690072006D007700610072006500200068
:101170004600720061006D00650057006F0072004C
:101180006B0073002A0343006F006E006600690065
:101190006700750072006100740069006F006E00E6
:1011A000200053007400720069006E006700220383
:1011B00049006E0074006500720066006100630003
:1011C0006500200053007400720069006E00670023
:0211D00000001D
:00000001FF
