:02000000215786
:0300030002016691
:03000B0002016689
:0300130002016681
:03001B0002016679
:0300230002016671
:03002B0002016669
:0300330002030FB6
:03003B0002016659
:03004300020100B7
:03004B0002016649
:0300530002016641
:03005B000204BDDF
:0300630002016730
:03010000020C5A94
:030104000201ED08
:030108000202519F
:03010C0002027C70
:030110000202E404
:0101140032B8
:0101180032B4
:03011C000205FDDC
:03012000020000DA
:03012400020000D6
:0301280002043C92
:03012C0002046A60
:03013000020000CA
:03013400020000C6
:03013800020000C2
:03013C00020000BE
:03014000020000BA
:03014400020000B6
:03014800020000B2
:03014C00020000AE
:03015000020000AA
:1001540002000075817FE582600302016112076F6E
:10016400216432C0D0C086C082C083C0E0907F9733
:10017400E04480F0907F69F0F0F0F0F0F0F0F0F0FF
:10018400F0F0F0F0F0F0F0F0F0F0F0F0F0F0F0F06B
:10019400F0F0F0F0F0F0F0907F97E0557FF0907F72
:1001A4009AE030E423907F68F0F0F0F0F0F0F0F0A3
:1001B400F0F0F0F0F0F0F0F0F0F0F0F0F0F0F0F03B
:1001C400F0F0F0F0F0F0F0F0E5D8C2E3F5D8D0E0CC
:1001D400D083D082D086D0D03275860090FFC37C85
:1001E40005A3E582458370F922C0E0C0F0C082C057
:1001F40083C002C003C0D075D000C086758600E5F8
:1002040091C2E4F591908800E0F541907FAB7402CF
:10021400F0907FAB7402F0E53260217A007B00C37A
:10022400EA9418EB648094805012907F69F0F0F0A7
:10023400F0F0F0F0F00ABA00010B80E3D086D0D0E1
:10024400D003D002D083D082D0F0D0E032C0E0C05E
:10025400F0C082C083C0D075D000C086758600E52A
:1002640091C2E4F591907FAB7404F0D086D0D0D0E5
:1002740083D082D0F0D0E032C0E0C0F0C082C0832E
:10028400C002C003C004C005C006C007C000C0014E
:10029400C0D075D000C086758600E591C2E4F591A2
:1002A400907FAB7408F0756E00756F02121144757F
:1002B400703975710C757202121175907FD6E4F065
:1002C40075D820D086D0D0D001D000D007D006D0A9
:1002D40005D004D003D002D083D082D0F0D0E03255
:1002E400C0E0C0F0C082C083C0D075D000C08675A5
:1002F4008600E591C2E4F591907FAB7410F0D0864E
:10030400D0D0D083D082D0F0D0E032C0E0C0F0C0F2
:1003140082C083C002C003C004C005C006C007C0B9
:1003240000C001C0D075D000C086758600756E000F
:10033400756F0212114475704075710C757202125A
:100344001175907FD67402F0907FD67406F075D83C
:1003540010D086D0D0D001D000D007D006D005D0A0
:1003640004D003D002D083D082D0F0D0E032907F8A
:10037400A57480F0907FA6749AF012101B907FA64B
:10038400E542F012101B907FA6E543F012101B907B
:100394007FA57440F022907FA57480F0907FA674AE
:1003A4009AF012101B907FA6E544F012101B907F68
:1003B400A6E545F012101B907FA6E546F012101B2F
:1003C400907FA57440F0227544027545007546007F
:1003D40012039A7542037543001203722290880037
:1003E400E536F090880074102536F01201DD754270
:1003F4000175431812037275440275450075460071
:1004040012039A75420375434412037222C0E0C07A
:10041400F0C082C083C0D075D000C086758600E568
:1004240091C2E4F591907FAA7402F0D086D0D0D026
:1004340083D082D0F0D0E032C0E0C0F0C082C0836C
:10044400C0D075D000C086758600E591C2E4F591F0
:10045400907FA97404F0753001D086D0D0D083D0B9
:1004640082D0F0D0E032C0E0C0F0C082C083C0D0FF
:1004740075D000C086758600E591C2E4F591907F41
:10048400AA7404F0753101D086D0D0D083D082D044
:10049400F0D0E032C0E0C0F0C082C083C0D075D0DC
:1004A40000C086758600E591C2E5F591D086D0D06E
:1004B400D083D082D0F0D0E032C0E0C0F0C082C09F
:1004C40083C0D075D000C086758600E591C2E7F57B
:1004D40091D086D0D0D083D082D0F0D0E032907F3B
:1004E400EAE0FA8A20907F96E4F022907FEAE0FA2C
:1004F4008A2122901713E0FA901715E0FB74802AE2
:10050400FA74802BFBEA0303543FFCEAC423541F10
:10051400FA2CFAEB0303543FFCEBC423541FFB2CCB
:10052400FB90170AE0FC60027A0090170CE0FC6074
:10053400027B00EA2BFCC313F53A7544028B458A0F
:100544004612039A756E08756F0012114475704750
:1005540075710C757202121175853A731211A0220D
:10056400907F96E0FA907F9674806502F0907FEB1E
:10057400E0FA907FEAE0FB907FEFE0FC3395E0FD4A
:100584008C057C00907FEEE0FE3395E0FFEC2EFCC2
:10059400ED3FFD907FE9E0FEBE010280030205F914
:1005A400BC0121BD001EEAC40354F8FCEB25E0FDA8
:1005B4002C2400FCE43417FD907EC0E0FE8C828D78
:1005C40083F08031EAC40354F8FAEB25E0FB2AFAFD
:1005D4002400FBE43417FC907EC0E0FD8B828C8306
:1005E400F074012A2400FAE43417FB907EC1E0FC85
:1005F4008A828B83F075380122C0E0C0F0C082C0CB
:1006040083C002C003C004C005C006C007C000C048
:1006140001C0D075D000C086758600E591C2E4F5AE
:1006240091907FAA7401F0120564753700D086D0CA
:10063400D0D001D000D007D006D005D004D003D04C
:1006440002D083D082D0F0D0E032907FEBE0FA90F9
:100654007FEAE0FB907FEEE0FC3395E0FD907F962F
:10066400E0FE907F9674806506F0907F007401F040
:10067400EAC40354F8FEEB25E0FB2EFE2400FBE461
:100684003417FF8B828F83E0FB74012E2400FEE479
:100694003417FF8E828F83E0FE907FE9E0FFBF81F5
:1006A4000A907F00EBF0907F01EEF0907FE9E0FB91
:1006B400BB821ABA010C907F00E4F0907F01E4F051
:1006C400800B907F00E4F0907F0174B5F0907FE997
:1006D400E0FBBB831BBA010D907F007401F0907F97
:1006E40001E4F0800B907F00E4F0907F017412F03D
:1006F400907FE9E0FBBB841CBA010D907F0074017C
:10070400F0907F01E4F0800C907F007480F0907F83
:10071400017401F0907FB5ECF02275360D908800DD
:10072400741DF0756B80756C3C1210E2756B8075EE
:100734006C0F1210E2756B80756C061210E2756B0B
:1007440080756C011210E27A00BAFF00500AC002F0
:100754001201DDD0020A80F1756B80756C3C1210B9
:10076400E2756B80756C0F1210E222907FA1E4F0A9
:10077400907FAF7401F0907F927402F0758E3175A2
:10078400892175880075C800758D4075984075C0BD
:1007940040758700752000752100752200752300BF
:1007A400754700C3E54794205011E5472400F582BE
:1007B400E43417F583E4F0054780E8E4F540F53FB9
:1007C400E4F53CF53BE4F53EF53D75320075370044
:1007D400753900907F93743CF0907F9C74FFF09087
:1007E4007F967480F0907F947470F0907F9D748FE6
:1007F400F0907F97E4F0907F9574C2F0907F9874A6
:1008040028F0907F9E7428F0907FF0E4F0907FF1C0
:10081400E4F0907FF2E4F0907FF3E4F0907FF4E46E
:10082400F0907FF5E4F0907FF6E4F0907FF7E4F049
:10083400907FF8E4F0907FF97438F0907FFA74A018
:10084400F0907FFB74A0F0907FFC74A0F0907FFD8B
:1008540074A0F0907FFE74A0F0907FFF74A0F090DD
:100864007FE07403F0907FE17401F0907FDD748089
:10087400F012124312071E7A007B00C3EA941EEBA7
:1008840094005017908800E0F54790880BE0F547F6
:10089400907F68F00ABA00010B80E01203E1907FB8
:1008A400D6E4F07A007B008A048B05C3EA94E0EB7B
:1008B400942E501AC002C003C004C0051201DDD03A
:1008C40005D004D003D0020ABA00010B80D9907F6E
:1008D400D67402F0907FD67406F0907FDE7405F033
:1008E400907FDF7405F0907FACE4F0907FAD7405E9
:1008F400F075A88075F810907FAE740BF0907FE2CD
:100904007488F0907FAB7408F075E8117532017546
:100914003100753000C004C0051204F7D005D004BE
:10092400753400753501907FAE7403F08C02BA0003
:10093400028003020A3F853334907F9D748FF090C8
:100944007F977408F0907F9D7488F0907F9AE0FA06
:1009540074055AF533907F9D748FF0907F977402DD
:10096400F0907F9D7482F0E53325E0FA907F9AE061
:100974005405FB4AF533600C907F96E0FA907F961D
:1009840074804AF0756E00756F00C004C0051211C2
:1009940044D005D004901713E0FA74802AFAE533A2
:1009A400B40429BAA0005024901713E004FB0B9060
:1009B4001713EBF0901713E0FB901715F0C002C06B
:1009C40004C0051204F7D005D004D002E533B40204
:1009D40026C374049A5020901713E0FA1A1A901739
:1009E40013EAF0901713E0FA901715F0C004C0054D
:1009F4001204F7D005D004E533B4081DE5347019AA
:100A040074012535540FF535853575757600C004A8
:100A1400C0051213FED005D004E533B4011DE5343E
:100A24007019E53524FF540FF53585357575760055
:100A3400C004C0051213FED005D004C004C00512C2
:100A440001DDD005D004907F96E0FA907F96747F04
:100A54005AF0907F977408F0C3EC9400ED94024030
:100A640008907F96E0FA20E608C3E49C74089D5041
:100A740013907F96E0FA907F9674406502F07C00B4
:100A84007D0080050CBC00010DE538B4010EC004E6
:100A9400C0051204F7D005D004753800E5317003A1
:100AA40002092A907FC9E0FA7003020C2D907F9608
:100AB400E0FA907F9674806502F0907DC0E0FABA07
:100AC4002C028003020B367532007B00BB6400509D
:100AD4001CC002C003C004C0051201DDD005D0044F
:100AE400D003D00290880FE0F5470B80DFC002C02E
:100AF40004C00512071E1203E11204F7D005D00446
:100B0400D002756E00756F01C002C004C0051211D9
:100B140044D005D004D00275704D75710C75720205
:100B2400C002C004C005121175D005D004D0020261
:100B34000C2DBA2A3B907F987420F0C002C004C0E8
:100B4400051201DDD005D004D002907F987428F0FE
:100B54007B00BB0A004003020C2DC002C003C0048A
:100B6400C0051201DDD005D004D003D0020B80E211
:100B7400BA2B1A907FC9E0FBBB4012C002C004C06C
:100B840005121205D005D004D002020C2DBA101F94
:100B9400907F96E0FB907F9674806503F0C002C05E
:100BA40004C00512103DD005D004D002020C2DBAA9
:100BB4001112C002C004C00512106AD005D004D0BE
:100BC40002020C2DBA1212C002C004C00512108F0A
:100BD400D005D004D002020C2DBA130B907DC1E0D5
:100BE400FB908800F08042BA1411C002C004C00512
:100BF4001211DDD005D004D002802EBA151D907DCF
:100C0400C1E0F575907DC2E0F576C002C004C00570
:100C14001213FED005D004D002800EBA160BC00405
:100C2400C0051213A3D005D004907FC9E4F0753138
:100C34000002092A22535550454E4400524553554B
:100C44004D450020566F6C200044414255534220CC
:100C540076312E303000C0E0C0F0C082C083C002C4
:100C6400C003C004C005C006C007C000C001C0D096
:100C740075D000C086758600E591C2E4F591907F39
:100C8400AB7401F0907FE8E0FA907FE9E0FBBB00F1
:100C9400028003020D38BA8014907F007401F09032
:100CA4007F01E4F0907FB57402F0020ECDBA8202A7
:100CB4008003020D1D907FECE0FCBC01004021C3C9
:100CC40074079C401BEC24FF25E0FD24C6F582E458
:100CD400347FF583E0FD530501907F00EDF0802B18
:100CE400BC81004021C374879C401BEC247F25E019
:100CF400FC24B6F582E4347FF583E0FC53040190D0
:100D04007F00ECF08005907F00E4F0907F01E4F038
:100D1400907FB57402F0020ECDBA81028003020EF8
:100D2400C5907F00E4F0907F01E4F0907FB57402F9
:100D3400F0020ECDBB012DBA0003020ECDBA021192
:100D4400755900C002C003120EF0D003D002020E87
:100D5400CDBA21028003020ECD753701907FC5E420
:100D6400F0020ECDBB031FBA0003020ECDBA02027D
:100D74008003020ECD755901C002C003120EF0D0DB
:100D840003D002020ECDBB0654BA80028003020EC9
:100D9400C5907FEBE0FCBC01157CFB7D0F8D067FCD
:100DA40000907FD4EEF0907FD5ECF0020ECD907FD2
:100DB400EBE0FCBC02028003020EC5907FEAE0FC7B
:100DC400BC00028003020EC57C3B7D0F8D067F00B4
:100DD400907FD4EEF0907FD5ECF0020ECDBB0703EC
:100DE400020EC5BB0810AC48907F00ECF0907FB5B4
:100DF4007401F0020ECDBB0931BA00028003020E69
:100E0400C5907FEAE0FCC374019C5003020EC590B8
:100E14007FEAE0FCBC000A901721E4F0901722E47A
:100E2400F0907FEAE0F548020ECDBB0A27BA8102B2
:100E34008003020EC5907FECE0FA2420FAE4341714
:100E4400FC8A828C83E0FA907F00F0907FB5740175
:100E5400F0020ECDBB0B028003020EA9901720E412
:100E6400F0907FECE0FABA011A907FEDE0FABA0054
:100E740012907FEAE0FA901721F0C0031204E2D046
:100E8400038046907FECE0FABA023E907FEDE0FAF0
:100E9400BA0036C0031204EFD003907FEAE0FA9060
:100EA4001722F08024BB12028017BB8102800DBB85
:100EB40083028008BB82028003BB840512064E8035
:100EC40008907FB47403F08006907FB47402F0D06D
:100ED40086D0D0D001D000D007D006D005D004D021
:100EE40003D002D083D082D0F0D0E032907FECE007
:100EF400F55AC39401401DC37407955A4016E55A28
:100F040024FF25E0FA24C6F582E4347FF583AA5948
:100F1400EAF08022C3E55A9481401BC37487955A32
:100F24004014E55A24FF25E0FA24B6F582E4347F20
:100F3400F583AA59EAF0220902BA0003010040002D
:100F440009040000000101000009240100013D0022
:100F540001010C24020110070002030000000D240B
:100F64000603010215000300030000092403020123
:100F740001000100092403040203000300092403FF
:100F84000503060001000904010000010200000934
:100F94000401010101020000072401020101000B08
:100FA4002402010202100180BB000905880500012A
:100FB40001000007250100000000090402000200EE
:100FC40000000007058202400000070502024000FD
:100FD400000904020103000000000705820240002A
:100FE400000705020240000009058905A00101006F
:100FF4000000FFFFFFFF0012010001000000404756
:1010040005999900010000000100000000000000A3
:101014000902BA000301007A00BA05005017907F54
:10102400A5E0FB30E005900001800DC0021201DD57
:10103400D0020A80E490000122907DC1E0F9A3E08F
:10104400FAA3E0FB7C007D7EEB601289828A83E058
:10105400A3A982AA838C828D83F00CDBEE907DC3DE
:10106400E0907FB9F022907DC1E0F9A3E0FAA3E01B
:10107400FB7CC47D7DEB60E58C828D83E00C8982F2
:101084008A83F0A3A982AA83DBEE22907FA57480D1
:10109400F00586907DC1E00586A3F012101B907FB9
:1010A400A60586A3A3E0F96016A30586907FA6058E
:1010B40086E0A30586F0C00112101BD001D9ED9083
:1010C4007FA57440F0229088027401F07A00BAFF80
:1010D40000500AC0021201DDD0020A80F122E56B41
:1010E400B4C008908803E56CF08006908802E56C33
:1010F400F07A007B00C3EA9432EB6480948050075A
:101104000ABA00010B80EE22908803E56DF00539E0
:101114007A00BA280050030A80F8E539B410089020
:10112400880274C0F0800EE539B4200990880274F6
:1011340080F07539007A00BA280050030A80F8223A
:10114400E56F600280077A0075390080057A407582
:101154003910E56E2AFAE56E2539F539908802745E
:10116400802AF07A00C3EA648094A850030A80F5C8
:1011740022AA70AB71AC728A828B838CF01214EE4B
:10118400FD60188D6DC002C003C00412110CD004A0
:10119400D003D0020ABA00010B80DC22E573C454E8
:1011A4000FFA53020FC374099A500674372AFB804E
:1011B4000474302AFB8B6DC00312110CD003AA7384
:1011C40053020FC374099A500674372AFB800474BF
:1011D400302AFB8B6D12110C22907DC3E0FA600F54
:1011E400907DC1E0F56E907DC2E0F56F12114490E0
:1011F4007DFFE4F07570C475717D7572011211750F
:10120400227A04BA40005036EA24C0F582E4347DE0
:10121400F583E0FB7C00BC080050208B05ED30E733
:101224000B907F967442F074C3F08008907F96E42C
:10123400F07481F0EB25E0FB0C80DB0A80C5227A98
:10124400007BEFBA1000502074112BFB2400FCE447
:101254003418FD8C828D83E4F0EA2400F582E434B2
:1012640019F583E4F00A80DB2274F82400F5827413
:10127400033484F583E4F074F92400F582740334B0
:1012840084F583E4F074FA2400F58274033484F55D
:1012940083E4F074FB2400F58274033484F583E45E
:1012A400F074FF2400F58274033484F583E4F0229F
:1012B4001203CB12126D7AC07B877C0174012AFD64
:1012C400E43BFE8C078A828B838CF074011214BF7A
:1012D4002DFAE43EFB8F048D828E838FF074061208
:1012E40014BF74012AFDE43BFE8C078A828B838C35
:1012F400F0E41214BF74012DFAE43EFB8F048D82D6
:101304008E838FF0740B1214BF74012AFDE43BFE2C
:101314008C078A828B838CF074081214BF74012D9D
:10132400FAE43EFB8F048D828E838FF074011214D5
:10133400BF2AFDE43BFE8C078A828B838CF0E41287
:1013440014BF74012DFAE43EFB8F048D828E838FCB
:10135400F074031214BF7D00BD060050128A828B04
:10136400838CF00ABA00010BE41214BF0D80E98AE1
:10137400828B838CF0E5741214BF74F92400F58217
:1013840074033484F583740FF074FE2400F58274BE
:10139400033484F5837401F01203E11204F72290FC
:1013A4007DC1E0FA2400FBE43419FC907DC2E0FD29
:1013B4008B828C83F075F011EAA4FA7B00BB1000D9
:1013C4005024EA2400FCE43418FDEB2CFCE43DFD3D
:1013D40074042B24C0F582E4347DF583E0FE8C8212
:1013E4008D83F00B80D7EA2400FAE43418FB7410E0
:1013F4002AF582E43BF583E4F022E5766002801668
:10140400740F5575FA8A752400F582E43419F5834E
:10141400E0F5741212B41210CA756E00756F0012E2
:1014240011447570B9757114757202121175E576EF
:10143400B4020474018001E4FA700F74012575F597
:1014440073C0021211A0D002800A857573C0021203
:1014540011A0D002756E00756F01C002121144D044
:1014640002EA701A75F011E575A4FA2400FAE4345E
:1014740018FB8A708B7175720112117580367A00AF
:10148400BA1000502FEA2400F582E43419F583E001
:10149400FBE575B5031B75F011EAA4FB2400FBE41E
:1014A4003418FC8B708C71757201C002121175D0E6
:1014B400020A80CC2250726F672000C8C0E0C8C006
:1014C400E0E5F0600B14600F1460111460128015D5
:1014D400D0E0A882F6800ED0E0F08009D0E080054C
:1014E400D0E0A882F2C8D0E0C822C8C0E0E5F0602D
:1014F4000D14600F14600F14601074FF800FA88225
:10150400E6800AE08007E4938003A882E2F8D0E052
:02151400C822EB
:00000001FF
